{
	"contracts/Voting.sol": {
		"Voting": {
			"abi": [
				{
					"inputs": [],
					"stateMutability": "nonpayable",
					"type": "constructor"
				},
				{
					"inputs": [
						{
							"internalType": "address",
							"name": "owner",
							"type": "address"
						}
					],
					"name": "OwnableInvalidOwner",
					"type": "error"
				},
				{
					"inputs": [
						{
							"internalType": "address",
							"name": "account",
							"type": "address"
						}
					],
					"name": "OwnableUnauthorizedAccount",
					"type": "error"
				},
				{
					"anonymous": false,
					"inputs": [
						{
							"indexed": true,
							"internalType": "address",
							"name": "previousOwner",
							"type": "address"
						},
						{
							"indexed": true,
							"internalType": "address",
							"name": "newOwner",
							"type": "address"
						}
					],
					"name": "OwnershipTransferred",
					"type": "event"
				},
				{
					"anonymous": false,
					"inputs": [
						{
							"indexed": false,
							"internalType": "uint256",
							"name": "proposalId",
							"type": "uint256"
						}
					],
					"name": "ProposalRegistered",
					"type": "event"
				},
				{
					"anonymous": false,
					"inputs": [
						{
							"indexed": false,
							"internalType": "uint256",
							"name": "id",
							"type": "uint256"
						},
						{
							"indexed": false,
							"internalType": "string",
							"name": "description",
							"type": "string"
						}
					],
					"name": "SeeProposal",
					"type": "event"
				},
				{
					"anonymous": false,
					"inputs": [
						{
							"indexed": false,
							"internalType": "address",
							"name": "voter",
							"type": "address"
						},
						{
							"indexed": false,
							"internalType": "uint256",
							"name": "proposalId",
							"type": "uint256"
						}
					],
					"name": "Voted",
					"type": "event"
				},
				{
					"anonymous": false,
					"inputs": [
						{
							"indexed": false,
							"internalType": "address",
							"name": "voterAddress",
							"type": "address"
						}
					],
					"name": "VoterRegistered",
					"type": "event"
				},
				{
					"anonymous": false,
					"inputs": [
						{
							"indexed": false,
							"internalType": "enum Voting.WorkflowStatus",
							"name": "previousStatus",
							"type": "uint8"
						},
						{
							"indexed": false,
							"internalType": "enum Voting.WorkflowStatus",
							"name": "newStatus",
							"type": "uint8"
						}
					],
					"name": "WorkflowStatusChange",
					"type": "event"
				},
				{
					"inputs": [],
					"name": "countVotes",
					"outputs": [],
					"stateMutability": "nonpayable",
					"type": "function"
				},
				{
					"inputs": [],
					"name": "getAllProposals",
					"outputs": [
						{
							"internalType": "string[]",
							"name": "",
							"type": "string[]"
						}
					],
					"stateMutability": "view",
					"type": "function"
				},
				{
					"inputs": [],
					"name": "getWinningProposalId",
					"outputs": [
						{
							"internalType": "uint256",
							"name": "",
							"type": "uint256"
						}
					],
					"stateMutability": "view",
					"type": "function"
				},
				{
					"inputs": [],
					"name": "owner",
					"outputs": [
						{
							"internalType": "address",
							"name": "",
							"type": "address"
						}
					],
					"stateMutability": "view",
					"type": "function"
				},
				{
					"inputs": [
						{
							"internalType": "address",
							"name": "_voterAddress",
							"type": "address"
						}
					],
					"name": "registerVoter",
					"outputs": [],
					"stateMutability": "nonpayable",
					"type": "function"
				},
				{
					"inputs": [],
					"name": "renounceOwnership",
					"outputs": [],
					"stateMutability": "nonpayable",
					"type": "function"
				},
				{
					"inputs": [],
					"name": "startProposalRegistrationSession",
					"outputs": [],
					"stateMutability": "nonpayable",
					"type": "function"
				},
				{
					"inputs": [],
					"name": "startVotingSession",
					"outputs": [],
					"stateMutability": "nonpayable",
					"type": "function"
				},
				{
					"inputs": [],
					"name": "stopProposalRegistrationSession",
					"outputs": [],
					"stateMutability": "nonpayable",
					"type": "function"
				},
				{
					"inputs": [],
					"name": "stopVotingSession",
					"outputs": [],
					"stateMutability": "nonpayable",
					"type": "function"
				},
				{
					"inputs": [
						{
							"internalType": "string",
							"name": "_proposal",
							"type": "string"
						}
					],
					"name": "submitProposal",
					"outputs": [],
					"stateMutability": "nonpayable",
					"type": "function"
				},
				{
					"inputs": [
						{
							"internalType": "address",
							"name": "newOwner",
							"type": "address"
						}
					],
					"name": "transferOwnership",
					"outputs": [],
					"stateMutability": "nonpayable",
					"type": "function"
				},
				{
					"inputs": [
						{
							"internalType": "uint256",
							"name": "_proposalId",
							"type": "uint256"
						}
					],
					"name": "vote",
					"outputs": [],
					"stateMutability": "nonpayable",
					"type": "function"
				}
			],
			"devdoc": {
				"errors": {
					"OwnableInvalidOwner(address)": [
						{
							"details": "The owner is not a valid owner account. (eg. `address(0)`)"
						}
					],
					"OwnableUnauthorizedAccount(address)": [
						{
							"details": "The caller account is not authorized to perform an operation."
						}
					]
				},
				"kind": "dev",
				"methods": {
					"owner()": {
						"details": "Returns the address of the current owner."
					},
					"renounceOwnership()": {
						"details": "Leaves the contract without owner. It will not be possible to call `onlyOwner` functions. Can only be called by the current owner. NOTE: Renouncing ownership will leave the contract without an owner, thereby disabling any functionality that is only available to the owner."
					},
					"transferOwnership(address)": {
						"details": "Transfers ownership of the contract to a new account (`newOwner`). Can only be called by the current owner."
					}
				},
				"version": 1
			},
			"evm": {
				"assembly": "    /* \"contracts/Voting.sol\":116:5740  contract Voting is Ownable {... */\n  mstore(0x40, 0x80)\n    /* \"contracts/Voting.sol\":1424:1526  constructor() Ownable(msg.sender) {... */\n  callvalue\n  dup1\n  iszero\n  tag_1\n  jumpi\n  0x00\n  dup1\n  revert\ntag_1:\n  pop\n    /* \"contracts/Voting.sol\":1446:1456  msg.sender */\n  caller\n    /* \"@openzeppelin/contracts/access/Ownable.sol\":1297:1298  0 */\n  0x00\n    /* \"@openzeppelin/contracts/access/Ownable.sol\":1273:1299  initialOwner == address(0) */\n  0xffffffffffffffffffffffffffffffffffffffff\n  and\n    /* \"@openzeppelin/contracts/access/Ownable.sol\":1273:1285  initialOwner */\n  dup2\n    /* \"@openzeppelin/contracts/access/Ownable.sol\":1273:1299  initialOwner == address(0) */\n  0xffffffffffffffffffffffffffffffffffffffff\n  and\n  sub\n    /* \"@openzeppelin/contracts/access/Ownable.sol\":1269:1364  if (initialOwner == address(0)) {... */\n  tag_5\n  jumpi\n    /* \"@openzeppelin/contracts/access/Ownable.sol\":1350:1351  0 */\n  0x00\n    /* \"@openzeppelin/contracts/access/Ownable.sol\":1322:1353  OwnableInvalidOwner(address(0)) */\n  mload(0x40)\n  0x1e4fbdf700000000000000000000000000000000000000000000000000000000\n  dup2\n  mstore\n  0x04\n  add\n  tag_6\n  swap2\n  swap1\n  tag_7\n  jump\t// in\ntag_6:\n  mload(0x40)\n  dup1\n  swap2\n  sub\n  swap1\n  revert\n    /* \"@openzeppelin/contracts/access/Ownable.sol\":1269:1364  if (initialOwner == address(0)) {... */\ntag_5:\n    /* \"@openzeppelin/contracts/access/Ownable.sol\":1373:1405  _transferOwnership(initialOwner) */\n  tag_8\n    /* \"@openzeppelin/contracts/access/Ownable.sol\":1392:1404  initialOwner */\n  dup2\n    /* \"@openzeppelin/contracts/access/Ownable.sol\":1373:1391  _transferOwnership */\n  shl(0x20, tag_9)\n    /* \"@openzeppelin/contracts/access/Ownable.sol\":1373:1405  _transferOwnership(initialOwner) */\n  0x20\n  shr\n  jump\t// in\ntag_8:\n    /* \"@openzeppelin/contracts/access/Ownable.sol\":1225:1412  constructor(address initialOwner) {... */\n  pop\n    /* \"contracts/Voting.sol\":1486:1518  WorkflowStatus.RegisteringVoters */\n  0x00\n    /* \"contracts/Voting.sol\":1469:1483  workflowStatus */\n  0x06\n  0x00\n    /* \"contracts/Voting.sol\":1469:1518  workflowStatus = WorkflowStatus.RegisteringVoters */\n  0x0100\n  exp\n  dup2\n  sload\n  dup2\n  0xff\n  mul\n  not\n  and\n  swap1\n  dup4\n  0x05\n  dup2\n  gt\n  iszero\n  tag_11\n  jumpi\n  tag_12\n  tag_13\n  jump\t// in\ntag_12:\ntag_11:\n  mul\n  or\n  swap1\n  sstore\n  pop\n    /* \"contracts/Voting.sol\":116:5740  contract Voting is Ownable {... */\n  jump(tag_14)\n    /* \"@openzeppelin/contracts/access/Ownable.sol\":2912:3099  function _transferOwnership(address newOwner) internal virtual {... */\ntag_9:\n    /* \"@openzeppelin/contracts/access/Ownable.sol\":2985:3001  address oldOwner */\n  0x00\n    /* \"@openzeppelin/contracts/access/Ownable.sol\":3004:3010  _owner */\n  dup1\n  0x00\n  swap1\n  sload\n  swap1\n  0x0100\n  exp\n  swap1\n  div\n  0xffffffffffffffffffffffffffffffffffffffff\n  and\n    /* \"@openzeppelin/contracts/access/Ownable.sol\":2985:3010  address oldOwner = _owner */\n  swap1\n  pop\n    /* \"@openzeppelin/contracts/access/Ownable.sol\":3029:3037  newOwner */\n  dup2\n    /* \"@openzeppelin/contracts/access/Ownable.sol\":3020:3026  _owner */\n  0x00\n  dup1\n    /* \"@openzeppelin/contracts/access/Ownable.sol\":3020:3037  _owner = newOwner */\n  0x0100\n  exp\n  dup2\n  sload\n  dup2\n  0xffffffffffffffffffffffffffffffffffffffff\n  mul\n  not\n  and\n  swap1\n  dup4\n  0xffffffffffffffffffffffffffffffffffffffff\n  and\n  mul\n  or\n  swap1\n  sstore\n  pop\n    /* \"@openzeppelin/contracts/access/Ownable.sol\":3083:3091  newOwner */\n  dup2\n    /* \"@openzeppelin/contracts/access/Ownable.sol\":3052:3092  OwnershipTransferred(oldOwner, newOwner) */\n  0xffffffffffffffffffffffffffffffffffffffff\n  and\n    /* \"@openzeppelin/contracts/access/Ownable.sol\":3073:3081  oldOwner */\n  dup2\n    /* \"@openzeppelin/contracts/access/Ownable.sol\":3052:3092  OwnershipTransferred(oldOwner, newOwner) */\n  0xffffffffffffffffffffffffffffffffffffffff\n  and\n  0x8be0079c531659141344cd1fd0a4f28419497f9722a3daafe3b4186f6b6457e0\n  mload(0x40)\n  mload(0x40)\n  dup1\n  swap2\n  sub\n  swap1\n  log3\n    /* \"@openzeppelin/contracts/access/Ownable.sol\":2975:3099  {... */\n  pop\n    /* \"@openzeppelin/contracts/access/Ownable.sol\":2912:3099  function _transferOwnership(address newOwner) internal virtual {... */\n  pop\n  jump\t// out\n    /* \"#utility.yul\":7:133   */\ntag_16:\n    /* \"#utility.yul\":44:51   */\n  0x00\n    /* \"#utility.yul\":84:126   */\n  0xffffffffffffffffffffffffffffffffffffffff\n    /* \"#utility.yul\":77:82   */\n  dup3\n    /* \"#utility.yul\":73:127   */\n  and\n    /* \"#utility.yul\":62:127   */\n  swap1\n  pop\n    /* \"#utility.yul\":7:133   */\n  swap2\n  swap1\n  pop\n  jump\t// out\n    /* \"#utility.yul\":139:235   */\ntag_17:\n    /* \"#utility.yul\":176:183   */\n  0x00\n    /* \"#utility.yul\":205:229   */\n  tag_22\n    /* \"#utility.yul\":223:228   */\n  dup3\n    /* \"#utility.yul\":205:229   */\n  tag_16\n  jump\t// in\ntag_22:\n    /* \"#utility.yul\":194:229   */\n  swap1\n  pop\n    /* \"#utility.yul\":139:235   */\n  swap2\n  swap1\n  pop\n  jump\t// out\n    /* \"#utility.yul\":241:359   */\ntag_18:\n    /* \"#utility.yul\":328:352   */\n  tag_24\n    /* \"#utility.yul\":346:351   */\n  dup2\n    /* \"#utility.yul\":328:352   */\n  tag_17\n  jump\t// in\ntag_24:\n    /* \"#utility.yul\":323:326   */\n  dup3\n    /* \"#utility.yul\":316:353   */\n  mstore\n    /* \"#utility.yul\":241:359   */\n  pop\n  pop\n  jump\t// out\n    /* \"#utility.yul\":365:587   */\ntag_7:\n    /* \"#utility.yul\":458:462   */\n  0x00\n    /* \"#utility.yul\":496:498   */\n  0x20\n    /* \"#utility.yul\":485:494   */\n  dup3\n    /* \"#utility.yul\":481:499   */\n  add\n    /* \"#utility.yul\":473:499   */\n  swap1\n  pop\n    /* \"#utility.yul\":509:580   */\n  tag_26\n    /* \"#utility.yul\":577:578   */\n  0x00\n    /* \"#utility.yul\":566:575   */\n  dup4\n    /* \"#utility.yul\":562:579   */\n  add\n    /* \"#utility.yul\":553:559   */\n  dup5\n    /* \"#utility.yul\":509:580   */\n  tag_18\n  jump\t// in\ntag_26:\n    /* \"#utility.yul\":365:587   */\n  swap3\n  swap2\n  pop\n  pop\n  jump\t// out\n    /* \"#utility.yul\":593:773   */\ntag_13:\n    /* \"#utility.yul\":641:718   */\n  0x4e487b7100000000000000000000000000000000000000000000000000000000\n    /* \"#utility.yul\":638:639   */\n  0x00\n    /* \"#utility.yul\":631:719   */\n  mstore\n    /* \"#utility.yul\":738:742   */\n  0x21\n    /* \"#utility.yul\":735:736   */\n  0x04\n    /* \"#utility.yul\":728:743   */\n  mstore\n    /* \"#utility.yul\":762:766   */\n  0x24\n    /* \"#utility.yul\":759:760   */\n  0x00\n    /* \"#utility.yul\":752:767   */\n  revert\n    /* \"contracts/Voting.sol\":116:5740  contract Voting is Ownable {... */\ntag_14:\n  dataSize(sub_0)\n  dup1\n  dataOffset(sub_0)\n  0x00\n  codecopy\n  0x00\n  return\nstop\n\nsub_0: assembly {\n        /* \"contracts/Voting.sol\":116:5740  contract Voting is Ownable {... */\n      mstore(0x40, 0x80)\n      callvalue\n      dup1\n      iszero\n      tag_1\n      jumpi\n      0x00\n      dup1\n      revert\n    tag_1:\n      pop\n      jumpi(tag_2, lt(calldatasize, 0x04))\n      shr(0xe0, calldataload(0x00))\n      dup1\n      0x8da5cb5b\n      gt\n      tag_16\n      jumpi\n      dup1\n      0xcceb68f5\n      gt\n      tag_17\n      jumpi\n      dup1\n      0xcceb68f5\n      eq\n      tag_12\n      jumpi\n      dup1\n      0xe81e977b\n      eq\n      tag_13\n      jumpi\n      dup1\n      0xee74c678\n      eq\n      tag_14\n      jumpi\n      dup1\n      0xf2fde38b\n      eq\n      tag_15\n      jumpi\n      jump(tag_2)\n    tag_17:\n      dup1\n      0x8da5cb5b\n      eq\n      tag_9\n      jumpi\n      dup1\n      0x8efca69d\n      eq\n      tag_10\n      jumpi\n      dup1\n      0xb647990a\n      eq\n      tag_11\n      jumpi\n      jump(tag_2)\n    tag_16:\n      dup1\n      0x0121b93f\n      eq\n      tag_3\n      jumpi\n      dup1\n      0x0e76ab1d\n      eq\n      tag_4\n      jumpi\n      dup1\n      0x17a0ad8e\n      eq\n      tag_5\n      jumpi\n      dup1\n      0x373d6d5e\n      eq\n      tag_6\n      jumpi\n      dup1\n      0x38db6dd3\n      eq\n      tag_7\n      jumpi\n      dup1\n      0x715018a6\n      eq\n      tag_8\n      jumpi\n    tag_2:\n      0x00\n      dup1\n      revert\n        /* \"contracts/Voting.sol\":3805:4352  function vote(uint _proposalId) external verifyStatus(WorkflowStatus.VotingSessionStarted) {... */\n    tag_3:\n      tag_18\n      0x04\n      dup1\n      calldatasize\n      sub\n      dup2\n      add\n      swap1\n      tag_19\n      swap2\n      swap1\n      tag_20\n      jump\t// in\n    tag_19:\n      tag_21\n      jump\t// in\n    tag_18:\n      stop\n        /* \"contracts/Voting.sol\":2187:2481  function stopProposalRegistrationSession() external onlyOwner verifyStatus(WorkflowStatus.ProposalsRegistrationStarted) {... */\n    tag_4:\n      tag_22\n      tag_23\n      jump\t// in\n    tag_22:\n      stop\n        /* \"contracts/Voting.sol\":3183:3439  function stopVotingSession() external onlyOwner verifyStatus(WorkflowStatus.VotingSessionStarted) {... */\n    tag_5:\n      tag_24\n      tag_25\n      jump\t// in\n    tag_24:\n      stop\n        /* \"contracts/Voting.sol\":2489:2896  function submitProposal(string memory _proposal) external verifyStatus(WorkflowStatus.ProposalsRegistrationStarted) {... */\n    tag_6:\n      tag_26\n      0x04\n      dup1\n      calldatasize\n      sub\n      dup2\n      add\n      swap1\n      tag_27\n      swap2\n      swap1\n      tag_28\n      jump\t// in\n    tag_27:\n      tag_29\n      jump\t// in\n    tag_26:\n      stop\n        /* \"contracts/Voting.sol\":1534:1896  function registerVoter(address _voterAddress) external onlyOwner verifyStatus(WorkflowStatus.RegisteringVoters) {... */\n    tag_7:\n      tag_30\n      0x04\n      dup1\n      calldatasize\n      sub\n      dup2\n      add\n      swap1\n      tag_31\n      swap2\n      swap1\n      tag_32\n      jump\t// in\n    tag_31:\n      tag_33\n      jump\t// in\n    tag_30:\n      stop\n        /* \"@openzeppelin/contracts/access/Ownable.sol\":2293:2394  function renounceOwnership() public virtual onlyOwner {... */\n    tag_8:\n      tag_34\n      tag_35\n      jump\t// in\n    tag_34:\n      stop\n        /* \"@openzeppelin/contracts/access/Ownable.sol\":1638:1723  function owner() public view virtual returns (address) {... */\n    tag_9:\n      tag_36\n      tag_37\n      jump\t// in\n    tag_36:\n      mload(0x40)\n      tag_38\n      swap2\n      swap1\n      tag_39\n      jump\t// in\n    tag_38:\n      mload(0x40)\n      dup1\n      swap2\n      sub\n      swap1\n      return\n        /* \"contracts/Voting.sol\":1904:2179  function startProposalRegistrationSession() external onlyOwner verifyStatus(WorkflowStatus.RegisteringVoters) {... */\n    tag_10:\n      tag_40\n      tag_41\n      jump\t// in\n    tag_40:\n      stop\n        /* \"contracts/Voting.sol\":4360:5737  function countVotes() external onlyOwner verifyStatus(WorkflowStatus.VotingSessionEnded) {... */\n    tag_11:\n      tag_42\n      tag_43\n      jump\t// in\n    tag_42:\n      stop\n        /* \"contracts/Voting.sol\":3447:3797  function getAllProposals() external view verifyStatus(WorkflowStatus.VotingSessionStarted) returns (string[] memory) {... */\n    tag_12:\n      tag_44\n      tag_45\n      jump\t// in\n    tag_44:\n      mload(0x40)\n      tag_46\n      swap2\n      swap1\n      tag_47\n      jump\t// in\n    tag_46:\n      mload(0x40)\n      dup1\n      swap2\n      sub\n      swap1\n      return\n        /* \"contracts/Voting.sol\":1110:1253  function getWinningProposalId() public view verifyStatus(WorkflowStatus.VotesTallied) returns(uint) {... */\n    tag_13:\n      tag_48\n      tag_49\n      jump\t// in\n    tag_48:\n      mload(0x40)\n      tag_50\n      swap2\n      swap1\n      tag_51\n      jump\t// in\n    tag_50:\n      mload(0x40)\n      dup1\n      swap2\n      sub\n      swap1\n      return\n        /* \"contracts/Voting.sol\":2904:3175  function startVotingSession() external onlyOwner verifyStatus(WorkflowStatus.ProposalsRegistrationEnded) {... */\n    tag_14:\n      tag_52\n      tag_53\n      jump\t// in\n    tag_52:\n      stop\n        /* \"@openzeppelin/contracts/access/Ownable.sol\":2543:2758  function transferOwnership(address newOwner) public virtual onlyOwner {... */\n    tag_15:\n      tag_54\n      0x04\n      dup1\n      calldatasize\n      sub\n      dup2\n      add\n      swap1\n      tag_55\n      swap2\n      swap1\n      tag_32\n      jump\t// in\n    tag_55:\n      tag_56\n      jump\t// in\n    tag_54:\n      stop\n        /* \"contracts/Voting.sol\":3805:4352  function vote(uint _proposalId) external verifyStatus(WorkflowStatus.VotingSessionStarted) {... */\n    tag_21:\n        /* \"contracts/Voting.sol\":3859:3894  WorkflowStatus.VotingSessionStarted */\n      0x03\n        /* \"contracts/Voting.sol\":1352:1367  _workflowStatus */\n      dup1\n        /* \"contracts/Voting.sol\":1334:1367  workflowStatus == _workflowStatus */\n      0x05\n      dup2\n      gt\n      iszero\n      tag_58\n      jumpi\n      tag_59\n      tag_60\n      jump\t// in\n    tag_59:\n    tag_58:\n        /* \"contracts/Voting.sol\":1334:1348  workflowStatus */\n      0x06\n      0x00\n      swap1\n      sload\n      swap1\n      0x0100\n      exp\n      swap1\n      div\n      0xff\n      and\n        /* \"contracts/Voting.sol\":1334:1367  workflowStatus == _workflowStatus */\n      0x05\n      dup2\n      gt\n      iszero\n      tag_61\n      jumpi\n      tag_62\n      tag_60\n      jump\t// in\n    tag_62:\n    tag_61:\n      eq\n        /* \"contracts/Voting.sol\":1326:1396  require(workflowStatus == _workflowStatus, \"It's not the good stage.\") */\n      tag_63\n      jumpi\n      mload(0x40)\n      0x08c379a000000000000000000000000000000000000000000000000000000000\n      dup2\n      mstore\n      0x04\n      add\n      tag_64\n      swap1\n      tag_65\n      jump\t// in\n    tag_64:\n      mload(0x40)\n      dup1\n      swap2\n      sub\n      swap1\n      revert\n    tag_63:\n        /* \"contracts/Voting.sol\":3915:3921  voters */\n      0x01\n        /* \"contracts/Voting.sol\":3915:3933  voters[msg.sender] */\n      0x00\n        /* \"contracts/Voting.sol\":3922:3932  msg.sender */\n      caller\n        /* \"contracts/Voting.sol\":3915:3933  voters[msg.sender] */\n      0xffffffffffffffffffffffffffffffffffffffff\n      and\n      0xffffffffffffffffffffffffffffffffffffffff\n      and\n      dup2\n      mstore\n      0x20\n      add\n      swap1\n      dup2\n      mstore\n      0x20\n      add\n      0x00\n      keccak256\n        /* \"contracts/Voting.sol\":3915:3946  voters[msg.sender].isRegistered */\n      0x00\n      add\n      0x00\n      swap1\n      sload\n      swap1\n      0x0100\n      exp\n      swap1\n      div\n      0xff\n      and\n        /* \"contracts/Voting.sol\":3907:3979  require(voters[msg.sender].isRegistered, \"The voter is not registered!\") */\n      tag_67\n      jumpi\n      mload(0x40)\n      0x08c379a000000000000000000000000000000000000000000000000000000000\n      dup2\n      mstore\n      0x04\n      add\n      tag_68\n      swap1\n      tag_69\n      jump\t// in\n    tag_68:\n      mload(0x40)\n      dup1\n      swap2\n      sub\n      swap1\n      revert\n    tag_67:\n        /* \"contracts/Voting.sol\":3999:4005  voters */\n      0x01\n        /* \"contracts/Voting.sol\":3999:4017  voters[msg.sender] */\n      0x00\n        /* \"contracts/Voting.sol\":4006:4016  msg.sender */\n      caller\n        /* \"contracts/Voting.sol\":3999:4017  voters[msg.sender] */\n      0xffffffffffffffffffffffffffffffffffffffff\n      and\n      0xffffffffffffffffffffffffffffffffffffffff\n      and\n      dup2\n      mstore\n      0x20\n      add\n      swap1\n      dup2\n      mstore\n      0x20\n      add\n      0x00\n      keccak256\n        /* \"contracts/Voting.sol\":3999:4026  voters[msg.sender].hasVoted */\n      0x00\n      add\n      0x01\n      swap1\n      sload\n      swap1\n      0x0100\n      exp\n      swap1\n      div\n      0xff\n      and\n        /* \"contracts/Voting.sol\":3998:4026  !voters[msg.sender].hasVoted */\n      iszero\n        /* \"contracts/Voting.sol\":3990:4059  require(!voters[msg.sender].hasVoted, \"The voter has already voted!\") */\n      tag_70\n      jumpi\n      mload(0x40)\n      0x08c379a000000000000000000000000000000000000000000000000000000000\n      dup2\n      mstore\n      0x04\n      add\n      tag_71\n      swap1\n      tag_72\n      jump\t// in\n    tag_71:\n      mload(0x40)\n      dup1\n      swap2\n      sub\n      swap1\n      revert\n    tag_70:\n        /* \"contracts/Voting.sol\":4092:4101  proposals */\n      0x03\n        /* \"contracts/Voting.sol\":4092:4108  proposals.length */\n      dup1\n      sload\n      swap1\n      pop\n        /* \"contracts/Voting.sol\":4078:4089  _proposalId */\n      dup3\n        /* \"contracts/Voting.sol\":4078:4108  _proposalId < proposals.length */\n      lt\n        /* \"contracts/Voting.sol\":4070:4140  require(_proposalId < proposals.length, \"The proposal doesn't exist!\") */\n      tag_73\n      jumpi\n      mload(0x40)\n      0x08c379a000000000000000000000000000000000000000000000000000000000\n      dup2\n      mstore\n      0x04\n      add\n      tag_74\n      swap1\n      tag_75\n      jump\t// in\n    tag_74:\n      mload(0x40)\n      dup1\n      swap2\n      sub\n      swap1\n      revert\n    tag_73:\n        /* \"contracts/Voting.sol\":4189:4190  1 */\n      0x01\n        /* \"contracts/Voting.sol\":4153:4162  proposals */\n      0x03\n        /* \"contracts/Voting.sol\":4163:4174  _proposalId */\n      dup4\n        /* \"contracts/Voting.sol\":4153:4175  proposals[_proposalId] */\n      dup2\n      sload\n      dup2\n      lt\n      tag_76\n      jumpi\n      tag_77\n      tag_78\n      jump\t// in\n    tag_77:\n    tag_76:\n      swap1\n      0x00\n      mstore\n      keccak256(0x00, 0x20)\n      swap1\n      0x02\n      mul\n      add\n        /* \"contracts/Voting.sol\":4153:4185  proposals[_proposalId].voteCount */\n      0x01\n      add\n      0x00\n        /* \"contracts/Voting.sol\":4153:4190  proposals[_proposalId].voteCount += 1 */\n      dup3\n      dup3\n      sload\n      tag_80\n      swap2\n      swap1\n      tag_81\n      jump\t// in\n    tag_80:\n      swap3\n      pop\n      pop\n      dup2\n      swap1\n      sstore\n      pop\n        /* \"contracts/Voting.sol\":4233:4237  true */\n      0x01\n        /* \"contracts/Voting.sol\":4203:4209  voters */\n      dup1\n        /* \"contracts/Voting.sol\":4203:4221  voters[msg.sender] */\n      0x00\n        /* \"contracts/Voting.sol\":4210:4220  msg.sender */\n      caller\n        /* \"contracts/Voting.sol\":4203:4221  voters[msg.sender] */\n      0xffffffffffffffffffffffffffffffffffffffff\n      and\n      0xffffffffffffffffffffffffffffffffffffffff\n      and\n      dup2\n      mstore\n      0x20\n      add\n      swap1\n      dup2\n      mstore\n      0x20\n      add\n      0x00\n      keccak256\n        /* \"contracts/Voting.sol\":4203:4230  voters[msg.sender].hasVoted */\n      0x00\n      add\n      0x01\n        /* \"contracts/Voting.sol\":4203:4237  voters[msg.sender].hasVoted = true */\n      0x0100\n      exp\n      dup2\n      sload\n      dup2\n      0xff\n      mul\n      not\n      and\n      swap1\n      dup4\n      iszero\n      iszero\n      mul\n      or\n      swap1\n      sstore\n      pop\n        /* \"contracts/Voting.sol\":4285:4296  _proposalId */\n      dup2\n        /* \"contracts/Voting.sol\":4248:4254  voters */\n      0x01\n        /* \"contracts/Voting.sol\":4248:4266  voters[msg.sender] */\n      0x00\n        /* \"contracts/Voting.sol\":4255:4265  msg.sender */\n      caller\n        /* \"contracts/Voting.sol\":4248:4266  voters[msg.sender] */\n      0xffffffffffffffffffffffffffffffffffffffff\n      and\n      0xffffffffffffffffffffffffffffffffffffffff\n      and\n      dup2\n      mstore\n      0x20\n      add\n      swap1\n      dup2\n      mstore\n      0x20\n      add\n      0x00\n      keccak256\n        /* \"contracts/Voting.sol\":4248:4282  voters[msg.sender].votedProposalId */\n      0x01\n      add\n        /* \"contracts/Voting.sol\":4248:4296  voters[msg.sender].votedProposalId = _proposalId */\n      dup2\n      swap1\n      sstore\n      pop\n        /* \"contracts/Voting.sol\":4314:4344  Voted(msg.sender, _proposalId) */\n      0x4d99b957a2bc29a30ebd96a7be8e68fe50a3c701db28a91436490b7d53870ca4\n        /* \"contracts/Voting.sol\":4320:4330  msg.sender */\n      caller\n        /* \"contracts/Voting.sol\":4332:4343  _proposalId */\n      dup4\n        /* \"contracts/Voting.sol\":4314:4344  Voted(msg.sender, _proposalId) */\n      mload(0x40)\n      tag_82\n      swap3\n      swap2\n      swap1\n      tag_83\n      jump\t// in\n    tag_82:\n      mload(0x40)\n      dup1\n      swap2\n      sub\n      swap1\n      log1\n        /* \"contracts/Voting.sol\":3805:4352  function vote(uint _proposalId) external verifyStatus(WorkflowStatus.VotingSessionStarted) {... */\n      pop\n      pop\n      jump\t// out\n        /* \"contracts/Voting.sol\":2187:2481  function stopProposalRegistrationSession() external onlyOwner verifyStatus(WorkflowStatus.ProposalsRegistrationStarted) {... */\n    tag_23:\n        /* \"@openzeppelin/contracts/access/Ownable.sol\":1531:1544  _checkOwner() */\n      tag_85\n        /* \"@openzeppelin/contracts/access/Ownable.sol\":1531:1542  _checkOwner */\n      tag_86\n        /* \"@openzeppelin/contracts/access/Ownable.sol\":1531:1544  _checkOwner() */\n      jump\t// in\n    tag_85:\n        /* \"contracts/Voting.sol\":2262:2305  WorkflowStatus.ProposalsRegistrationStarted */\n      0x01\n        /* \"contracts/Voting.sol\":1352:1367  _workflowStatus */\n      dup1\n        /* \"contracts/Voting.sol\":1334:1367  workflowStatus == _workflowStatus */\n      0x05\n      dup2\n      gt\n      iszero\n      tag_88\n      jumpi\n      tag_89\n      tag_60\n      jump\t// in\n    tag_89:\n    tag_88:\n        /* \"contracts/Voting.sol\":1334:1348  workflowStatus */\n      0x06\n      0x00\n      swap1\n      sload\n      swap1\n      0x0100\n      exp\n      swap1\n      div\n      0xff\n      and\n        /* \"contracts/Voting.sol\":1334:1367  workflowStatus == _workflowStatus */\n      0x05\n      dup2\n      gt\n      iszero\n      tag_90\n      jumpi\n      tag_91\n      tag_60\n      jump\t// in\n    tag_91:\n    tag_90:\n      eq\n        /* \"contracts/Voting.sol\":1326:1396  require(workflowStatus == _workflowStatus, \"It's not the good stage.\") */\n      tag_92\n      jumpi\n      mload(0x40)\n      0x08c379a000000000000000000000000000000000000000000000000000000000\n      dup2\n      mstore\n      0x04\n      add\n      tag_93\n      swap1\n      tag_65\n      jump\t// in\n    tag_93:\n      mload(0x40)\n      dup1\n      swap2\n      sub\n      swap1\n      revert\n    tag_92:\n        /* \"contracts/Voting.sol\":2335:2376  WorkflowStatus.ProposalsRegistrationEnded */\n      0x02\n        /* \"contracts/Voting.sol\":2318:2332  workflowStatus */\n      0x06\n      0x00\n        /* \"contracts/Voting.sol\":2318:2376  workflowStatus = WorkflowStatus.ProposalsRegistrationEnded */\n      0x0100\n      exp\n      dup2\n      sload\n      dup2\n      0xff\n      mul\n      not\n      and\n      swap1\n      dup4\n      0x05\n      dup2\n      gt\n      iszero\n      tag_95\n      jumpi\n      tag_96\n      tag_60\n      jump\t// in\n    tag_96:\n    tag_95:\n      mul\n      or\n      swap1\n      sstore\n      pop\n        /* \"contracts/Voting.sol\":2392:2473  WorkflowStatusChange(WorkflowStatus.ProposalsRegistrationStarted, workflowStatus) */\n      0x0a97a4ee45751e2abf3e4fc8946939630b11b371ea8ae39ccdc3056e98f5cc3f\n        /* \"contracts/Voting.sol\":2413:2456  WorkflowStatus.ProposalsRegistrationStarted */\n      0x01\n        /* \"contracts/Voting.sol\":2458:2472  workflowStatus */\n      0x06\n      0x00\n      swap1\n      sload\n      swap1\n      0x0100\n      exp\n      swap1\n      div\n      0xff\n      and\n        /* \"contracts/Voting.sol\":2392:2473  WorkflowStatusChange(WorkflowStatus.ProposalsRegistrationStarted, workflowStatus) */\n      mload(0x40)\n      tag_97\n      swap3\n      swap2\n      swap1\n      tag_98\n      jump\t// in\n    tag_97:\n      mload(0x40)\n      dup1\n      swap2\n      sub\n      swap1\n      log1\n        /* \"@openzeppelin/contracts/access/Ownable.sol\":1554:1555  _ */\n      pop\n        /* \"contracts/Voting.sol\":2187:2481  function stopProposalRegistrationSession() external onlyOwner verifyStatus(WorkflowStatus.ProposalsRegistrationStarted) {... */\n      jump\t// out\n        /* \"contracts/Voting.sol\":3183:3439  function stopVotingSession() external onlyOwner verifyStatus(WorkflowStatus.VotingSessionStarted) {... */\n    tag_25:\n        /* \"@openzeppelin/contracts/access/Ownable.sol\":1531:1544  _checkOwner() */\n      tag_100\n        /* \"@openzeppelin/contracts/access/Ownable.sol\":1531:1542  _checkOwner */\n      tag_86\n        /* \"@openzeppelin/contracts/access/Ownable.sol\":1531:1544  _checkOwner() */\n      jump\t// in\n    tag_100:\n        /* \"contracts/Voting.sol\":3244:3279  WorkflowStatus.VotingSessionStarted */\n      0x03\n        /* \"contracts/Voting.sol\":1352:1367  _workflowStatus */\n      dup1\n        /* \"contracts/Voting.sol\":1334:1367  workflowStatus == _workflowStatus */\n      0x05\n      dup2\n      gt\n      iszero\n      tag_102\n      jumpi\n      tag_103\n      tag_60\n      jump\t// in\n    tag_103:\n    tag_102:\n        /* \"contracts/Voting.sol\":1334:1348  workflowStatus */\n      0x06\n      0x00\n      swap1\n      sload\n      swap1\n      0x0100\n      exp\n      swap1\n      div\n      0xff\n      and\n        /* \"contracts/Voting.sol\":1334:1367  workflowStatus == _workflowStatus */\n      0x05\n      dup2\n      gt\n      iszero\n      tag_104\n      jumpi\n      tag_105\n      tag_60\n      jump\t// in\n    tag_105:\n    tag_104:\n      eq\n        /* \"contracts/Voting.sol\":1326:1396  require(workflowStatus == _workflowStatus, \"It's not the good stage.\") */\n      tag_106\n      jumpi\n      mload(0x40)\n      0x08c379a000000000000000000000000000000000000000000000000000000000\n      dup2\n      mstore\n      0x04\n      add\n      tag_107\n      swap1\n      tag_65\n      jump\t// in\n    tag_107:\n      mload(0x40)\n      dup1\n      swap2\n      sub\n      swap1\n      revert\n    tag_106:\n        /* \"contracts/Voting.sol\":3309:3342  WorkflowStatus.VotingSessionEnded */\n      0x04\n        /* \"contracts/Voting.sol\":3292:3306  workflowStatus */\n      0x06\n      0x00\n        /* \"contracts/Voting.sol\":3292:3342  workflowStatus = WorkflowStatus.VotingSessionEnded */\n      0x0100\n      exp\n      dup2\n      sload\n      dup2\n      0xff\n      mul\n      not\n      and\n      swap1\n      dup4\n      0x05\n      dup2\n      gt\n      iszero\n      tag_109\n      jumpi\n      tag_110\n      tag_60\n      jump\t// in\n    tag_110:\n    tag_109:\n      mul\n      or\n      swap1\n      sstore\n      pop\n        /* \"contracts/Voting.sol\":3358:3431  WorkflowStatusChange(WorkflowStatus.VotingSessionStarted, workflowStatus) */\n      0x0a97a4ee45751e2abf3e4fc8946939630b11b371ea8ae39ccdc3056e98f5cc3f\n        /* \"contracts/Voting.sol\":3379:3414  WorkflowStatus.VotingSessionStarted */\n      0x03\n        /* \"contracts/Voting.sol\":3416:3430  workflowStatus */\n      0x06\n      0x00\n      swap1\n      sload\n      swap1\n      0x0100\n      exp\n      swap1\n      div\n      0xff\n      and\n        /* \"contracts/Voting.sol\":3358:3431  WorkflowStatusChange(WorkflowStatus.VotingSessionStarted, workflowStatus) */\n      mload(0x40)\n      tag_111\n      swap3\n      swap2\n      swap1\n      tag_98\n      jump\t// in\n    tag_111:\n      mload(0x40)\n      dup1\n      swap2\n      sub\n      swap1\n      log1\n        /* \"@openzeppelin/contracts/access/Ownable.sol\":1554:1555  _ */\n      pop\n        /* \"contracts/Voting.sol\":3183:3439  function stopVotingSession() external onlyOwner verifyStatus(WorkflowStatus.VotingSessionStarted) {... */\n      jump\t// out\n        /* \"contracts/Voting.sol\":2489:2896  function submitProposal(string memory _proposal) external verifyStatus(WorkflowStatus.ProposalsRegistrationStarted) {... */\n    tag_29:\n        /* \"contracts/Voting.sol\":2560:2603  WorkflowStatus.ProposalsRegistrationStarted */\n      0x01\n        /* \"contracts/Voting.sol\":1352:1367  _workflowStatus */\n      dup1\n        /* \"contracts/Voting.sol\":1334:1367  workflowStatus == _workflowStatus */\n      0x05\n      dup2\n      gt\n      iszero\n      tag_113\n      jumpi\n      tag_114\n      tag_60\n      jump\t// in\n    tag_114:\n    tag_113:\n        /* \"contracts/Voting.sol\":1334:1348  workflowStatus */\n      0x06\n      0x00\n      swap1\n      sload\n      swap1\n      0x0100\n      exp\n      swap1\n      div\n      0xff\n      and\n        /* \"contracts/Voting.sol\":1334:1367  workflowStatus == _workflowStatus */\n      0x05\n      dup2\n      gt\n      iszero\n      tag_115\n      jumpi\n      tag_116\n      tag_60\n      jump\t// in\n    tag_116:\n    tag_115:\n      eq\n        /* \"contracts/Voting.sol\":1326:1396  require(workflowStatus == _workflowStatus, \"It's not the good stage.\") */\n      tag_117\n      jumpi\n      mload(0x40)\n      0x08c379a000000000000000000000000000000000000000000000000000000000\n      dup2\n      mstore\n      0x04\n      add\n      tag_118\n      swap1\n      tag_65\n      jump\t// in\n    tag_118:\n      mload(0x40)\n      dup1\n      swap2\n      sub\n      swap1\n      revert\n    tag_117:\n        /* \"contracts/Voting.sol\":2624:2630  voters */\n      0x01\n        /* \"contracts/Voting.sol\":2624:2642  voters[msg.sender] */\n      0x00\n        /* \"contracts/Voting.sol\":2631:2641  msg.sender */\n      caller\n        /* \"contracts/Voting.sol\":2624:2642  voters[msg.sender] */\n      0xffffffffffffffffffffffffffffffffffffffff\n      and\n      0xffffffffffffffffffffffffffffffffffffffff\n      and\n      dup2\n      mstore\n      0x20\n      add\n      swap1\n      dup2\n      mstore\n      0x20\n      add\n      0x00\n      keccak256\n        /* \"contracts/Voting.sol\":2624:2655  voters[msg.sender].isRegistered */\n      0x00\n      add\n      0x00\n      swap1\n      sload\n      swap1\n      0x0100\n      exp\n      swap1\n      div\n      0xff\n      and\n        /* \"contracts/Voting.sol\":2616:2688  require(voters[msg.sender].isRegistered, \"The voter is not registered!\") */\n      tag_120\n      jumpi\n      mload(0x40)\n      0x08c379a000000000000000000000000000000000000000000000000000000000\n      dup2\n      mstore\n      0x04\n      add\n      tag_121\n      swap1\n      tag_69\n      jump\t// in\n    tag_121:\n      mload(0x40)\n      dup1\n      swap2\n      sub\n      swap1\n      revert\n    tag_120:\n        /* \"contracts/Voting.sol\":2699:2723  Proposal memory proposal */\n      tag_122\n      tag_123\n      jump\t// in\n    tag_122:\n        /* \"contracts/Voting.sol\":2757:2766  _proposal */\n      dup3\n        /* \"contracts/Voting.sol\":2734:2742  proposal */\n      dup2\n        /* \"contracts/Voting.sol\":2734:2754  proposal.description */\n      0x00\n      add\n        /* \"contracts/Voting.sol\":2734:2766  proposal.description = _proposal */\n      dup2\n      swap1\n      mstore\n      pop\n        /* \"contracts/Voting.sol\":2798:2799  0 */\n      0x00\n        /* \"contracts/Voting.sol\":2777:2785  proposal */\n      dup2\n        /* \"contracts/Voting.sol\":2777:2795  proposal.voteCount */\n      0x20\n      add\n        /* \"contracts/Voting.sol\":2777:2799  proposal.voteCount = 0 */\n      dup2\n      dup2\n      mstore\n      pop\n      pop\n        /* \"contracts/Voting.sol\":2810:2819  proposals */\n      0x03\n        /* \"contracts/Voting.sol\":2825:2833  proposal */\n      dup2\n        /* \"contracts/Voting.sol\":2810:2834  proposals.push(proposal) */\n      swap1\n      dup1\n      0x01\n      dup2\n      sload\n      add\n      dup1\n      dup3\n      sstore\n      dup1\n      swap2\n      pop\n      pop\n      0x01\n      swap1\n      sub\n      swap1\n      0x00\n      mstore\n      keccak256(0x00, 0x20)\n      swap1\n      0x02\n      mul\n      add\n      0x00\n      swap1\n      swap2\n      swap1\n      swap2\n      swap1\n      swap2\n      pop\n      0x00\n      dup3\n      add\n      mload\n      dup2\n      0x00\n      add\n      swap1\n      dup2\n      tag_125\n      swap2\n      swap1\n      tag_126\n      jump\t// in\n    tag_125:\n      pop\n      0x20\n      dup3\n      add\n      mload\n      dup2\n      0x01\n      add\n      sstore\n      pop\n      pop\n        /* \"contracts/Voting.sol\":2850:2888  ProposalRegistered(proposals.length-1) */\n      0x92e393e9b54e2f801d3ea4beb0c5e71a21cc34a5d34b77d0fb8a3aa1650dc18f\n        /* \"contracts/Voting.sol\":2886:2887  1 */\n      0x01\n        /* \"contracts/Voting.sol\":2869:2878  proposals */\n      0x03\n        /* \"contracts/Voting.sol\":2869:2885  proposals.length */\n      dup1\n      sload\n      swap1\n      pop\n        /* \"contracts/Voting.sol\":2869:2887  proposals.length-1 */\n      tag_127\n      swap2\n      swap1\n      tag_128\n      jump\t// in\n    tag_127:\n        /* \"contracts/Voting.sol\":2850:2888  ProposalRegistered(proposals.length-1) */\n      mload(0x40)\n      tag_129\n      swap2\n      swap1\n      tag_51\n      jump\t// in\n    tag_129:\n      mload(0x40)\n      dup1\n      swap2\n      sub\n      swap1\n      log1\n        /* \"contracts/Voting.sol\":2605:2896  {... */\n      pop\n        /* \"contracts/Voting.sol\":2489:2896  function submitProposal(string memory _proposal) external verifyStatus(WorkflowStatus.ProposalsRegistrationStarted) {... */\n      pop\n      pop\n      jump\t// out\n        /* \"contracts/Voting.sol\":1534:1896  function registerVoter(address _voterAddress) external onlyOwner verifyStatus(WorkflowStatus.RegisteringVoters) {... */\n    tag_33:\n        /* \"@openzeppelin/contracts/access/Ownable.sol\":1531:1544  _checkOwner() */\n      tag_131\n        /* \"@openzeppelin/contracts/access/Ownable.sol\":1531:1542  _checkOwner */\n      tag_86\n        /* \"@openzeppelin/contracts/access/Ownable.sol\":1531:1544  _checkOwner() */\n      jump\t// in\n    tag_131:\n        /* \"contracts/Voting.sol\":1612:1644  WorkflowStatus.RegisteringVoters */\n      0x00\n        /* \"contracts/Voting.sol\":1352:1367  _workflowStatus */\n      dup1\n        /* \"contracts/Voting.sol\":1334:1367  workflowStatus == _workflowStatus */\n      0x05\n      dup2\n      gt\n      iszero\n      tag_133\n      jumpi\n      tag_134\n      tag_60\n      jump\t// in\n    tag_134:\n    tag_133:\n        /* \"contracts/Voting.sol\":1334:1348  workflowStatus */\n      0x06\n      0x00\n      swap1\n      sload\n      swap1\n      0x0100\n      exp\n      swap1\n      div\n      0xff\n      and\n        /* \"contracts/Voting.sol\":1334:1367  workflowStatus == _workflowStatus */\n      0x05\n      dup2\n      gt\n      iszero\n      tag_135\n      jumpi\n      tag_136\n      tag_60\n      jump\t// in\n    tag_136:\n    tag_135:\n      eq\n        /* \"contracts/Voting.sol\":1326:1396  require(workflowStatus == _workflowStatus, \"It's not the good stage.\") */\n      tag_137\n      jumpi\n      mload(0x40)\n      0x08c379a000000000000000000000000000000000000000000000000000000000\n      dup2\n      mstore\n      0x04\n      add\n      tag_138\n      swap1\n      tag_65\n      jump\t// in\n    tag_138:\n      mload(0x40)\n      dup1\n      swap2\n      sub\n      swap1\n      revert\n    tag_137:\n        /* \"contracts/Voting.sol\":1703:1708  false */\n      0x00\n        /* \"contracts/Voting.sol\":1665:1708  voters[_voterAddress].isRegistered == false */\n      iszero\n      iszero\n        /* \"contracts/Voting.sol\":1665:1671  voters */\n      0x01\n        /* \"contracts/Voting.sol\":1665:1686  voters[_voterAddress] */\n      0x00\n        /* \"contracts/Voting.sol\":1672:1685  _voterAddress */\n      dup5\n        /* \"contracts/Voting.sol\":1665:1686  voters[_voterAddress] */\n      0xffffffffffffffffffffffffffffffffffffffff\n      and\n      0xffffffffffffffffffffffffffffffffffffffff\n      and\n      dup2\n      mstore\n      0x20\n      add\n      swap1\n      dup2\n      mstore\n      0x20\n      add\n      0x00\n      keccak256\n        /* \"contracts/Voting.sol\":1665:1699  voters[_voterAddress].isRegistered */\n      0x00\n      add\n      0x00\n      swap1\n      sload\n      swap1\n      0x0100\n      exp\n      swap1\n      div\n      0xff\n      and\n        /* \"contracts/Voting.sol\":1665:1708  voters[_voterAddress].isRegistered == false */\n      iszero\n      iszero\n      eq\n        /* \"contracts/Voting.sol\":1657:1745  require(voters[_voterAddress].isRegistered == false, \"The voter is already registered!\") */\n      tag_140\n      jumpi\n      mload(0x40)\n      0x08c379a000000000000000000000000000000000000000000000000000000000\n      dup2\n      mstore\n      0x04\n      add\n      tag_141\n      swap1\n      tag_142\n      jump\t// in\n    tag_141:\n      mload(0x40)\n      dup1\n      swap2\n      sub\n      swap1\n      revert\n    tag_140:\n        /* \"contracts/Voting.sol\":1793:1797  true */\n      0x01\n        /* \"contracts/Voting.sol\":1756:1762  voters */\n      dup1\n        /* \"contracts/Voting.sol\":1756:1777  voters[_voterAddress] */\n      0x00\n        /* \"contracts/Voting.sol\":1763:1776  _voterAddress */\n      dup5\n        /* \"contracts/Voting.sol\":1756:1777  voters[_voterAddress] */\n      0xffffffffffffffffffffffffffffffffffffffff\n      and\n      0xffffffffffffffffffffffffffffffffffffffff\n      and\n      dup2\n      mstore\n      0x20\n      add\n      swap1\n      dup2\n      mstore\n      0x20\n      add\n      0x00\n      keccak256\n        /* \"contracts/Voting.sol\":1756:1790  voters[_voterAddress].isRegistered */\n      0x00\n      add\n      0x00\n        /* \"contracts/Voting.sol\":1756:1797  voters[_voterAddress].isRegistered = true */\n      0x0100\n      exp\n      dup2\n      sload\n      dup2\n      0xff\n      mul\n      not\n      and\n      swap1\n      dup4\n      iszero\n      iszero\n      mul\n      or\n      swap1\n      sstore\n      pop\n        /* \"contracts/Voting.sol\":1808:1822  voterAddresses */\n      0x02\n        /* \"contracts/Voting.sol\":1828:1841  _voterAddress */\n      dup3\n        /* \"contracts/Voting.sol\":1808:1842  voterAddresses.push(_voterAddress) */\n      swap1\n      dup1\n      0x01\n      dup2\n      sload\n      add\n      dup1\n      dup3\n      sstore\n      dup1\n      swap2\n      pop\n      pop\n      0x01\n      swap1\n      sub\n      swap1\n      0x00\n      mstore\n      keccak256(0x00, 0x20)\n      add\n      0x00\n      swap1\n      swap2\n      swap1\n      swap2\n      swap1\n      swap2\n      0x0100\n      exp\n      dup2\n      sload\n      dup2\n      0xffffffffffffffffffffffffffffffffffffffff\n      mul\n      not\n      and\n      swap1\n      dup4\n      0xffffffffffffffffffffffffffffffffffffffff\n      and\n      mul\n      or\n      swap1\n      sstore\n      pop\n        /* \"contracts/Voting.sol\":1858:1888  VoterRegistered(_voterAddress) */\n      0xb6be2187d059cc2a55fe29e0e503b566e1e0f8c8780096e185429350acffd3dd\n        /* \"contracts/Voting.sol\":1874:1887  _voterAddress */\n      dup3\n        /* \"contracts/Voting.sol\":1858:1888  VoterRegistered(_voterAddress) */\n      mload(0x40)\n      tag_144\n      swap2\n      swap1\n      tag_39\n      jump\t// in\n    tag_144:\n      mload(0x40)\n      dup1\n      swap2\n      sub\n      swap1\n      log1\n        /* \"@openzeppelin/contracts/access/Ownable.sol\":1554:1555  _ */\n      pop\n        /* \"contracts/Voting.sol\":1534:1896  function registerVoter(address _voterAddress) external onlyOwner verifyStatus(WorkflowStatus.RegisteringVoters) {... */\n      pop\n      jump\t// out\n        /* \"@openzeppelin/contracts/access/Ownable.sol\":2293:2394  function renounceOwnership() public virtual onlyOwner {... */\n    tag_35:\n        /* \"@openzeppelin/contracts/access/Ownable.sol\":1531:1544  _checkOwner() */\n      tag_146\n        /* \"@openzeppelin/contracts/access/Ownable.sol\":1531:1542  _checkOwner */\n      tag_86\n        /* \"@openzeppelin/contracts/access/Ownable.sol\":1531:1544  _checkOwner() */\n      jump\t// in\n    tag_146:\n        /* \"@openzeppelin/contracts/access/Ownable.sol\":2357:2387  _transferOwnership(address(0)) */\n      tag_148\n        /* \"@openzeppelin/contracts/access/Ownable.sol\":2384:2385  0 */\n      0x00\n        /* \"@openzeppelin/contracts/access/Ownable.sol\":2357:2375  _transferOwnership */\n      tag_149\n        /* \"@openzeppelin/contracts/access/Ownable.sol\":2357:2387  _transferOwnership(address(0)) */\n      jump\t// in\n    tag_148:\n        /* \"@openzeppelin/contracts/access/Ownable.sol\":2293:2394  function renounceOwnership() public virtual onlyOwner {... */\n      jump\t// out\n        /* \"@openzeppelin/contracts/access/Ownable.sol\":1638:1723  function owner() public view virtual returns (address) {... */\n    tag_37:\n        /* \"@openzeppelin/contracts/access/Ownable.sol\":1684:1691  address */\n      0x00\n        /* \"@openzeppelin/contracts/access/Ownable.sol\":1710:1716  _owner */\n      dup1\n      0x00\n      swap1\n      sload\n      swap1\n      0x0100\n      exp\n      swap1\n      div\n      0xffffffffffffffffffffffffffffffffffffffff\n      and\n        /* \"@openzeppelin/contracts/access/Ownable.sol\":1703:1716  return _owner */\n      swap1\n      pop\n        /* \"@openzeppelin/contracts/access/Ownable.sol\":1638:1723  function owner() public view virtual returns (address) {... */\n      swap1\n      jump\t// out\n        /* \"contracts/Voting.sol\":1904:2179  function startProposalRegistrationSession() external onlyOwner verifyStatus(WorkflowStatus.RegisteringVoters) {... */\n    tag_41:\n        /* \"@openzeppelin/contracts/access/Ownable.sol\":1531:1544  _checkOwner() */\n      tag_152\n        /* \"@openzeppelin/contracts/access/Ownable.sol\":1531:1542  _checkOwner */\n      tag_86\n        /* \"@openzeppelin/contracts/access/Ownable.sol\":1531:1544  _checkOwner() */\n      jump\t// in\n    tag_152:\n        /* \"contracts/Voting.sol\":1980:2012  WorkflowStatus.RegisteringVoters */\n      0x00\n        /* \"contracts/Voting.sol\":1352:1367  _workflowStatus */\n      dup1\n        /* \"contracts/Voting.sol\":1334:1367  workflowStatus == _workflowStatus */\n      0x05\n      dup2\n      gt\n      iszero\n      tag_154\n      jumpi\n      tag_155\n      tag_60\n      jump\t// in\n    tag_155:\n    tag_154:\n        /* \"contracts/Voting.sol\":1334:1348  workflowStatus */\n      0x06\n      0x00\n      swap1\n      sload\n      swap1\n      0x0100\n      exp\n      swap1\n      div\n      0xff\n      and\n        /* \"contracts/Voting.sol\":1334:1367  workflowStatus == _workflowStatus */\n      0x05\n      dup2\n      gt\n      iszero\n      tag_156\n      jumpi\n      tag_157\n      tag_60\n      jump\t// in\n    tag_157:\n    tag_156:\n      eq\n        /* \"contracts/Voting.sol\":1326:1396  require(workflowStatus == _workflowStatus, \"It's not the good stage.\") */\n      tag_158\n      jumpi\n      mload(0x40)\n      0x08c379a000000000000000000000000000000000000000000000000000000000\n      dup2\n      mstore\n      0x04\n      add\n      tag_159\n      swap1\n      tag_65\n      jump\t// in\n    tag_159:\n      mload(0x40)\n      dup1\n      swap2\n      sub\n      swap1\n      revert\n    tag_158:\n        /* \"contracts/Voting.sol\":2042:2085  WorkflowStatus.ProposalsRegistrationStarted */\n      0x01\n        /* \"contracts/Voting.sol\":2025:2039  workflowStatus */\n      0x06\n      0x00\n        /* \"contracts/Voting.sol\":2025:2085  workflowStatus = WorkflowStatus.ProposalsRegistrationStarted */\n      0x0100\n      exp\n      dup2\n      sload\n      dup2\n      0xff\n      mul\n      not\n      and\n      swap1\n      dup4\n      0x05\n      dup2\n      gt\n      iszero\n      tag_161\n      jumpi\n      tag_162\n      tag_60\n      jump\t// in\n    tag_162:\n    tag_161:\n      mul\n      or\n      swap1\n      sstore\n      pop\n        /* \"contracts/Voting.sol\":2101:2171  WorkflowStatusChange(WorkflowStatus.RegisteringVoters, workflowStatus) */\n      0x0a97a4ee45751e2abf3e4fc8946939630b11b371ea8ae39ccdc3056e98f5cc3f\n        /* \"contracts/Voting.sol\":2122:2154  WorkflowStatus.RegisteringVoters */\n      0x00\n        /* \"contracts/Voting.sol\":2156:2170  workflowStatus */\n      0x06\n      0x00\n      swap1\n      sload\n      swap1\n      0x0100\n      exp\n      swap1\n      div\n      0xff\n      and\n        /* \"contracts/Voting.sol\":2101:2171  WorkflowStatusChange(WorkflowStatus.RegisteringVoters, workflowStatus) */\n      mload(0x40)\n      tag_163\n      swap3\n      swap2\n      swap1\n      tag_98\n      jump\t// in\n    tag_163:\n      mload(0x40)\n      dup1\n      swap2\n      sub\n      swap1\n      log1\n        /* \"@openzeppelin/contracts/access/Ownable.sol\":1554:1555  _ */\n      pop\n        /* \"contracts/Voting.sol\":1904:2179  function startProposalRegistrationSession() external onlyOwner verifyStatus(WorkflowStatus.RegisteringVoters) {... */\n      jump\t// out\n        /* \"contracts/Voting.sol\":4360:5737  function countVotes() external onlyOwner verifyStatus(WorkflowStatus.VotingSessionEnded) {... */\n    tag_43:\n        /* \"@openzeppelin/contracts/access/Ownable.sol\":1531:1544  _checkOwner() */\n      tag_165\n        /* \"@openzeppelin/contracts/access/Ownable.sol\":1531:1542  _checkOwner */\n      tag_86\n        /* \"@openzeppelin/contracts/access/Ownable.sol\":1531:1544  _checkOwner() */\n      jump\t// in\n    tag_165:\n        /* \"contracts/Voting.sol\":4414:4447  WorkflowStatus.VotingSessionEnded */\n      0x04\n        /* \"contracts/Voting.sol\":1352:1367  _workflowStatus */\n      dup1\n        /* \"contracts/Voting.sol\":1334:1367  workflowStatus == _workflowStatus */\n      0x05\n      dup2\n      gt\n      iszero\n      tag_167\n      jumpi\n      tag_168\n      tag_60\n      jump\t// in\n    tag_168:\n    tag_167:\n        /* \"contracts/Voting.sol\":1334:1348  workflowStatus */\n      0x06\n      0x00\n      swap1\n      sload\n      swap1\n      0x0100\n      exp\n      swap1\n      div\n      0xff\n      and\n        /* \"contracts/Voting.sol\":1334:1367  workflowStatus == _workflowStatus */\n      0x05\n      dup2\n      gt\n      iszero\n      tag_169\n      jumpi\n      tag_170\n      tag_60\n      jump\t// in\n    tag_170:\n    tag_169:\n      eq\n        /* \"contracts/Voting.sol\":1326:1396  require(workflowStatus == _workflowStatus, \"It's not the good stage.\") */\n      tag_171\n      jumpi\n      mload(0x40)\n      0x08c379a000000000000000000000000000000000000000000000000000000000\n      dup2\n      mstore\n      0x04\n      add\n      tag_172\n      swap1\n      tag_65\n      jump\t// in\n    tag_172:\n      mload(0x40)\n      dup1\n      swap2\n      sub\n      swap1\n      revert\n    tag_171:\n        /* \"contracts/Voting.sol\":4470:4487  uint maxVoteCount */\n      0x00\n        /* \"contracts/Voting.sol\":4502:4522  uint idxMaxVoteCount */\n      dup1\n        /* \"contracts/Voting.sol\":4542:4558  uint proposalIdx */\n      0x00\n        /* \"contracts/Voting.sol\":4537:4820  for (uint proposalIdx = 0; proposalIdx < proposals.length; proposalIdx++) {... */\n    tag_174:\n        /* \"contracts/Voting.sol\":4578:4587  proposals */\n      0x03\n        /* \"contracts/Voting.sol\":4578:4594  proposals.length */\n      dup1\n      sload\n      swap1\n      pop\n        /* \"contracts/Voting.sol\":4564:4575  proposalIdx */\n      dup2\n        /* \"contracts/Voting.sol\":4564:4594  proposalIdx < proposals.length */\n      lt\n        /* \"contracts/Voting.sol\":4537:4820  for (uint proposalIdx = 0; proposalIdx < proposals.length; proposalIdx++) {... */\n      iszero\n      tag_175\n      jumpi\n        /* \"contracts/Voting.sol\":4665:4677  maxVoteCount */\n      dup3\n        /* \"contracts/Voting.sol\":4630:4639  proposals */\n      0x03\n        /* \"contracts/Voting.sol\":4640:4651  proposalIdx */\n      dup3\n        /* \"contracts/Voting.sol\":4630:4652  proposals[proposalIdx] */\n      dup2\n      sload\n      dup2\n      lt\n      tag_177\n      jumpi\n      tag_178\n      tag_78\n      jump\t// in\n    tag_178:\n    tag_177:\n      swap1\n      0x00\n      mstore\n      keccak256(0x00, 0x20)\n      swap1\n      0x02\n      mul\n      add\n        /* \"contracts/Voting.sol\":4630:4662  proposals[proposalIdx].voteCount */\n      0x01\n      add\n      sload\n        /* \"contracts/Voting.sol\":4630:4677  proposals[proposalIdx].voteCount > maxVoteCount */\n      gt\n        /* \"contracts/Voting.sol\":4626:4809  if (proposals[proposalIdx].voteCount > maxVoteCount) {... */\n      iszero\n      tag_180\n      jumpi\n        /* \"contracts/Voting.sol\":4713:4722  proposals */\n      0x03\n        /* \"contracts/Voting.sol\":4723:4734  proposalIdx */\n      dup2\n        /* \"contracts/Voting.sol\":4713:4735  proposals[proposalIdx] */\n      dup2\n      sload\n      dup2\n      lt\n      tag_181\n      jumpi\n      tag_182\n      tag_78\n      jump\t// in\n    tag_182:\n    tag_181:\n      swap1\n      0x00\n      mstore\n      keccak256(0x00, 0x20)\n      swap1\n      0x02\n      mul\n      add\n        /* \"contracts/Voting.sol\":4713:4745  proposals[proposalIdx].voteCount */\n      0x01\n      add\n      sload\n        /* \"contracts/Voting.sol\":4698:4745  maxVoteCount = proposals[proposalIdx].voteCount */\n      swap3\n      pop\n        /* \"contracts/Voting.sol\":4782:4793  proposalIdx */\n      dup1\n        /* \"contracts/Voting.sol\":4764:4793  idxMaxVoteCount = proposalIdx */\n      swap2\n      pop\n        /* \"contracts/Voting.sol\":4626:4809  if (proposals[proposalIdx].voteCount > maxVoteCount) {... */\n    tag_180:\n        /* \"contracts/Voting.sol\":4596:4609  proposalIdx++ */\n      dup1\n      dup1\n      tag_184\n      swap1\n      tag_185\n      jump\t// in\n    tag_184:\n      swap2\n      pop\n      pop\n        /* \"contracts/Voting.sol\":4537:4820  for (uint proposalIdx = 0; proposalIdx < proposals.length; proposalIdx++) {... */\n      jump(tag_174)\n    tag_175:\n      pop\n        /* \"contracts/Voting.sol\":4839:4851  newProposals */\n      0x04\n      0x00\n        /* \"contracts/Voting.sol\":4832:4851  delete newProposals */\n      tag_186\n      swap2\n      swap1\n      tag_187\n      jump\t// in\n    tag_186:\n        /* \"contracts/Voting.sol\":4867:4883  uint proposalIdx */\n      0x00\n        /* \"contracts/Voting.sol\":4862:5092  for (uint proposalIdx = 0; proposalIdx < proposals.length; proposalIdx++) {... */\n    tag_188:\n        /* \"contracts/Voting.sol\":4903:4912  proposals */\n      0x03\n        /* \"contracts/Voting.sol\":4903:4919  proposals.length */\n      dup1\n      sload\n      swap1\n      pop\n        /* \"contracts/Voting.sol\":4889:4900  proposalIdx */\n      dup2\n        /* \"contracts/Voting.sol\":4889:4919  proposalIdx < proposals.length */\n      lt\n        /* \"contracts/Voting.sol\":4862:5092  for (uint proposalIdx = 0; proposalIdx < proposals.length; proposalIdx++) {... */\n      iszero\n      tag_189\n      jumpi\n        /* \"contracts/Voting.sol\":4991:5003  maxVoteCount */\n      dup3\n        /* \"contracts/Voting.sol\":4955:4964  proposals */\n      0x03\n        /* \"contracts/Voting.sol\":4965:4976  proposalIdx */\n      dup3\n        /* \"contracts/Voting.sol\":4955:4977  proposals[proposalIdx] */\n      dup2\n      sload\n      dup2\n      lt\n      tag_191\n      jumpi\n      tag_192\n      tag_78\n      jump\t// in\n    tag_192:\n    tag_191:\n      swap1\n      0x00\n      mstore\n      keccak256(0x00, 0x20)\n      swap1\n      0x02\n      mul\n      add\n        /* \"contracts/Voting.sol\":4955:4987  proposals[proposalIdx].voteCount */\n      0x01\n      add\n      sload\n        /* \"contracts/Voting.sol\":4955:5003  proposals[proposalIdx].voteCount == maxVoteCount */\n      sub\n        /* \"contracts/Voting.sol\":4951:5081  if (proposals[proposalIdx].voteCount == maxVoteCount) {... */\n      tag_194\n      jumpi\n        /* \"contracts/Voting.sol\":5024:5036  newProposals */\n      0x04\n        /* \"contracts/Voting.sol\":5042:5051  proposals */\n      0x03\n        /* \"contracts/Voting.sol\":5052:5063  proposalIdx */\n      dup3\n        /* \"contracts/Voting.sol\":5042:5064  proposals[proposalIdx] */\n      dup2\n      sload\n      dup2\n      lt\n      tag_195\n      jumpi\n      tag_196\n      tag_78\n      jump\t// in\n    tag_196:\n    tag_195:\n      swap1\n      0x00\n      mstore\n      keccak256(0x00, 0x20)\n      swap1\n      0x02\n      mul\n      add\n        /* \"contracts/Voting.sol\":5024:5065  newProposals.push(proposals[proposalIdx]) */\n      swap1\n      dup1\n      0x01\n      dup2\n      sload\n      add\n      dup1\n      dup3\n      sstore\n      dup1\n      swap2\n      pop\n      pop\n      0x01\n      swap1\n      sub\n      swap1\n      0x00\n      mstore\n      keccak256(0x00, 0x20)\n      swap1\n      0x02\n      mul\n      add\n      0x00\n      swap1\n      swap2\n      swap1\n      swap2\n      swap1\n      swap2\n      pop\n      0x00\n      dup3\n      add\n      dup2\n      0x00\n      add\n      swap1\n      dup2\n      tag_199\n      swap2\n      swap1\n      tag_200\n      jump\t// in\n    tag_199:\n      pop\n      0x01\n      dup3\n      add\n      sload\n      dup2\n      0x01\n      add\n      sstore\n      pop\n      pop\n        /* \"contracts/Voting.sol\":4951:5081  if (proposals[proposalIdx].voteCount == maxVoteCount) {... */\n    tag_194:\n        /* \"contracts/Voting.sol\":4921:4934  proposalIdx++ */\n      dup1\n      dup1\n      tag_201\n      swap1\n      tag_185\n      jump\t// in\n    tag_201:\n      swap2\n      pop\n      pop\n        /* \"contracts/Voting.sol\":4862:5092  for (uint proposalIdx = 0; proposalIdx < proposals.length; proposalIdx++) {... */\n      jump(tag_188)\n    tag_189:\n      pop\n        /* \"contracts/Voting.sol\":5129:5130  1 */\n      0x01\n        /* \"contracts/Voting.sol\":5107:5119  newProposals */\n      0x04\n        /* \"contracts/Voting.sol\":5107:5126  newProposals.length */\n      dup1\n      sload\n      swap1\n      pop\n        /* \"contracts/Voting.sol\":5107:5130  newProposals.length > 1 */\n      gt\n        /* \"contracts/Voting.sol\":5104:5730  if(newProposals.length > 1) {... */\n      iszero\n      tag_202\n      jumpi\n        /* \"contracts/Voting.sol\":5154:5163  proposals */\n      0x03\n      0x00\n        /* \"contracts/Voting.sol\":5147:5163  delete proposals */\n      tag_203\n      swap2\n      swap1\n      tag_187\n      jump\t// in\n    tag_203:\n        /* \"contracts/Voting.sol\":5190:5202  newProposals */\n      0x04\n        /* \"contracts/Voting.sol\":5178:5187  proposals */\n      0x03\n        /* \"contracts/Voting.sol\":5178:5202  proposals = newProposals */\n      swap1\n      dup1\n      sload\n      tag_204\n      swap3\n      swap2\n      swap1\n      tag_205\n      jump\t// in\n    tag_204:\n      pop\n        /* \"contracts/Voting.sol\":5222:5228  uint i */\n      0x00\n        /* \"contracts/Voting.sol\":5217:5343  for (uint i = 0; i < voterAddresses.length; i++) {... */\n    tag_206:\n        /* \"contracts/Voting.sol\":5238:5252  voterAddresses */\n      0x02\n        /* \"contracts/Voting.sol\":5238:5259  voterAddresses.length */\n      dup1\n      sload\n      swap1\n      pop\n        /* \"contracts/Voting.sol\":5234:5235  i */\n      dup2\n        /* \"contracts/Voting.sol\":5234:5259  i < voterAddresses.length */\n      lt\n        /* \"contracts/Voting.sol\":5217:5343  for (uint i = 0; i < voterAddresses.length; i++) {... */\n      iszero\n      tag_207\n      jumpi\n        /* \"contracts/Voting.sol\":5322:5327  false */\n      0x00\n        /* \"contracts/Voting.sol\":5285:5291  voters */\n      0x01\n        /* \"contracts/Voting.sol\":5285:5310  voters[voterAddresses[i]] */\n      0x00\n        /* \"contracts/Voting.sol\":5292:5306  voterAddresses */\n      0x02\n        /* \"contracts/Voting.sol\":5307:5308  i */\n      dup5\n        /* \"contracts/Voting.sol\":5292:5309  voterAddresses[i] */\n      dup2\n      sload\n      dup2\n      lt\n      tag_209\n      jumpi\n      tag_210\n      tag_78\n      jump\t// in\n    tag_210:\n    tag_209:\n      swap1\n      0x00\n      mstore\n      keccak256(0x00, 0x20)\n      add\n      0x00\n      swap1\n      sload\n      swap1\n      0x0100\n      exp\n      swap1\n      div\n      0xffffffffffffffffffffffffffffffffffffffff\n      and\n        /* \"contracts/Voting.sol\":5285:5310  voters[voterAddresses[i]] */\n      0xffffffffffffffffffffffffffffffffffffffff\n      and\n      0xffffffffffffffffffffffffffffffffffffffff\n      and\n      dup2\n      mstore\n      0x20\n      add\n      swap1\n      dup2\n      mstore\n      0x20\n      add\n      0x00\n      keccak256\n        /* \"contracts/Voting.sol\":5285:5319  voters[voterAddresses[i]].hasVoted */\n      0x00\n      add\n      0x01\n        /* \"contracts/Voting.sol\":5285:5327  voters[voterAddresses[i]].hasVoted = false */\n      0x0100\n      exp\n      dup2\n      sload\n      dup2\n      0xff\n      mul\n      not\n      and\n      swap1\n      dup4\n      iszero\n      iszero\n      mul\n      or\n      swap1\n      sstore\n      pop\n        /* \"contracts/Voting.sol\":5261:5264  i++ */\n      dup1\n      dup1\n      tag_212\n      swap1\n      tag_185\n      jump\t// in\n    tag_212:\n      swap2\n      pop\n      pop\n        /* \"contracts/Voting.sol\":5217:5343  for (uint i = 0; i < voterAddresses.length; i++) {... */\n      jump(tag_206)\n    tag_207:\n      pop\n        /* \"contracts/Voting.sol\":5374:5409  WorkflowStatus.VotingSessionStarted */\n      0x03\n        /* \"contracts/Voting.sol\":5357:5371  workflowStatus */\n      0x06\n      0x00\n        /* \"contracts/Voting.sol\":5357:5409  workflowStatus = WorkflowStatus.VotingSessionStarted */\n      0x0100\n      exp\n      dup2\n      sload\n      dup2\n      0xff\n      mul\n      not\n      and\n      swap1\n      dup4\n      0x05\n      dup2\n      gt\n      iszero\n      tag_213\n      jumpi\n      tag_214\n      tag_60\n      jump\t// in\n    tag_214:\n    tag_213:\n      mul\n      or\n      swap1\n      sstore\n      pop\n        /* \"contracts/Voting.sol\":5429:5500  WorkflowStatusChange(WorkflowStatus.VotingSessionEnded, workflowStatus) */\n      0x0a97a4ee45751e2abf3e4fc8946939630b11b371ea8ae39ccdc3056e98f5cc3f\n        /* \"contracts/Voting.sol\":5450:5483  WorkflowStatus.VotingSessionEnded */\n      0x04\n        /* \"contracts/Voting.sol\":5485:5499  workflowStatus */\n      0x06\n      0x00\n      swap1\n      sload\n      swap1\n      0x0100\n      exp\n      swap1\n      div\n      0xff\n      and\n        /* \"contracts/Voting.sol\":5429:5500  WorkflowStatusChange(WorkflowStatus.VotingSessionEnded, workflowStatus) */\n      mload(0x40)\n      tag_215\n      swap3\n      swap2\n      swap1\n      tag_98\n      jump\t// in\n    tag_215:\n      mload(0x40)\n      dup1\n      swap2\n      sub\n      swap1\n      log1\n        /* \"contracts/Voting.sol\":5104:5730  if(newProposals.length > 1) {... */\n      jump(tag_216)\n    tag_202:\n        /* \"contracts/Voting.sol\":5553:5568  idxMaxVoteCount */\n      dup1\n        /* \"contracts/Voting.sol\":5533:5550  winningProposalId */\n      0x05\n        /* \"contracts/Voting.sol\":5533:5568  winningProposalId = idxMaxVoteCount */\n      dup2\n      swap1\n      sstore\n      pop\n        /* \"contracts/Voting.sol\":5600:5627  WorkflowStatus.VotesTallied */\n      0x05\n        /* \"contracts/Voting.sol\":5583:5597  workflowStatus */\n      0x06\n      0x00\n        /* \"contracts/Voting.sol\":5583:5627  workflowStatus = WorkflowStatus.VotesTallied */\n      0x0100\n      exp\n      dup2\n      sload\n      dup2\n      0xff\n      mul\n      not\n      and\n      swap1\n      dup4\n      0x05\n      dup2\n      gt\n      iszero\n      tag_217\n      jumpi\n      tag_218\n      tag_60\n      jump\t// in\n    tag_218:\n    tag_217:\n      mul\n      or\n      swap1\n      sstore\n      pop\n        /* \"contracts/Voting.sol\":5647:5718  WorkflowStatusChange(WorkflowStatus.VotingSessionEnded, workflowStatus) */\n      0x0a97a4ee45751e2abf3e4fc8946939630b11b371ea8ae39ccdc3056e98f5cc3f\n        /* \"contracts/Voting.sol\":5668:5701  WorkflowStatus.VotingSessionEnded */\n      0x04\n        /* \"contracts/Voting.sol\":5703:5717  workflowStatus */\n      0x06\n      0x00\n      swap1\n      sload\n      swap1\n      0x0100\n      exp\n      swap1\n      div\n      0xff\n      and\n        /* \"contracts/Voting.sol\":5647:5718  WorkflowStatusChange(WorkflowStatus.VotingSessionEnded, workflowStatus) */\n      mload(0x40)\n      tag_219\n      swap3\n      swap2\n      swap1\n      tag_98\n      jump\t// in\n    tag_219:\n      mload(0x40)\n      dup1\n      swap2\n      sub\n      swap1\n      log1\n        /* \"contracts/Voting.sol\":5104:5730  if(newProposals.length > 1) {... */\n    tag_216:\n        /* \"contracts/Voting.sol\":4449:5737  {... */\n      pop\n      pop\n        /* \"@openzeppelin/contracts/access/Ownable.sol\":1554:1555  _ */\n      pop\n        /* \"contracts/Voting.sol\":4360:5737  function countVotes() external onlyOwner verifyStatus(WorkflowStatus.VotingSessionEnded) {... */\n      jump\t// out\n        /* \"contracts/Voting.sol\":3447:3797  function getAllProposals() external view verifyStatus(WorkflowStatus.VotingSessionStarted) returns (string[] memory) {... */\n    tag_45:\n        /* \"contracts/Voting.sol\":3547:3562  string[] memory */\n      0x60\n        /* \"contracts/Voting.sol\":3501:3536  WorkflowStatus.VotingSessionStarted */\n      0x03\n        /* \"contracts/Voting.sol\":1352:1367  _workflowStatus */\n      dup1\n        /* \"contracts/Voting.sol\":1334:1367  workflowStatus == _workflowStatus */\n      0x05\n      dup2\n      gt\n      iszero\n      tag_221\n      jumpi\n      tag_222\n      tag_60\n      jump\t// in\n    tag_222:\n    tag_221:\n        /* \"contracts/Voting.sol\":1334:1348  workflowStatus */\n      0x06\n      0x00\n      swap1\n      sload\n      swap1\n      0x0100\n      exp\n      swap1\n      div\n      0xff\n      and\n        /* \"contracts/Voting.sol\":1334:1367  workflowStatus == _workflowStatus */\n      0x05\n      dup2\n      gt\n      iszero\n      tag_223\n      jumpi\n      tag_224\n      tag_60\n      jump\t// in\n    tag_224:\n    tag_223:\n      eq\n        /* \"contracts/Voting.sol\":1326:1396  require(workflowStatus == _workflowStatus, \"It's not the good stage.\") */\n      tag_225\n      jumpi\n      mload(0x40)\n      0x08c379a000000000000000000000000000000000000000000000000000000000\n      dup2\n      mstore\n      0x04\n      add\n      tag_226\n      swap1\n      tag_65\n      jump\t// in\n    tag_226:\n      mload(0x40)\n      dup1\n      swap2\n      sub\n      swap1\n      revert\n    tag_225:\n        /* \"contracts/Voting.sol\":3575:3603  string[] memory allProposals */\n      0x00\n        /* \"contracts/Voting.sol\":3619:3628  proposals */\n      0x03\n        /* \"contracts/Voting.sol\":3619:3635  proposals.length */\n      dup1\n      sload\n      swap1\n      pop\n        /* \"contracts/Voting.sol\":3606:3636  new string[](proposals.length) */\n      0xffffffffffffffff\n      dup2\n      gt\n      iszero\n      tag_228\n      jumpi\n      tag_229\n      tag_230\n      jump\t// in\n    tag_229:\n    tag_228:\n      mload(0x40)\n      swap1\n      dup1\n      dup3\n      mstore\n      dup1\n      0x20\n      mul\n      0x20\n      add\n      dup3\n      add\n      0x40\n      mstore\n      dup1\n      iszero\n      tag_231\n      jumpi\n      dup2\n      0x20\n      add\n    tag_232:\n      0x60\n      dup2\n      mstore\n      0x20\n      add\n      swap1\n      0x01\n      swap1\n      sub\n      swap1\n      dup2\n      tag_232\n      jumpi\n      swap1\n      pop\n    tag_231:\n      pop\n        /* \"contracts/Voting.sol\":3575:3636  string[] memory allProposals = new string[](proposals.length) */\n      swap1\n      pop\n        /* \"contracts/Voting.sol\":3652:3658  uint i */\n      0x00\n        /* \"contracts/Voting.sol\":3647:3760  for (uint i = 0; i < proposals.length; i++) {... */\n    tag_233:\n        /* \"contracts/Voting.sol\":3668:3677  proposals */\n      0x03\n        /* \"contracts/Voting.sol\":3668:3684  proposals.length */\n      dup1\n      sload\n      swap1\n      pop\n        /* \"contracts/Voting.sol\":3664:3665  i */\n      dup2\n        /* \"contracts/Voting.sol\":3664:3684  i < proposals.length */\n      lt\n        /* \"contracts/Voting.sol\":3647:3760  for (uint i = 0; i < proposals.length; i++) {... */\n      iszero\n      tag_234\n      jumpi\n        /* \"contracts/Voting.sol\":3724:3733  proposals */\n      0x03\n        /* \"contracts/Voting.sol\":3734:3735  i */\n      dup2\n        /* \"contracts/Voting.sol\":3724:3736  proposals[i] */\n      dup2\n      sload\n      dup2\n      lt\n      tag_236\n      jumpi\n      tag_237\n      tag_78\n      jump\t// in\n    tag_237:\n    tag_236:\n      swap1\n      0x00\n      mstore\n      keccak256(0x00, 0x20)\n      swap1\n      0x02\n      mul\n      add\n        /* \"contracts/Voting.sol\":3724:3748  proposals[i].description */\n      0x00\n      add\n        /* \"contracts/Voting.sol\":3706:3748  allProposals[i] = proposals[i].description */\n      dup1\n      sload\n      tag_239\n      swap1\n      tag_240\n      jump\t// in\n    tag_239:\n      dup1\n      0x1f\n      add\n      0x20\n      dup1\n      swap2\n      div\n      mul\n      0x20\n      add\n      mload(0x40)\n      swap1\n      dup2\n      add\n      0x40\n      mstore\n      dup1\n      swap3\n      swap2\n      swap1\n      dup2\n      dup2\n      mstore\n      0x20\n      add\n      dup3\n      dup1\n      sload\n      tag_241\n      swap1\n      tag_240\n      jump\t// in\n    tag_241:\n      dup1\n      iszero\n      tag_242\n      jumpi\n      dup1\n      0x1f\n      lt\n      tag_243\n      jumpi\n      0x0100\n      dup1\n      dup4\n      sload\n      div\n      mul\n      dup4\n      mstore\n      swap2\n      0x20\n      add\n      swap2\n      jump(tag_242)\n    tag_243:\n      dup3\n      add\n      swap2\n      swap1\n      0x00\n      mstore\n      keccak256(0x00, 0x20)\n      swap1\n    tag_244:\n      dup2\n      sload\n      dup2\n      mstore\n      swap1\n      0x01\n      add\n      swap1\n      0x20\n      add\n      dup1\n      dup4\n      gt\n      tag_244\n      jumpi\n      dup3\n      swap1\n      sub\n      0x1f\n      and\n      dup3\n      add\n      swap2\n    tag_242:\n      pop\n      pop\n      pop\n      pop\n      pop\n        /* \"contracts/Voting.sol\":3706:3718  allProposals */\n      dup3\n        /* \"contracts/Voting.sol\":3719:3720  i */\n      dup3\n        /* \"contracts/Voting.sol\":3706:3721  allProposals[i] */\n      dup2\n      mload\n      dup2\n      lt\n      tag_245\n      jumpi\n      tag_246\n      tag_78\n      jump\t// in\n    tag_246:\n    tag_245:\n      0x20\n      mul\n      0x20\n      add\n      add\n        /* \"contracts/Voting.sol\":3706:3748  allProposals[i] = proposals[i].description */\n      dup2\n      swap1\n      mstore\n      pop\n        /* \"contracts/Voting.sol\":3686:3689  i++ */\n      dup1\n      dup1\n      tag_247\n      swap1\n      tag_185\n      jump\t// in\n    tag_247:\n      swap2\n      pop\n      pop\n        /* \"contracts/Voting.sol\":3647:3760  for (uint i = 0; i < proposals.length; i++) {... */\n      jump(tag_233)\n    tag_234:\n      pop\n        /* \"contracts/Voting.sol\":3777:3789  allProposals */\n      dup1\n        /* \"contracts/Voting.sol\":3770:3789  return allProposals */\n      swap3\n      pop\n      pop\n        /* \"contracts/Voting.sol\":3447:3797  function getAllProposals() external view verifyStatus(WorkflowStatus.VotingSessionStarted) returns (string[] memory) {... */\n      pop\n      swap1\n      jump\t// out\n        /* \"contracts/Voting.sol\":1110:1253  function getWinningProposalId() public view verifyStatus(WorkflowStatus.VotesTallied) returns(uint) {... */\n    tag_49:\n        /* \"contracts/Voting.sol\":1204:1208  uint */\n      0x00\n        /* \"contracts/Voting.sol\":1167:1194  WorkflowStatus.VotesTallied */\n      0x05\n        /* \"contracts/Voting.sol\":1352:1367  _workflowStatus */\n      dup1\n        /* \"contracts/Voting.sol\":1334:1367  workflowStatus == _workflowStatus */\n      0x05\n      dup2\n      gt\n      iszero\n      tag_249\n      jumpi\n      tag_250\n      tag_60\n      jump\t// in\n    tag_250:\n    tag_249:\n        /* \"contracts/Voting.sol\":1334:1348  workflowStatus */\n      0x06\n      0x00\n      swap1\n      sload\n      swap1\n      0x0100\n      exp\n      swap1\n      div\n      0xff\n      and\n        /* \"contracts/Voting.sol\":1334:1367  workflowStatus == _workflowStatus */\n      0x05\n      dup2\n      gt\n      iszero\n      tag_251\n      jumpi\n      tag_252\n      tag_60\n      jump\t// in\n    tag_252:\n    tag_251:\n      eq\n        /* \"contracts/Voting.sol\":1326:1396  require(workflowStatus == _workflowStatus, \"It's not the good stage.\") */\n      tag_253\n      jumpi\n      mload(0x40)\n      0x08c379a000000000000000000000000000000000000000000000000000000000\n      dup2\n      mstore\n      0x04\n      add\n      tag_254\n      swap1\n      tag_65\n      jump\t// in\n    tag_254:\n      mload(0x40)\n      dup1\n      swap2\n      sub\n      swap1\n      revert\n    tag_253:\n        /* \"contracts/Voting.sol\":1228:1245  winningProposalId */\n      sload(0x05)\n        /* \"contracts/Voting.sol\":1221:1245  return winningProposalId */\n      swap2\n      pop\n        /* \"contracts/Voting.sol\":1110:1253  function getWinningProposalId() public view verifyStatus(WorkflowStatus.VotesTallied) returns(uint) {... */\n      pop\n      swap1\n      jump\t// out\n        /* \"contracts/Voting.sol\":2904:3175  function startVotingSession() external onlyOwner verifyStatus(WorkflowStatus.ProposalsRegistrationEnded) {... */\n    tag_53:\n        /* \"@openzeppelin/contracts/access/Ownable.sol\":1531:1544  _checkOwner() */\n      tag_257\n        /* \"@openzeppelin/contracts/access/Ownable.sol\":1531:1542  _checkOwner */\n      tag_86\n        /* \"@openzeppelin/contracts/access/Ownable.sol\":1531:1544  _checkOwner() */\n      jump\t// in\n    tag_257:\n        /* \"contracts/Voting.sol\":2966:3007  WorkflowStatus.ProposalsRegistrationEnded */\n      0x02\n        /* \"contracts/Voting.sol\":1352:1367  _workflowStatus */\n      dup1\n        /* \"contracts/Voting.sol\":1334:1367  workflowStatus == _workflowStatus */\n      0x05\n      dup2\n      gt\n      iszero\n      tag_259\n      jumpi\n      tag_260\n      tag_60\n      jump\t// in\n    tag_260:\n    tag_259:\n        /* \"contracts/Voting.sol\":1334:1348  workflowStatus */\n      0x06\n      0x00\n      swap1\n      sload\n      swap1\n      0x0100\n      exp\n      swap1\n      div\n      0xff\n      and\n        /* \"contracts/Voting.sol\":1334:1367  workflowStatus == _workflowStatus */\n      0x05\n      dup2\n      gt\n      iszero\n      tag_261\n      jumpi\n      tag_262\n      tag_60\n      jump\t// in\n    tag_262:\n    tag_261:\n      eq\n        /* \"contracts/Voting.sol\":1326:1396  require(workflowStatus == _workflowStatus, \"It's not the good stage.\") */\n      tag_263\n      jumpi\n      mload(0x40)\n      0x08c379a000000000000000000000000000000000000000000000000000000000\n      dup2\n      mstore\n      0x04\n      add\n      tag_264\n      swap1\n      tag_65\n      jump\t// in\n    tag_264:\n      mload(0x40)\n      dup1\n      swap2\n      sub\n      swap1\n      revert\n    tag_263:\n        /* \"contracts/Voting.sol\":3037:3072  WorkflowStatus.VotingSessionStarted */\n      0x03\n        /* \"contracts/Voting.sol\":3020:3034  workflowStatus */\n      0x06\n      0x00\n        /* \"contracts/Voting.sol\":3020:3072  workflowStatus = WorkflowStatus.VotingSessionStarted */\n      0x0100\n      exp\n      dup2\n      sload\n      dup2\n      0xff\n      mul\n      not\n      and\n      swap1\n      dup4\n      0x05\n      dup2\n      gt\n      iszero\n      tag_266\n      jumpi\n      tag_267\n      tag_60\n      jump\t// in\n    tag_267:\n    tag_266:\n      mul\n      or\n      swap1\n      sstore\n      pop\n        /* \"contracts/Voting.sol\":3088:3167  WorkflowStatusChange(WorkflowStatus.ProposalsRegistrationEnded, workflowStatus) */\n      0x0a97a4ee45751e2abf3e4fc8946939630b11b371ea8ae39ccdc3056e98f5cc3f\n        /* \"contracts/Voting.sol\":3109:3150  WorkflowStatus.ProposalsRegistrationEnded */\n      0x02\n        /* \"contracts/Voting.sol\":3152:3166  workflowStatus */\n      0x06\n      0x00\n      swap1\n      sload\n      swap1\n      0x0100\n      exp\n      swap1\n      div\n      0xff\n      and\n        /* \"contracts/Voting.sol\":3088:3167  WorkflowStatusChange(WorkflowStatus.ProposalsRegistrationEnded, workflowStatus) */\n      mload(0x40)\n      tag_268\n      swap3\n      swap2\n      swap1\n      tag_98\n      jump\t// in\n    tag_268:\n      mload(0x40)\n      dup1\n      swap2\n      sub\n      swap1\n      log1\n        /* \"@openzeppelin/contracts/access/Ownable.sol\":1554:1555  _ */\n      pop\n        /* \"contracts/Voting.sol\":2904:3175  function startVotingSession() external onlyOwner verifyStatus(WorkflowStatus.ProposalsRegistrationEnded) {... */\n      jump\t// out\n        /* \"@openzeppelin/contracts/access/Ownable.sol\":2543:2758  function transferOwnership(address newOwner) public virtual onlyOwner {... */\n    tag_56:\n        /* \"@openzeppelin/contracts/access/Ownable.sol\":1531:1544  _checkOwner() */\n      tag_270\n        /* \"@openzeppelin/contracts/access/Ownable.sol\":1531:1542  _checkOwner */\n      tag_86\n        /* \"@openzeppelin/contracts/access/Ownable.sol\":1531:1544  _checkOwner() */\n      jump\t// in\n    tag_270:\n        /* \"@openzeppelin/contracts/access/Ownable.sol\":2647:2648  0 */\n      0x00\n        /* \"@openzeppelin/contracts/access/Ownable.sol\":2627:2649  newOwner == address(0) */\n      0xffffffffffffffffffffffffffffffffffffffff\n      and\n        /* \"@openzeppelin/contracts/access/Ownable.sol\":2627:2635  newOwner */\n      dup2\n        /* \"@openzeppelin/contracts/access/Ownable.sol\":2627:2649  newOwner == address(0) */\n      0xffffffffffffffffffffffffffffffffffffffff\n      and\n      sub\n        /* \"@openzeppelin/contracts/access/Ownable.sol\":2623:2714  if (newOwner == address(0)) {... */\n      tag_272\n      jumpi\n        /* \"@openzeppelin/contracts/access/Ownable.sol\":2700:2701  0 */\n      0x00\n        /* \"@openzeppelin/contracts/access/Ownable.sol\":2672:2703  OwnableInvalidOwner(address(0)) */\n      mload(0x40)\n      0x1e4fbdf700000000000000000000000000000000000000000000000000000000\n      dup2\n      mstore\n      0x04\n      add\n      tag_273\n      swap2\n      swap1\n      tag_39\n      jump\t// in\n    tag_273:\n      mload(0x40)\n      dup1\n      swap2\n      sub\n      swap1\n      revert\n        /* \"@openzeppelin/contracts/access/Ownable.sol\":2623:2714  if (newOwner == address(0)) {... */\n    tag_272:\n        /* \"@openzeppelin/contracts/access/Ownable.sol\":2723:2751  _transferOwnership(newOwner) */\n      tag_274\n        /* \"@openzeppelin/contracts/access/Ownable.sol\":2742:2750  newOwner */\n      dup2\n        /* \"@openzeppelin/contracts/access/Ownable.sol\":2723:2741  _transferOwnership */\n      tag_149\n        /* \"@openzeppelin/contracts/access/Ownable.sol\":2723:2751  _transferOwnership(newOwner) */\n      jump\t// in\n    tag_274:\n        /* \"@openzeppelin/contracts/access/Ownable.sol\":2543:2758  function transferOwnership(address newOwner) public virtual onlyOwner {... */\n      pop\n      jump\t// out\n        /* \"@openzeppelin/contracts/access/Ownable.sol\":1796:1958  function _checkOwner() internal view virtual {... */\n    tag_86:\n        /* \"@openzeppelin/contracts/access/Ownable.sol\":1866:1878  _msgSender() */\n      tag_276\n        /* \"@openzeppelin/contracts/access/Ownable.sol\":1866:1876  _msgSender */\n      tag_277\n        /* \"@openzeppelin/contracts/access/Ownable.sol\":1866:1878  _msgSender() */\n      jump\t// in\n    tag_276:\n        /* \"@openzeppelin/contracts/access/Ownable.sol\":1855:1878  owner() != _msgSender() */\n      0xffffffffffffffffffffffffffffffffffffffff\n      and\n        /* \"@openzeppelin/contracts/access/Ownable.sol\":1855:1862  owner() */\n      tag_278\n        /* \"@openzeppelin/contracts/access/Ownable.sol\":1855:1860  owner */\n      tag_37\n        /* \"@openzeppelin/contracts/access/Ownable.sol\":1855:1862  owner() */\n      jump\t// in\n    tag_278:\n        /* \"@openzeppelin/contracts/access/Ownable.sol\":1855:1878  owner() != _msgSender() */\n      0xffffffffffffffffffffffffffffffffffffffff\n      and\n      eq\n        /* \"@openzeppelin/contracts/access/Ownable.sol\":1851:1952  if (owner() != _msgSender()) {... */\n      tag_279\n      jumpi\n        /* \"@openzeppelin/contracts/access/Ownable.sol\":1928:1940  _msgSender() */\n      tag_280\n        /* \"@openzeppelin/contracts/access/Ownable.sol\":1928:1938  _msgSender */\n      tag_277\n        /* \"@openzeppelin/contracts/access/Ownable.sol\":1928:1940  _msgSender() */\n      jump\t// in\n    tag_280:\n        /* \"@openzeppelin/contracts/access/Ownable.sol\":1901:1941  OwnableUnauthorizedAccount(_msgSender()) */\n      mload(0x40)\n      0x118cdaa700000000000000000000000000000000000000000000000000000000\n      dup2\n      mstore\n      0x04\n      add\n      tag_281\n      swap2\n      swap1\n      tag_39\n      jump\t// in\n    tag_281:\n      mload(0x40)\n      dup1\n      swap2\n      sub\n      swap1\n      revert\n        /* \"@openzeppelin/contracts/access/Ownable.sol\":1851:1952  if (owner() != _msgSender()) {... */\n    tag_279:\n        /* \"@openzeppelin/contracts/access/Ownable.sol\":1796:1958  function _checkOwner() internal view virtual {... */\n      jump\t// out\n        /* \"@openzeppelin/contracts/access/Ownable.sol\":2912:3099  function _transferOwnership(address newOwner) internal virtual {... */\n    tag_149:\n        /* \"@openzeppelin/contracts/access/Ownable.sol\":2985:3001  address oldOwner */\n      0x00\n        /* \"@openzeppelin/contracts/access/Ownable.sol\":3004:3010  _owner */\n      dup1\n      0x00\n      swap1\n      sload\n      swap1\n      0x0100\n      exp\n      swap1\n      div\n      0xffffffffffffffffffffffffffffffffffffffff\n      and\n        /* \"@openzeppelin/contracts/access/Ownable.sol\":2985:3010  address oldOwner = _owner */\n      swap1\n      pop\n        /* \"@openzeppelin/contracts/access/Ownable.sol\":3029:3037  newOwner */\n      dup2\n        /* \"@openzeppelin/contracts/access/Ownable.sol\":3020:3026  _owner */\n      0x00\n      dup1\n        /* \"@openzeppelin/contracts/access/Ownable.sol\":3020:3037  _owner = newOwner */\n      0x0100\n      exp\n      dup2\n      sload\n      dup2\n      0xffffffffffffffffffffffffffffffffffffffff\n      mul\n      not\n      and\n      swap1\n      dup4\n      0xffffffffffffffffffffffffffffffffffffffff\n      and\n      mul\n      or\n      swap1\n      sstore\n      pop\n        /* \"@openzeppelin/contracts/access/Ownable.sol\":3083:3091  newOwner */\n      dup2\n        /* \"@openzeppelin/contracts/access/Ownable.sol\":3052:3092  OwnershipTransferred(oldOwner, newOwner) */\n      0xffffffffffffffffffffffffffffffffffffffff\n      and\n        /* \"@openzeppelin/contracts/access/Ownable.sol\":3073:3081  oldOwner */\n      dup2\n        /* \"@openzeppelin/contracts/access/Ownable.sol\":3052:3092  OwnershipTransferred(oldOwner, newOwner) */\n      0xffffffffffffffffffffffffffffffffffffffff\n      and\n      0x8be0079c531659141344cd1fd0a4f28419497f9722a3daafe3b4186f6b6457e0\n      mload(0x40)\n      mload(0x40)\n      dup1\n      swap2\n      sub\n      swap1\n      log3\n        /* \"@openzeppelin/contracts/access/Ownable.sol\":2975:3099  {... */\n      pop\n        /* \"@openzeppelin/contracts/access/Ownable.sol\":2912:3099  function _transferOwnership(address newOwner) internal virtual {... */\n      pop\n      jump\t// out\n        /* \"@openzeppelin/contracts/utils/Context.sol\":656:752  function _msgSender() internal view virtual returns (address) {... */\n    tag_277:\n        /* \"@openzeppelin/contracts/utils/Context.sol\":709:716  address */\n      0x00\n        /* \"@openzeppelin/contracts/utils/Context.sol\":735:745  msg.sender */\n      caller\n        /* \"@openzeppelin/contracts/utils/Context.sol\":728:745  return msg.sender */\n      swap1\n      pop\n        /* \"@openzeppelin/contracts/utils/Context.sol\":656:752  function _msgSender() internal view virtual returns (address) {... */\n      swap1\n      jump\t// out\n    tag_123:\n      mload(0x40)\n      dup1\n      0x40\n      add\n      0x40\n      mstore\n      dup1\n      0x60\n      dup2\n      mstore\n      0x20\n      add\n      0x00\n      dup2\n      mstore\n      pop\n      swap1\n      jump\t// out\n    tag_187:\n      pop\n      dup1\n      sload\n      0x00\n      dup3\n      sstore\n      0x02\n      mul\n      swap1\n      0x00\n      mstore\n      keccak256(0x00, 0x20)\n      swap1\n      dup2\n      add\n      swap1\n      tag_285\n      swap2\n      swap1\n      tag_286\n      jump\t// in\n    tag_285:\n      pop\n      jump\t// out\n    tag_205:\n      dup3\n      dup1\n      sload\n      dup3\n      dup3\n      sstore\n      swap1\n      0x00\n      mstore\n      keccak256(0x00, 0x20)\n      swap1\n      0x02\n      mul\n      dup2\n      add\n      swap3\n      dup3\n      iszero\n      tag_287\n      jumpi\n      0x00\n      mstore\n      keccak256(0x00, 0x20)\n      swap2\n      0x02\n      mul\n      dup3\n      add\n    tag_288:\n      dup3\n      dup2\n      gt\n      iszero\n      tag_289\n      jumpi\n      dup3\n      dup3\n      0x00\n      dup3\n      add\n      dup2\n      0x00\n      add\n      swap1\n      dup2\n      tag_290\n      swap2\n      swap1\n      tag_200\n      jump\t// in\n    tag_290:\n      pop\n      0x01\n      dup3\n      add\n      sload\n      dup2\n      0x01\n      add\n      sstore\n      pop\n      pop\n      swap2\n      0x02\n      add\n      swap2\n      swap1\n      0x02\n      add\n      swap1\n      jump(tag_288)\n    tag_289:\n    tag_287:\n      pop\n      swap1\n      pop\n      tag_291\n      swap2\n      swap1\n      tag_286\n      jump\t// in\n    tag_291:\n      pop\n      swap1\n      jump\t// out\n    tag_286:\n    tag_292:\n      dup1\n      dup3\n      gt\n      iszero\n      tag_293\n      jumpi\n      0x00\n      dup1\n      dup3\n      add\n      0x00\n      tag_294\n      swap2\n      swap1\n      tag_295\n      jump\t// in\n    tag_294:\n      0x01\n      dup3\n      add\n      0x00\n      swap1\n      sstore\n      pop\n      0x02\n      add\n      jump(tag_292)\n    tag_293:\n      pop\n      swap1\n      jump\t// out\n    tag_295:\n      pop\n      dup1\n      sload\n      tag_296\n      swap1\n      tag_240\n      jump\t// in\n    tag_296:\n      0x00\n      dup3\n      sstore\n      dup1\n      0x1f\n      lt\n      tag_298\n      jumpi\n      pop\n      jump(tag_297)\n    tag_298:\n      0x1f\n      add\n      0x20\n      swap1\n      div\n      swap1\n      0x00\n      mstore\n      keccak256(0x00, 0x20)\n      swap1\n      dup2\n      add\n      swap1\n      tag_299\n      swap2\n      swap1\n      tag_300\n      jump\t// in\n    tag_299:\n    tag_297:\n      pop\n      jump\t// out\n    tag_300:\n    tag_301:\n      dup1\n      dup3\n      gt\n      iszero\n      tag_302\n      jumpi\n      0x00\n      dup2\n      0x00\n      swap1\n      sstore\n      pop\n      0x01\n      add\n      jump(tag_301)\n    tag_302:\n      pop\n      swap1\n      jump\t// out\n        /* \"#utility.yul\":7:82   */\n    tag_303:\n        /* \"#utility.yul\":40:46   */\n      0x00\n        /* \"#utility.yul\":73:75   */\n      0x40\n        /* \"#utility.yul\":67:76   */\n      mload\n        /* \"#utility.yul\":57:76   */\n      swap1\n      pop\n        /* \"#utility.yul\":7:82   */\n      swap1\n      jump\t// out\n        /* \"#utility.yul\":88:205   */\n    tag_304:\n        /* \"#utility.yul\":197:198   */\n      0x00\n        /* \"#utility.yul\":194:195   */\n      dup1\n        /* \"#utility.yul\":187:199   */\n      revert\n        /* \"#utility.yul\":211:328   */\n    tag_305:\n        /* \"#utility.yul\":320:321   */\n      0x00\n        /* \"#utility.yul\":317:318   */\n      dup1\n        /* \"#utility.yul\":310:322   */\n      revert\n        /* \"#utility.yul\":334:411   */\n    tag_306:\n        /* \"#utility.yul\":371:378   */\n      0x00\n        /* \"#utility.yul\":400:405   */\n      dup2\n        /* \"#utility.yul\":389:405   */\n      swap1\n      pop\n        /* \"#utility.yul\":334:411   */\n      swap2\n      swap1\n      pop\n      jump\t// out\n        /* \"#utility.yul\":417:539   */\n    tag_307:\n        /* \"#utility.yul\":490:514   */\n      tag_373\n        /* \"#utility.yul\":508:513   */\n      dup2\n        /* \"#utility.yul\":490:514   */\n      tag_306\n      jump\t// in\n    tag_373:\n        /* \"#utility.yul\":483:488   */\n      dup2\n        /* \"#utility.yul\":480:515   */\n      eq\n        /* \"#utility.yul\":470:533   */\n      tag_374\n      jumpi\n        /* \"#utility.yul\":529:530   */\n      0x00\n        /* \"#utility.yul\":526:527   */\n      dup1\n        /* \"#utility.yul\":519:531   */\n      revert\n        /* \"#utility.yul\":470:533   */\n    tag_374:\n        /* \"#utility.yul\":417:539   */\n      pop\n      jump\t// out\n        /* \"#utility.yul\":545:684   */\n    tag_308:\n        /* \"#utility.yul\":591:596   */\n      0x00\n        /* \"#utility.yul\":629:635   */\n      dup2\n        /* \"#utility.yul\":616:636   */\n      calldataload\n        /* \"#utility.yul\":607:636   */\n      swap1\n      pop\n        /* \"#utility.yul\":645:678   */\n      tag_376\n        /* \"#utility.yul\":672:677   */\n      dup2\n        /* \"#utility.yul\":645:678   */\n      tag_307\n      jump\t// in\n    tag_376:\n        /* \"#utility.yul\":545:684   */\n      swap3\n      swap2\n      pop\n      pop\n      jump\t// out\n        /* \"#utility.yul\":690:1019   */\n    tag_20:\n        /* \"#utility.yul\":749:755   */\n      0x00\n        /* \"#utility.yul\":798:800   */\n      0x20\n        /* \"#utility.yul\":786:795   */\n      dup3\n        /* \"#utility.yul\":777:784   */\n      dup5\n        /* \"#utility.yul\":773:796   */\n      sub\n        /* \"#utility.yul\":769:801   */\n      slt\n        /* \"#utility.yul\":766:885   */\n      iszero\n      tag_378\n      jumpi\n        /* \"#utility.yul\":804:883   */\n      tag_379\n      tag_304\n      jump\t// in\n    tag_379:\n        /* \"#utility.yul\":766:885   */\n    tag_378:\n        /* \"#utility.yul\":924:925   */\n      0x00\n        /* \"#utility.yul\":949:1002   */\n      tag_380\n        /* \"#utility.yul\":994:1001   */\n      dup5\n        /* \"#utility.yul\":985:991   */\n      dup3\n        /* \"#utility.yul\":974:983   */\n      dup6\n        /* \"#utility.yul\":970:992   */\n      add\n        /* \"#utility.yul\":949:1002   */\n      tag_308\n      jump\t// in\n    tag_380:\n        /* \"#utility.yul\":939:1002   */\n      swap2\n      pop\n        /* \"#utility.yul\":895:1012   */\n      pop\n        /* \"#utility.yul\":690:1019   */\n      swap3\n      swap2\n      pop\n      pop\n      jump\t// out\n        /* \"#utility.yul\":1025:1142   */\n    tag_309:\n        /* \"#utility.yul\":1134:1135   */\n      0x00\n        /* \"#utility.yul\":1131:1132   */\n      dup1\n        /* \"#utility.yul\":1124:1136   */\n      revert\n        /* \"#utility.yul\":1148:1265   */\n    tag_310:\n        /* \"#utility.yul\":1257:1258   */\n      0x00\n        /* \"#utility.yul\":1254:1255   */\n      dup1\n        /* \"#utility.yul\":1247:1259   */\n      revert\n        /* \"#utility.yul\":1271:1373   */\n    tag_311:\n        /* \"#utility.yul\":1312:1318   */\n      0x00\n        /* \"#utility.yul\":1363:1365   */\n      0x1f\n        /* \"#utility.yul\":1359:1366   */\n      not\n        /* \"#utility.yul\":1354:1356   */\n      0x1f\n        /* \"#utility.yul\":1347:1352   */\n      dup4\n        /* \"#utility.yul\":1343:1357   */\n      add\n        /* \"#utility.yul\":1339:1367   */\n      and\n        /* \"#utility.yul\":1329:1367   */\n      swap1\n      pop\n        /* \"#utility.yul\":1271:1373   */\n      swap2\n      swap1\n      pop\n      jump\t// out\n        /* \"#utility.yul\":1379:1559   */\n    tag_230:\n        /* \"#utility.yul\":1427:1504   */\n      0x4e487b7100000000000000000000000000000000000000000000000000000000\n        /* \"#utility.yul\":1424:1425   */\n      0x00\n        /* \"#utility.yul\":1417:1505   */\n      mstore\n        /* \"#utility.yul\":1524:1528   */\n      0x41\n        /* \"#utility.yul\":1521:1522   */\n      0x04\n        /* \"#utility.yul\":1514:1529   */\n      mstore\n        /* \"#utility.yul\":1548:1552   */\n      0x24\n        /* \"#utility.yul\":1545:1546   */\n      0x00\n        /* \"#utility.yul\":1538:1553   */\n      revert\n        /* \"#utility.yul\":1565:1846   */\n    tag_312:\n        /* \"#utility.yul\":1648:1675   */\n      tag_386\n        /* \"#utility.yul\":1670:1674   */\n      dup3\n        /* \"#utility.yul\":1648:1675   */\n      tag_311\n      jump\t// in\n    tag_386:\n        /* \"#utility.yul\":1640:1646   */\n      dup2\n        /* \"#utility.yul\":1636:1676   */\n      add\n        /* \"#utility.yul\":1778:1784   */\n      dup2\n        /* \"#utility.yul\":1766:1776   */\n      dup2\n        /* \"#utility.yul\":1763:1785   */\n      lt\n        /* \"#utility.yul\":1742:1760   */\n      0xffffffffffffffff\n        /* \"#utility.yul\":1730:1740   */\n      dup3\n        /* \"#utility.yul\":1727:1761   */\n      gt\n        /* \"#utility.yul\":1724:1786   */\n      or\n        /* \"#utility.yul\":1721:1809   */\n      iszero\n      tag_387\n      jumpi\n        /* \"#utility.yul\":1789:1807   */\n      tag_388\n      tag_230\n      jump\t// in\n    tag_388:\n        /* \"#utility.yul\":1721:1809   */\n    tag_387:\n        /* \"#utility.yul\":1829:1839   */\n      dup1\n        /* \"#utility.yul\":1825:1827   */\n      0x40\n        /* \"#utility.yul\":1818:1840   */\n      mstore\n        /* \"#utility.yul\":1608:1846   */\n      pop\n        /* \"#utility.yul\":1565:1846   */\n      pop\n      pop\n      jump\t// out\n        /* \"#utility.yul\":1852:1981   */\n    tag_313:\n        /* \"#utility.yul\":1886:1892   */\n      0x00\n        /* \"#utility.yul\":1913:1933   */\n      tag_390\n      tag_303\n      jump\t// in\n    tag_390:\n        /* \"#utility.yul\":1903:1933   */\n      swap1\n      pop\n        /* \"#utility.yul\":1942:1975   */\n      tag_391\n        /* \"#utility.yul\":1970:1974   */\n      dup3\n        /* \"#utility.yul\":1962:1968   */\n      dup3\n        /* \"#utility.yul\":1942:1975   */\n      tag_312\n      jump\t// in\n    tag_391:\n        /* \"#utility.yul\":1852:1981   */\n      swap2\n      swap1\n      pop\n      jump\t// out\n        /* \"#utility.yul\":1987:2295   */\n    tag_314:\n        /* \"#utility.yul\":2049:2053   */\n      0x00\n        /* \"#utility.yul\":2139:2157   */\n      0xffffffffffffffff\n        /* \"#utility.yul\":2131:2137   */\n      dup3\n        /* \"#utility.yul\":2128:2158   */\n      gt\n        /* \"#utility.yul\":2125:2181   */\n      iszero\n      tag_393\n      jumpi\n        /* \"#utility.yul\":2161:2179   */\n      tag_394\n      tag_230\n      jump\t// in\n    tag_394:\n        /* \"#utility.yul\":2125:2181   */\n    tag_393:\n        /* \"#utility.yul\":2199:2228   */\n      tag_395\n        /* \"#utility.yul\":2221:2227   */\n      dup3\n        /* \"#utility.yul\":2199:2228   */\n      tag_311\n      jump\t// in\n    tag_395:\n        /* \"#utility.yul\":2191:2228   */\n      swap1\n      pop\n        /* \"#utility.yul\":2283:2287   */\n      0x20\n        /* \"#utility.yul\":2277:2281   */\n      dup2\n        /* \"#utility.yul\":2273:2288   */\n      add\n        /* \"#utility.yul\":2265:2288   */\n      swap1\n      pop\n        /* \"#utility.yul\":1987:2295   */\n      swap2\n      swap1\n      pop\n      jump\t// out\n        /* \"#utility.yul\":2301:2447   */\n    tag_315:\n        /* \"#utility.yul\":2398:2404   */\n      dup3\n        /* \"#utility.yul\":2393:2396   */\n      dup2\n        /* \"#utility.yul\":2388:2391   */\n      dup4\n        /* \"#utility.yul\":2375:2405   */\n      calldatacopy\n        /* \"#utility.yul\":2439:2440   */\n      0x00\n        /* \"#utility.yul\":2430:2436   */\n      dup4\n        /* \"#utility.yul\":2425:2428   */\n      dup4\n        /* \"#utility.yul\":2421:2437   */\n      add\n        /* \"#utility.yul\":2414:2441   */\n      mstore\n        /* \"#utility.yul\":2301:2447   */\n      pop\n      pop\n      pop\n      jump\t// out\n        /* \"#utility.yul\":2453:2878   */\n    tag_316:\n        /* \"#utility.yul\":2531:2536   */\n      0x00\n        /* \"#utility.yul\":2556:2622   */\n      tag_398\n        /* \"#utility.yul\":2572:2621   */\n      tag_399\n        /* \"#utility.yul\":2614:2620   */\n      dup5\n        /* \"#utility.yul\":2572:2621   */\n      tag_314\n      jump\t// in\n    tag_399:\n        /* \"#utility.yul\":2556:2622   */\n      tag_313\n      jump\t// in\n    tag_398:\n        /* \"#utility.yul\":2547:2622   */\n      swap1\n      pop\n        /* \"#utility.yul\":2645:2651   */\n      dup3\n        /* \"#utility.yul\":2638:2643   */\n      dup2\n        /* \"#utility.yul\":2631:2652   */\n      mstore\n        /* \"#utility.yul\":2683:2687   */\n      0x20\n        /* \"#utility.yul\":2676:2681   */\n      dup2\n        /* \"#utility.yul\":2672:2688   */\n      add\n        /* \"#utility.yul\":2721:2724   */\n      dup5\n        /* \"#utility.yul\":2712:2718   */\n      dup5\n        /* \"#utility.yul\":2707:2710   */\n      dup5\n        /* \"#utility.yul\":2703:2719   */\n      add\n        /* \"#utility.yul\":2700:2725   */\n      gt\n        /* \"#utility.yul\":2697:2809   */\n      iszero\n      tag_400\n      jumpi\n        /* \"#utility.yul\":2728:2807   */\n      tag_401\n      tag_310\n      jump\t// in\n    tag_401:\n        /* \"#utility.yul\":2697:2809   */\n    tag_400:\n        /* \"#utility.yul\":2818:2872   */\n      tag_402\n        /* \"#utility.yul\":2865:2871   */\n      dup5\n        /* \"#utility.yul\":2860:2863   */\n      dup3\n        /* \"#utility.yul\":2855:2858   */\n      dup6\n        /* \"#utility.yul\":2818:2872   */\n      tag_315\n      jump\t// in\n    tag_402:\n        /* \"#utility.yul\":2537:2878   */\n      pop\n        /* \"#utility.yul\":2453:2878   */\n      swap4\n      swap3\n      pop\n      pop\n      pop\n      jump\t// out\n        /* \"#utility.yul\":2898:3238   */\n    tag_317:\n        /* \"#utility.yul\":2954:2959   */\n      0x00\n        /* \"#utility.yul\":3003:3006   */\n      dup3\n        /* \"#utility.yul\":2996:3000   */\n      0x1f\n        /* \"#utility.yul\":2988:2994   */\n      dup4\n        /* \"#utility.yul\":2984:3001   */\n      add\n        /* \"#utility.yul\":2980:3007   */\n      slt\n        /* \"#utility.yul\":2970:3092   */\n      tag_404\n      jumpi\n        /* \"#utility.yul\":3011:3090   */\n      tag_405\n      tag_309\n      jump\t// in\n    tag_405:\n        /* \"#utility.yul\":2970:3092   */\n    tag_404:\n        /* \"#utility.yul\":3128:3134   */\n      dup2\n        /* \"#utility.yul\":3115:3135   */\n      calldataload\n        /* \"#utility.yul\":3153:3232   */\n      tag_406\n        /* \"#utility.yul\":3228:3231   */\n      dup5\n        /* \"#utility.yul\":3220:3226   */\n      dup3\n        /* \"#utility.yul\":3213:3217   */\n      0x20\n        /* \"#utility.yul\":3205:3211   */\n      dup7\n        /* \"#utility.yul\":3201:3218   */\n      add\n        /* \"#utility.yul\":3153:3232   */\n      tag_316\n      jump\t// in\n    tag_406:\n        /* \"#utility.yul\":3144:3232   */\n      swap2\n      pop\n        /* \"#utility.yul\":2960:3238   */\n      pop\n        /* \"#utility.yul\":2898:3238   */\n      swap3\n      swap2\n      pop\n      pop\n      jump\t// out\n        /* \"#utility.yul\":3244:3753   */\n    tag_28:\n        /* \"#utility.yul\":3313:3319   */\n      0x00\n        /* \"#utility.yul\":3362:3364   */\n      0x20\n        /* \"#utility.yul\":3350:3359   */\n      dup3\n        /* \"#utility.yul\":3341:3348   */\n      dup5\n        /* \"#utility.yul\":3337:3360   */\n      sub\n        /* \"#utility.yul\":3333:3365   */\n      slt\n        /* \"#utility.yul\":3330:3449   */\n      iszero\n      tag_408\n      jumpi\n        /* \"#utility.yul\":3368:3447   */\n      tag_409\n      tag_304\n      jump\t// in\n    tag_409:\n        /* \"#utility.yul\":3330:3449   */\n    tag_408:\n        /* \"#utility.yul\":3516:3517   */\n      0x00\n        /* \"#utility.yul\":3505:3514   */\n      dup3\n        /* \"#utility.yul\":3501:3518   */\n      add\n        /* \"#utility.yul\":3488:3519   */\n      calldataload\n        /* \"#utility.yul\":3546:3564   */\n      0xffffffffffffffff\n        /* \"#utility.yul\":3538:3544   */\n      dup2\n        /* \"#utility.yul\":3535:3565   */\n      gt\n        /* \"#utility.yul\":3532:3649   */\n      iszero\n      tag_410\n      jumpi\n        /* \"#utility.yul\":3568:3647   */\n      tag_411\n      tag_305\n      jump\t// in\n    tag_411:\n        /* \"#utility.yul\":3532:3649   */\n    tag_410:\n        /* \"#utility.yul\":3673:3736   */\n      tag_412\n        /* \"#utility.yul\":3728:3735   */\n      dup5\n        /* \"#utility.yul\":3719:3725   */\n      dup3\n        /* \"#utility.yul\":3708:3717   */\n      dup6\n        /* \"#utility.yul\":3704:3726   */\n      add\n        /* \"#utility.yul\":3673:3736   */\n      tag_317\n      jump\t// in\n    tag_412:\n        /* \"#utility.yul\":3663:3736   */\n      swap2\n      pop\n        /* \"#utility.yul\":3459:3746   */\n      pop\n        /* \"#utility.yul\":3244:3753   */\n      swap3\n      swap2\n      pop\n      pop\n      jump\t// out\n        /* \"#utility.yul\":3759:3885   */\n    tag_318:\n        /* \"#utility.yul\":3796:3803   */\n      0x00\n        /* \"#utility.yul\":3836:3878   */\n      0xffffffffffffffffffffffffffffffffffffffff\n        /* \"#utility.yul\":3829:3834   */\n      dup3\n        /* \"#utility.yul\":3825:3879   */\n      and\n        /* \"#utility.yul\":3814:3879   */\n      swap1\n      pop\n        /* \"#utility.yul\":3759:3885   */\n      swap2\n      swap1\n      pop\n      jump\t// out\n        /* \"#utility.yul\":3891:3987   */\n    tag_319:\n        /* \"#utility.yul\":3928:3935   */\n      0x00\n        /* \"#utility.yul\":3957:3981   */\n      tag_415\n        /* \"#utility.yul\":3975:3980   */\n      dup3\n        /* \"#utility.yul\":3957:3981   */\n      tag_318\n      jump\t// in\n    tag_415:\n        /* \"#utility.yul\":3946:3981   */\n      swap1\n      pop\n        /* \"#utility.yul\":3891:3987   */\n      swap2\n      swap1\n      pop\n      jump\t// out\n        /* \"#utility.yul\":3993:4115   */\n    tag_320:\n        /* \"#utility.yul\":4066:4090   */\n      tag_417\n        /* \"#utility.yul\":4084:4089   */\n      dup2\n        /* \"#utility.yul\":4066:4090   */\n      tag_319\n      jump\t// in\n    tag_417:\n        /* \"#utility.yul\":4059:4064   */\n      dup2\n        /* \"#utility.yul\":4056:4091   */\n      eq\n        /* \"#utility.yul\":4046:4109   */\n      tag_418\n      jumpi\n        /* \"#utility.yul\":4105:4106   */\n      0x00\n        /* \"#utility.yul\":4102:4103   */\n      dup1\n        /* \"#utility.yul\":4095:4107   */\n      revert\n        /* \"#utility.yul\":4046:4109   */\n    tag_418:\n        /* \"#utility.yul\":3993:4115   */\n      pop\n      jump\t// out\n        /* \"#utility.yul\":4121:4260   */\n    tag_321:\n        /* \"#utility.yul\":4167:4172   */\n      0x00\n        /* \"#utility.yul\":4205:4211   */\n      dup2\n        /* \"#utility.yul\":4192:4212   */\n      calldataload\n        /* \"#utility.yul\":4183:4212   */\n      swap1\n      pop\n        /* \"#utility.yul\":4221:4254   */\n      tag_420\n        /* \"#utility.yul\":4248:4253   */\n      dup2\n        /* \"#utility.yul\":4221:4254   */\n      tag_320\n      jump\t// in\n    tag_420:\n        /* \"#utility.yul\":4121:4260   */\n      swap3\n      swap2\n      pop\n      pop\n      jump\t// out\n        /* \"#utility.yul\":4266:4595   */\n    tag_32:\n        /* \"#utility.yul\":4325:4331   */\n      0x00\n        /* \"#utility.yul\":4374:4376   */\n      0x20\n        /* \"#utility.yul\":4362:4371   */\n      dup3\n        /* \"#utility.yul\":4353:4360   */\n      dup5\n        /* \"#utility.yul\":4349:4372   */\n      sub\n        /* \"#utility.yul\":4345:4377   */\n      slt\n        /* \"#utility.yul\":4342:4461   */\n      iszero\n      tag_422\n      jumpi\n        /* \"#utility.yul\":4380:4459   */\n      tag_423\n      tag_304\n      jump\t// in\n    tag_423:\n        /* \"#utility.yul\":4342:4461   */\n    tag_422:\n        /* \"#utility.yul\":4500:4501   */\n      0x00\n        /* \"#utility.yul\":4525:4578   */\n      tag_424\n        /* \"#utility.yul\":4570:4577   */\n      dup5\n        /* \"#utility.yul\":4561:4567   */\n      dup3\n        /* \"#utility.yul\":4550:4559   */\n      dup6\n        /* \"#utility.yul\":4546:4568   */\n      add\n        /* \"#utility.yul\":4525:4578   */\n      tag_321\n      jump\t// in\n    tag_424:\n        /* \"#utility.yul\":4515:4578   */\n      swap2\n      pop\n        /* \"#utility.yul\":4471:4588   */\n      pop\n        /* \"#utility.yul\":4266:4595   */\n      swap3\n      swap2\n      pop\n      pop\n      jump\t// out\n        /* \"#utility.yul\":4601:4719   */\n    tag_322:\n        /* \"#utility.yul\":4688:4712   */\n      tag_426\n        /* \"#utility.yul\":4706:4711   */\n      dup2\n        /* \"#utility.yul\":4688:4712   */\n      tag_319\n      jump\t// in\n    tag_426:\n        /* \"#utility.yul\":4683:4686   */\n      dup3\n        /* \"#utility.yul\":4676:4713   */\n      mstore\n        /* \"#utility.yul\":4601:4719   */\n      pop\n      pop\n      jump\t// out\n        /* \"#utility.yul\":4725:4947   */\n    tag_39:\n        /* \"#utility.yul\":4818:4822   */\n      0x00\n        /* \"#utility.yul\":4856:4858   */\n      0x20\n        /* \"#utility.yul\":4845:4854   */\n      dup3\n        /* \"#utility.yul\":4841:4859   */\n      add\n        /* \"#utility.yul\":4833:4859   */\n      swap1\n      pop\n        /* \"#utility.yul\":4869:4940   */\n      tag_428\n        /* \"#utility.yul\":4937:4938   */\n      0x00\n        /* \"#utility.yul\":4926:4935   */\n      dup4\n        /* \"#utility.yul\":4922:4939   */\n      add\n        /* \"#utility.yul\":4913:4919   */\n      dup5\n        /* \"#utility.yul\":4869:4940   */\n      tag_322\n      jump\t// in\n    tag_428:\n        /* \"#utility.yul\":4725:4947   */\n      swap3\n      swap2\n      pop\n      pop\n      jump\t// out\n        /* \"#utility.yul\":4953:5077   */\n    tag_323:\n        /* \"#utility.yul\":5030:5036   */\n      0x00\n        /* \"#utility.yul\":5064:5069   */\n      dup2\n        /* \"#utility.yul\":5058:5070   */\n      mload\n        /* \"#utility.yul\":5048:5070   */\n      swap1\n      pop\n        /* \"#utility.yul\":4953:5077   */\n      swap2\n      swap1\n      pop\n      jump\t// out\n        /* \"#utility.yul\":5083:5277   */\n    tag_324:\n        /* \"#utility.yul\":5192:5203   */\n      0x00\n        /* \"#utility.yul\":5226:5232   */\n      dup3\n        /* \"#utility.yul\":5221:5224   */\n      dup3\n        /* \"#utility.yul\":5214:5233   */\n      mstore\n        /* \"#utility.yul\":5266:5270   */\n      0x20\n        /* \"#utility.yul\":5261:5264   */\n      dup3\n        /* \"#utility.yul\":5257:5271   */\n      add\n        /* \"#utility.yul\":5242:5271   */\n      swap1\n      pop\n        /* \"#utility.yul\":5083:5277   */\n      swap3\n      swap2\n      pop\n      pop\n      jump\t// out\n        /* \"#utility.yul\":5283:5425   */\n    tag_325:\n        /* \"#utility.yul\":5360:5364   */\n      0x00\n        /* \"#utility.yul\":5383:5386   */\n      dup2\n        /* \"#utility.yul\":5375:5386   */\n      swap1\n      pop\n        /* \"#utility.yul\":5413:5417   */\n      0x20\n        /* \"#utility.yul\":5408:5411   */\n      dup3\n        /* \"#utility.yul\":5404:5418   */\n      add\n        /* \"#utility.yul\":5396:5418   */\n      swap1\n      pop\n        /* \"#utility.yul\":5283:5425   */\n      swap2\n      swap1\n      pop\n      jump\t// out\n        /* \"#utility.yul\":5431:5530   */\n    tag_326:\n        /* \"#utility.yul\":5483:5489   */\n      0x00\n        /* \"#utility.yul\":5517:5522   */\n      dup2\n        /* \"#utility.yul\":5511:5523   */\n      mload\n        /* \"#utility.yul\":5501:5523   */\n      swap1\n      pop\n        /* \"#utility.yul\":5431:5530   */\n      swap2\n      swap1\n      pop\n      jump\t// out\n        /* \"#utility.yul\":5536:5695   */\n    tag_327:\n        /* \"#utility.yul\":5610:5621   */\n      0x00\n        /* \"#utility.yul\":5644:5650   */\n      dup3\n        /* \"#utility.yul\":5639:5642   */\n      dup3\n        /* \"#utility.yul\":5632:5651   */\n      mstore\n        /* \"#utility.yul\":5684:5688   */\n      0x20\n        /* \"#utility.yul\":5679:5682   */\n      dup3\n        /* \"#utility.yul\":5675:5689   */\n      add\n        /* \"#utility.yul\":5660:5689   */\n      swap1\n      pop\n        /* \"#utility.yul\":5536:5695   */\n      swap3\n      swap2\n      pop\n      pop\n      jump\t// out\n        /* \"#utility.yul\":5701:5947   */\n    tag_328:\n        /* \"#utility.yul\":5782:5783   */\n      0x00\n        /* \"#utility.yul\":5792:5905   */\n    tag_435:\n        /* \"#utility.yul\":5806:5812   */\n      dup4\n        /* \"#utility.yul\":5803:5804   */\n      dup2\n        /* \"#utility.yul\":5800:5813   */\n      lt\n        /* \"#utility.yul\":5792:5905   */\n      iszero\n      tag_437\n      jumpi\n        /* \"#utility.yul\":5891:5892   */\n      dup1\n        /* \"#utility.yul\":5886:5889   */\n      dup3\n        /* \"#utility.yul\":5882:5893   */\n      add\n        /* \"#utility.yul\":5876:5894   */\n      mload\n        /* \"#utility.yul\":5872:5873   */\n      dup2\n        /* \"#utility.yul\":5867:5870   */\n      dup5\n        /* \"#utility.yul\":5863:5874   */\n      add\n        /* \"#utility.yul\":5856:5895   */\n      mstore\n        /* \"#utility.yul\":5828:5830   */\n      0x20\n        /* \"#utility.yul\":5825:5826   */\n      dup2\n        /* \"#utility.yul\":5821:5831   */\n      add\n        /* \"#utility.yul\":5816:5831   */\n      swap1\n      pop\n        /* \"#utility.yul\":5792:5905   */\n      jump(tag_435)\n    tag_437:\n        /* \"#utility.yul\":5939:5940   */\n      0x00\n        /* \"#utility.yul\":5930:5936   */\n      dup5\n        /* \"#utility.yul\":5925:5928   */\n      dup5\n        /* \"#utility.yul\":5921:5937   */\n      add\n        /* \"#utility.yul\":5914:5941   */\n      mstore\n        /* \"#utility.yul\":5763:5947   */\n      pop\n        /* \"#utility.yul\":5701:5947   */\n      pop\n      pop\n      pop\n      jump\t// out\n        /* \"#utility.yul\":5953:6310   */\n    tag_329:\n        /* \"#utility.yul\":6031:6034   */\n      0x00\n        /* \"#utility.yul\":6059:6098   */\n      tag_439\n        /* \"#utility.yul\":6092:6097   */\n      dup3\n        /* \"#utility.yul\":6059:6098   */\n      tag_326\n      jump\t// in\n    tag_439:\n        /* \"#utility.yul\":6114:6175   */\n      tag_440\n        /* \"#utility.yul\":6168:6174   */\n      dup2\n        /* \"#utility.yul\":6163:6166   */\n      dup6\n        /* \"#utility.yul\":6114:6175   */\n      tag_327\n      jump\t// in\n    tag_440:\n        /* \"#utility.yul\":6107:6175   */\n      swap4\n      pop\n        /* \"#utility.yul\":6184:6249   */\n      tag_441\n        /* \"#utility.yul\":6242:6248   */\n      dup2\n        /* \"#utility.yul\":6237:6240   */\n      dup6\n        /* \"#utility.yul\":6230:6234   */\n      0x20\n        /* \"#utility.yul\":6223:6228   */\n      dup7\n        /* \"#utility.yul\":6219:6235   */\n      add\n        /* \"#utility.yul\":6184:6249   */\n      tag_328\n      jump\t// in\n    tag_441:\n        /* \"#utility.yul\":6274:6303   */\n      tag_442\n        /* \"#utility.yul\":6296:6302   */\n      dup2\n        /* \"#utility.yul\":6274:6303   */\n      tag_311\n      jump\t// in\n    tag_442:\n        /* \"#utility.yul\":6269:6272   */\n      dup5\n        /* \"#utility.yul\":6265:6304   */\n      add\n        /* \"#utility.yul\":6258:6304   */\n      swap2\n      pop\n        /* \"#utility.yul\":6035:6310   */\n      pop\n        /* \"#utility.yul\":5953:6310   */\n      swap3\n      swap2\n      pop\n      pop\n      jump\t// out\n        /* \"#utility.yul\":6316:6512   */\n    tag_330:\n        /* \"#utility.yul\":6405:6415   */\n      0x00\n        /* \"#utility.yul\":6440:6506   */\n      tag_444\n        /* \"#utility.yul\":6502:6505   */\n      dup4\n        /* \"#utility.yul\":6494:6500   */\n      dup4\n        /* \"#utility.yul\":6440:6506   */\n      tag_329\n      jump\t// in\n    tag_444:\n        /* \"#utility.yul\":6426:6506   */\n      swap1\n      pop\n        /* \"#utility.yul\":6316:6512   */\n      swap3\n      swap2\n      pop\n      pop\n      jump\t// out\n        /* \"#utility.yul\":6518:6641   */\n    tag_331:\n        /* \"#utility.yul\":6598:6602   */\n      0x00\n        /* \"#utility.yul\":6630:6634   */\n      0x20\n        /* \"#utility.yul\":6625:6628   */\n      dup3\n        /* \"#utility.yul\":6621:6635   */\n      add\n        /* \"#utility.yul\":6613:6635   */\n      swap1\n      pop\n        /* \"#utility.yul\":6518:6641   */\n      swap2\n      swap1\n      pop\n      jump\t// out\n        /* \"#utility.yul\":6675:7666   */\n    tag_332:\n        /* \"#utility.yul\":6814:6817   */\n      0x00\n        /* \"#utility.yul\":6843:6907   */\n      tag_447\n        /* \"#utility.yul\":6901:6906   */\n      dup3\n        /* \"#utility.yul\":6843:6907   */\n      tag_323\n      jump\t// in\n    tag_447:\n        /* \"#utility.yul\":6923:7019   */\n      tag_448\n        /* \"#utility.yul\":7012:7018   */\n      dup2\n        /* \"#utility.yul\":7007:7010   */\n      dup6\n        /* \"#utility.yul\":6923:7019   */\n      tag_324\n      jump\t// in\n    tag_448:\n        /* \"#utility.yul\":6916:7019   */\n      swap4\n      pop\n        /* \"#utility.yul\":7045:7048   */\n      dup4\n        /* \"#utility.yul\":7090:7094   */\n      0x20\n        /* \"#utility.yul\":7082:7088   */\n      dup3\n        /* \"#utility.yul\":7078:7095   */\n      mul\n        /* \"#utility.yul\":7073:7076   */\n      dup6\n        /* \"#utility.yul\":7069:7096   */\n      add\n        /* \"#utility.yul\":7120:7186   */\n      tag_449\n        /* \"#utility.yul\":7180:7185   */\n      dup6\n        /* \"#utility.yul\":7120:7186   */\n      tag_325\n      jump\t// in\n    tag_449:\n        /* \"#utility.yul\":7209:7216   */\n      dup1\n        /* \"#utility.yul\":7240:7241   */\n      0x00\n        /* \"#utility.yul\":7225:7621   */\n    tag_450:\n        /* \"#utility.yul\":7250:7256   */\n      dup6\n        /* \"#utility.yul\":7247:7248   */\n      dup2\n        /* \"#utility.yul\":7244:7257   */\n      lt\n        /* \"#utility.yul\":7225:7621   */\n      iszero\n      tag_452\n      jumpi\n        /* \"#utility.yul\":7321:7330   */\n      dup5\n        /* \"#utility.yul\":7315:7319   */\n      dup5\n        /* \"#utility.yul\":7311:7331   */\n      sub\n        /* \"#utility.yul\":7306:7309   */\n      dup10\n        /* \"#utility.yul\":7299:7332   */\n      mstore\n        /* \"#utility.yul\":7372:7378   */\n      dup2\n        /* \"#utility.yul\":7366:7379   */\n      mload\n        /* \"#utility.yul\":7400:7484   */\n      tag_453\n        /* \"#utility.yul\":7479:7483   */\n      dup6\n        /* \"#utility.yul\":7464:7477   */\n      dup3\n        /* \"#utility.yul\":7400:7484   */\n      tag_330\n      jump\t// in\n    tag_453:\n        /* \"#utility.yul\":7392:7484   */\n      swap5\n      pop\n        /* \"#utility.yul\":7507:7577   */\n      tag_454\n        /* \"#utility.yul\":7570:7576   */\n      dup4\n        /* \"#utility.yul\":7507:7577   */\n      tag_331\n      jump\t// in\n    tag_454:\n        /* \"#utility.yul\":7497:7577   */\n      swap3\n      pop\n        /* \"#utility.yul\":7606:7610   */\n      0x20\n        /* \"#utility.yul\":7601:7604   */\n      dup11\n        /* \"#utility.yul\":7597:7611   */\n      add\n        /* \"#utility.yul\":7590:7611   */\n      swap10\n      pop\n        /* \"#utility.yul\":7285:7621   */\n      pop\n        /* \"#utility.yul\":7272:7273   */\n      0x01\n        /* \"#utility.yul\":7269:7270   */\n      dup2\n        /* \"#utility.yul\":7265:7274   */\n      add\n        /* \"#utility.yul\":7260:7274   */\n      swap1\n      pop\n        /* \"#utility.yul\":7225:7621   */\n      jump(tag_450)\n    tag_452:\n        /* \"#utility.yul\":7229:7243   */\n      pop\n        /* \"#utility.yul\":7637:7641   */\n      dup3\n        /* \"#utility.yul\":7630:7641   */\n      swap8\n      pop\n        /* \"#utility.yul\":7657:7660   */\n      dup8\n        /* \"#utility.yul\":7650:7660   */\n      swap6\n      pop\n        /* \"#utility.yul\":6819:7666   */\n      pop\n      pop\n      pop\n      pop\n      pop\n        /* \"#utility.yul\":6675:7666   */\n      swap3\n      swap2\n      pop\n      pop\n      jump\t// out\n        /* \"#utility.yul\":7672:8085   */\n    tag_47:\n        /* \"#utility.yul\":7835:7839   */\n      0x00\n        /* \"#utility.yul\":7873:7875   */\n      0x20\n        /* \"#utility.yul\":7862:7871   */\n      dup3\n        /* \"#utility.yul\":7858:7876   */\n      add\n        /* \"#utility.yul\":7850:7876   */\n      swap1\n      pop\n        /* \"#utility.yul\":7922:7931   */\n      dup2\n        /* \"#utility.yul\":7916:7920   */\n      dup2\n        /* \"#utility.yul\":7912:7932   */\n      sub\n        /* \"#utility.yul\":7908:7909   */\n      0x00\n        /* \"#utility.yul\":7897:7906   */\n      dup4\n        /* \"#utility.yul\":7893:7910   */\n      add\n        /* \"#utility.yul\":7886:7933   */\n      mstore\n        /* \"#utility.yul\":7950:8078   */\n      tag_456\n        /* \"#utility.yul\":8073:8077   */\n      dup2\n        /* \"#utility.yul\":8064:8070   */\n      dup5\n        /* \"#utility.yul\":7950:8078   */\n      tag_332\n      jump\t// in\n    tag_456:\n        /* \"#utility.yul\":7942:8078   */\n      swap1\n      pop\n        /* \"#utility.yul\":7672:8085   */\n      swap3\n      swap2\n      pop\n      pop\n      jump\t// out\n        /* \"#utility.yul\":8091:8209   */\n    tag_333:\n        /* \"#utility.yul\":8178:8202   */\n      tag_458\n        /* \"#utility.yul\":8196:8201   */\n      dup2\n        /* \"#utility.yul\":8178:8202   */\n      tag_306\n      jump\t// in\n    tag_458:\n        /* \"#utility.yul\":8173:8176   */\n      dup3\n        /* \"#utility.yul\":8166:8203   */\n      mstore\n        /* \"#utility.yul\":8091:8209   */\n      pop\n      pop\n      jump\t// out\n        /* \"#utility.yul\":8215:8437   */\n    tag_51:\n        /* \"#utility.yul\":8308:8312   */\n      0x00\n        /* \"#utility.yul\":8346:8348   */\n      0x20\n        /* \"#utility.yul\":8335:8344   */\n      dup3\n        /* \"#utility.yul\":8331:8349   */\n      add\n        /* \"#utility.yul\":8323:8349   */\n      swap1\n      pop\n        /* \"#utility.yul\":8359:8430   */\n      tag_460\n        /* \"#utility.yul\":8427:8428   */\n      0x00\n        /* \"#utility.yul\":8416:8425   */\n      dup4\n        /* \"#utility.yul\":8412:8429   */\n      add\n        /* \"#utility.yul\":8403:8409   */\n      dup5\n        /* \"#utility.yul\":8359:8430   */\n      tag_333\n      jump\t// in\n    tag_460:\n        /* \"#utility.yul\":8215:8437   */\n      swap3\n      swap2\n      pop\n      pop\n      jump\t// out\n        /* \"#utility.yul\":8443:8623   */\n    tag_60:\n        /* \"#utility.yul\":8491:8568   */\n      0x4e487b7100000000000000000000000000000000000000000000000000000000\n        /* \"#utility.yul\":8488:8489   */\n      0x00\n        /* \"#utility.yul\":8481:8569   */\n      mstore\n        /* \"#utility.yul\":8588:8592   */\n      0x21\n        /* \"#utility.yul\":8585:8586   */\n      0x04\n        /* \"#utility.yul\":8578:8593   */\n      mstore\n        /* \"#utility.yul\":8612:8616   */\n      0x24\n        /* \"#utility.yul\":8609:8610   */\n      0x00\n        /* \"#utility.yul\":8602:8617   */\n      revert\n        /* \"#utility.yul\":8629:8798   */\n    tag_334:\n        /* \"#utility.yul\":8713:8724   */\n      0x00\n        /* \"#utility.yul\":8747:8753   */\n      dup3\n        /* \"#utility.yul\":8742:8745   */\n      dup3\n        /* \"#utility.yul\":8735:8754   */\n      mstore\n        /* \"#utility.yul\":8787:8791   */\n      0x20\n        /* \"#utility.yul\":8782:8785   */\n      dup3\n        /* \"#utility.yul\":8778:8792   */\n      add\n        /* \"#utility.yul\":8763:8792   */\n      swap1\n      pop\n        /* \"#utility.yul\":8629:8798   */\n      swap3\n      swap2\n      pop\n      pop\n      jump\t// out\n        /* \"#utility.yul\":8804:8978   */\n    tag_335:\n        /* \"#utility.yul\":8944:8970   */\n      0x49742773206e6f742074686520676f6f642073746167652e0000000000000000\n        /* \"#utility.yul\":8940:8941   */\n      0x00\n        /* \"#utility.yul\":8932:8938   */\n      dup3\n        /* \"#utility.yul\":8928:8942   */\n      add\n        /* \"#utility.yul\":8921:8971   */\n      mstore\n        /* \"#utility.yul\":8804:8978   */\n      pop\n      jump\t// out\n        /* \"#utility.yul\":8984:9350   */\n    tag_336:\n        /* \"#utility.yul\":9126:9129   */\n      0x00\n        /* \"#utility.yul\":9147:9214   */\n      tag_465\n        /* \"#utility.yul\":9211:9213   */\n      0x18\n        /* \"#utility.yul\":9206:9209   */\n      dup4\n        /* \"#utility.yul\":9147:9214   */\n      tag_334\n      jump\t// in\n    tag_465:\n        /* \"#utility.yul\":9140:9214   */\n      swap2\n      pop\n        /* \"#utility.yul\":9223:9316   */\n      tag_466\n        /* \"#utility.yul\":9312:9315   */\n      dup3\n        /* \"#utility.yul\":9223:9316   */\n      tag_335\n      jump\t// in\n    tag_466:\n        /* \"#utility.yul\":9341:9343   */\n      0x20\n        /* \"#utility.yul\":9336:9339   */\n      dup3\n        /* \"#utility.yul\":9332:9344   */\n      add\n        /* \"#utility.yul\":9325:9344   */\n      swap1\n      pop\n        /* \"#utility.yul\":8984:9350   */\n      swap2\n      swap1\n      pop\n      jump\t// out\n        /* \"#utility.yul\":9356:9775   */\n    tag_65:\n        /* \"#utility.yul\":9522:9526   */\n      0x00\n        /* \"#utility.yul\":9560:9562   */\n      0x20\n        /* \"#utility.yul\":9549:9558   */\n      dup3\n        /* \"#utility.yul\":9545:9563   */\n      add\n        /* \"#utility.yul\":9537:9563   */\n      swap1\n      pop\n        /* \"#utility.yul\":9609:9618   */\n      dup2\n        /* \"#utility.yul\":9603:9607   */\n      dup2\n        /* \"#utility.yul\":9599:9619   */\n      sub\n        /* \"#utility.yul\":9595:9596   */\n      0x00\n        /* \"#utility.yul\":9584:9593   */\n      dup4\n        /* \"#utility.yul\":9580:9597   */\n      add\n        /* \"#utility.yul\":9573:9620   */\n      mstore\n        /* \"#utility.yul\":9637:9768   */\n      tag_468\n        /* \"#utility.yul\":9763:9767   */\n      dup2\n        /* \"#utility.yul\":9637:9768   */\n      tag_336\n      jump\t// in\n    tag_468:\n        /* \"#utility.yul\":9629:9768   */\n      swap1\n      pop\n        /* \"#utility.yul\":9356:9775   */\n      swap2\n      swap1\n      pop\n      jump\t// out\n        /* \"#utility.yul\":9781:9959   */\n    tag_337:\n        /* \"#utility.yul\":9921:9951   */\n      0x54686520766f746572206973206e6f7420726567697374657265642100000000\n        /* \"#utility.yul\":9917:9918   */\n      0x00\n        /* \"#utility.yul\":9909:9915   */\n      dup3\n        /* \"#utility.yul\":9905:9919   */\n      add\n        /* \"#utility.yul\":9898:9952   */\n      mstore\n        /* \"#utility.yul\":9781:9959   */\n      pop\n      jump\t// out\n        /* \"#utility.yul\":9965:10331   */\n    tag_338:\n        /* \"#utility.yul\":10107:10110   */\n      0x00\n        /* \"#utility.yul\":10128:10195   */\n      tag_471\n        /* \"#utility.yul\":10192:10194   */\n      0x1c\n        /* \"#utility.yul\":10187:10190   */\n      dup4\n        /* \"#utility.yul\":10128:10195   */\n      tag_334\n      jump\t// in\n    tag_471:\n        /* \"#utility.yul\":10121:10195   */\n      swap2\n      pop\n        /* \"#utility.yul\":10204:10297   */\n      tag_472\n        /* \"#utility.yul\":10293:10296   */\n      dup3\n        /* \"#utility.yul\":10204:10297   */\n      tag_337\n      jump\t// in\n    tag_472:\n        /* \"#utility.yul\":10322:10324   */\n      0x20\n        /* \"#utility.yul\":10317:10320   */\n      dup3\n        /* \"#utility.yul\":10313:10325   */\n      add\n        /* \"#utility.yul\":10306:10325   */\n      swap1\n      pop\n        /* \"#utility.yul\":9965:10331   */\n      swap2\n      swap1\n      pop\n      jump\t// out\n        /* \"#utility.yul\":10337:10756   */\n    tag_69:\n        /* \"#utility.yul\":10503:10507   */\n      0x00\n        /* \"#utility.yul\":10541:10543   */\n      0x20\n        /* \"#utility.yul\":10530:10539   */\n      dup3\n        /* \"#utility.yul\":10526:10544   */\n      add\n        /* \"#utility.yul\":10518:10544   */\n      swap1\n      pop\n        /* \"#utility.yul\":10590:10599   */\n      dup2\n        /* \"#utility.yul\":10584:10588   */\n      dup2\n        /* \"#utility.yul\":10580:10600   */\n      sub\n        /* \"#utility.yul\":10576:10577   */\n      0x00\n        /* \"#utility.yul\":10565:10574   */\n      dup4\n        /* \"#utility.yul\":10561:10578   */\n      add\n        /* \"#utility.yul\":10554:10601   */\n      mstore\n        /* \"#utility.yul\":10618:10749   */\n      tag_474\n        /* \"#utility.yul\":10744:10748   */\n      dup2\n        /* \"#utility.yul\":10618:10749   */\n      tag_338\n      jump\t// in\n    tag_474:\n        /* \"#utility.yul\":10610:10749   */\n      swap1\n      pop\n        /* \"#utility.yul\":10337:10756   */\n      swap2\n      swap1\n      pop\n      jump\t// out\n        /* \"#utility.yul\":10762:10940   */\n    tag_339:\n        /* \"#utility.yul\":10902:10932   */\n      0x54686520766f7465722068617320616c726561647920766f7465642100000000\n        /* \"#utility.yul\":10898:10899   */\n      0x00\n        /* \"#utility.yul\":10890:10896   */\n      dup3\n        /* \"#utility.yul\":10886:10900   */\n      add\n        /* \"#utility.yul\":10879:10933   */\n      mstore\n        /* \"#utility.yul\":10762:10940   */\n      pop\n      jump\t// out\n        /* \"#utility.yul\":10946:11312   */\n    tag_340:\n        /* \"#utility.yul\":11088:11091   */\n      0x00\n        /* \"#utility.yul\":11109:11176   */\n      tag_477\n        /* \"#utility.yul\":11173:11175   */\n      0x1c\n        /* \"#utility.yul\":11168:11171   */\n      dup4\n        /* \"#utility.yul\":11109:11176   */\n      tag_334\n      jump\t// in\n    tag_477:\n        /* \"#utility.yul\":11102:11176   */\n      swap2\n      pop\n        /* \"#utility.yul\":11185:11278   */\n      tag_478\n        /* \"#utility.yul\":11274:11277   */\n      dup3\n        /* \"#utility.yul\":11185:11278   */\n      tag_339\n      jump\t// in\n    tag_478:\n        /* \"#utility.yul\":11303:11305   */\n      0x20\n        /* \"#utility.yul\":11298:11301   */\n      dup3\n        /* \"#utility.yul\":11294:11306   */\n      add\n        /* \"#utility.yul\":11287:11306   */\n      swap1\n      pop\n        /* \"#utility.yul\":10946:11312   */\n      swap2\n      swap1\n      pop\n      jump\t// out\n        /* \"#utility.yul\":11318:11737   */\n    tag_72:\n        /* \"#utility.yul\":11484:11488   */\n      0x00\n        /* \"#utility.yul\":11522:11524   */\n      0x20\n        /* \"#utility.yul\":11511:11520   */\n      dup3\n        /* \"#utility.yul\":11507:11525   */\n      add\n        /* \"#utility.yul\":11499:11525   */\n      swap1\n      pop\n        /* \"#utility.yul\":11571:11580   */\n      dup2\n        /* \"#utility.yul\":11565:11569   */\n      dup2\n        /* \"#utility.yul\":11561:11581   */\n      sub\n        /* \"#utility.yul\":11557:11558   */\n      0x00\n        /* \"#utility.yul\":11546:11555   */\n      dup4\n        /* \"#utility.yul\":11542:11559   */\n      add\n        /* \"#utility.yul\":11535:11582   */\n      mstore\n        /* \"#utility.yul\":11599:11730   */\n      tag_480\n        /* \"#utility.yul\":11725:11729   */\n      dup2\n        /* \"#utility.yul\":11599:11730   */\n      tag_340\n      jump\t// in\n    tag_480:\n        /* \"#utility.yul\":11591:11730   */\n      swap1\n      pop\n        /* \"#utility.yul\":11318:11737   */\n      swap2\n      swap1\n      pop\n      jump\t// out\n        /* \"#utility.yul\":11743:11920   */\n    tag_341:\n        /* \"#utility.yul\":11883:11912   */\n      0x5468652070726f706f73616c20646f65736e2774206578697374210000000000\n        /* \"#utility.yul\":11879:11880   */\n      0x00\n        /* \"#utility.yul\":11871:11877   */\n      dup3\n        /* \"#utility.yul\":11867:11881   */\n      add\n        /* \"#utility.yul\":11860:11913   */\n      mstore\n        /* \"#utility.yul\":11743:11920   */\n      pop\n      jump\t// out\n        /* \"#utility.yul\":11926:12292   */\n    tag_342:\n        /* \"#utility.yul\":12068:12071   */\n      0x00\n        /* \"#utility.yul\":12089:12156   */\n      tag_483\n        /* \"#utility.yul\":12153:12155   */\n      0x1b\n        /* \"#utility.yul\":12148:12151   */\n      dup4\n        /* \"#utility.yul\":12089:12156   */\n      tag_334\n      jump\t// in\n    tag_483:\n        /* \"#utility.yul\":12082:12156   */\n      swap2\n      pop\n        /* \"#utility.yul\":12165:12258   */\n      tag_484\n        /* \"#utility.yul\":12254:12257   */\n      dup3\n        /* \"#utility.yul\":12165:12258   */\n      tag_341\n      jump\t// in\n    tag_484:\n        /* \"#utility.yul\":12283:12285   */\n      0x20\n        /* \"#utility.yul\":12278:12281   */\n      dup3\n        /* \"#utility.yul\":12274:12286   */\n      add\n        /* \"#utility.yul\":12267:12286   */\n      swap1\n      pop\n        /* \"#utility.yul\":11926:12292   */\n      swap2\n      swap1\n      pop\n      jump\t// out\n        /* \"#utility.yul\":12298:12717   */\n    tag_75:\n        /* \"#utility.yul\":12464:12468   */\n      0x00\n        /* \"#utility.yul\":12502:12504   */\n      0x20\n        /* \"#utility.yul\":12491:12500   */\n      dup3\n        /* \"#utility.yul\":12487:12505   */\n      add\n        /* \"#utility.yul\":12479:12505   */\n      swap1\n      pop\n        /* \"#utility.yul\":12551:12560   */\n      dup2\n        /* \"#utility.yul\":12545:12549   */\n      dup2\n        /* \"#utility.yul\":12541:12561   */\n      sub\n        /* \"#utility.yul\":12537:12538   */\n      0x00\n        /* \"#utility.yul\":12526:12535   */\n      dup4\n        /* \"#utility.yul\":12522:12539   */\n      add\n        /* \"#utility.yul\":12515:12562   */\n      mstore\n        /* \"#utility.yul\":12579:12710   */\n      tag_486\n        /* \"#utility.yul\":12705:12709   */\n      dup2\n        /* \"#utility.yul\":12579:12710   */\n      tag_342\n      jump\t// in\n    tag_486:\n        /* \"#utility.yul\":12571:12710   */\n      swap1\n      pop\n        /* \"#utility.yul\":12298:12717   */\n      swap2\n      swap1\n      pop\n      jump\t// out\n        /* \"#utility.yul\":12723:12903   */\n    tag_78:\n        /* \"#utility.yul\":12771:12848   */\n      0x4e487b7100000000000000000000000000000000000000000000000000000000\n        /* \"#utility.yul\":12768:12769   */\n      0x00\n        /* \"#utility.yul\":12761:12849   */\n      mstore\n        /* \"#utility.yul\":12868:12872   */\n      0x32\n        /* \"#utility.yul\":12865:12866   */\n      0x04\n        /* \"#utility.yul\":12858:12873   */\n      mstore\n        /* \"#utility.yul\":12892:12896   */\n      0x24\n        /* \"#utility.yul\":12889:12890   */\n      0x00\n        /* \"#utility.yul\":12882:12897   */\n      revert\n        /* \"#utility.yul\":12909:13089   */\n    tag_343:\n        /* \"#utility.yul\":12957:13034   */\n      0x4e487b7100000000000000000000000000000000000000000000000000000000\n        /* \"#utility.yul\":12954:12955   */\n      0x00\n        /* \"#utility.yul\":12947:13035   */\n      mstore\n        /* \"#utility.yul\":13054:13058   */\n      0x11\n        /* \"#utility.yul\":13051:13052   */\n      0x04\n        /* \"#utility.yul\":13044:13059   */\n      mstore\n        /* \"#utility.yul\":13078:13082   */\n      0x24\n        /* \"#utility.yul\":13075:13076   */\n      0x00\n        /* \"#utility.yul\":13068:13083   */\n      revert\n        /* \"#utility.yul\":13095:13286   */\n    tag_81:\n        /* \"#utility.yul\":13135:13138   */\n      0x00\n        /* \"#utility.yul\":13154:13174   */\n      tag_490\n        /* \"#utility.yul\":13172:13173   */\n      dup3\n        /* \"#utility.yul\":13154:13174   */\n      tag_306\n      jump\t// in\n    tag_490:\n        /* \"#utility.yul\":13149:13174   */\n      swap2\n      pop\n        /* \"#utility.yul\":13188:13208   */\n      tag_491\n        /* \"#utility.yul\":13206:13207   */\n      dup4\n        /* \"#utility.yul\":13188:13208   */\n      tag_306\n      jump\t// in\n    tag_491:\n        /* \"#utility.yul\":13183:13208   */\n      swap3\n      pop\n        /* \"#utility.yul\":13231:13232   */\n      dup3\n        /* \"#utility.yul\":13228:13229   */\n      dup3\n        /* \"#utility.yul\":13224:13233   */\n      add\n        /* \"#utility.yul\":13217:13233   */\n      swap1\n      pop\n        /* \"#utility.yul\":13252:13255   */\n      dup1\n        /* \"#utility.yul\":13249:13250   */\n      dup3\n        /* \"#utility.yul\":13246:13256   */\n      gt\n        /* \"#utility.yul\":13243:13279   */\n      iszero\n      tag_492\n      jumpi\n        /* \"#utility.yul\":13259:13277   */\n      tag_493\n      tag_343\n      jump\t// in\n    tag_493:\n        /* \"#utility.yul\":13243:13279   */\n    tag_492:\n        /* \"#utility.yul\":13095:13286   */\n      swap3\n      swap2\n      pop\n      pop\n      jump\t// out\n        /* \"#utility.yul\":13292:13624   */\n    tag_83:\n        /* \"#utility.yul\":13413:13417   */\n      0x00\n        /* \"#utility.yul\":13451:13453   */\n      0x40\n        /* \"#utility.yul\":13440:13449   */\n      dup3\n        /* \"#utility.yul\":13436:13454   */\n      add\n        /* \"#utility.yul\":13428:13454   */\n      swap1\n      pop\n        /* \"#utility.yul\":13464:13535   */\n      tag_495\n        /* \"#utility.yul\":13532:13533   */\n      0x00\n        /* \"#utility.yul\":13521:13530   */\n      dup4\n        /* \"#utility.yul\":13517:13534   */\n      add\n        /* \"#utility.yul\":13508:13514   */\n      dup6\n        /* \"#utility.yul\":13464:13535   */\n      tag_322\n      jump\t// in\n    tag_495:\n        /* \"#utility.yul\":13545:13617   */\n      tag_496\n        /* \"#utility.yul\":13613:13615   */\n      0x20\n        /* \"#utility.yul\":13602:13611   */\n      dup4\n        /* \"#utility.yul\":13598:13616   */\n      add\n        /* \"#utility.yul\":13589:13595   */\n      dup5\n        /* \"#utility.yul\":13545:13617   */\n      tag_333\n      jump\t// in\n    tag_496:\n        /* \"#utility.yul\":13292:13624   */\n      swap4\n      swap3\n      pop\n      pop\n      pop\n      jump\t// out\n        /* \"#utility.yul\":13630:13753   */\n    tag_344:\n        /* \"#utility.yul\":13721:13722   */\n      0x06\n        /* \"#utility.yul\":13714:13719   */\n      dup2\n        /* \"#utility.yul\":13711:13723   */\n      lt\n        /* \"#utility.yul\":13701:13747   */\n      tag_498\n      jumpi\n        /* \"#utility.yul\":13727:13745   */\n      tag_499\n      tag_60\n      jump\t// in\n    tag_499:\n        /* \"#utility.yul\":13701:13747   */\n    tag_498:\n        /* \"#utility.yul\":13630:13753   */\n      pop\n      jump\t// out\n        /* \"#utility.yul\":13759:13906   */\n    tag_345:\n        /* \"#utility.yul\":13814:13821   */\n      0x00\n        /* \"#utility.yul\":13843:13848   */\n      dup2\n        /* \"#utility.yul\":13832:13848   */\n      swap1\n      pop\n        /* \"#utility.yul\":13849:13900   */\n      tag_501\n        /* \"#utility.yul\":13894:13899   */\n      dup3\n        /* \"#utility.yul\":13849:13900   */\n      tag_344\n      jump\t// in\n    tag_501:\n        /* \"#utility.yul\":13759:13906   */\n      swap2\n      swap1\n      pop\n      jump\t// out\n        /* \"#utility.yul\":13912:14059   */\n    tag_346:\n        /* \"#utility.yul\":13978:13987   */\n      0x00\n        /* \"#utility.yul\":14011:14053   */\n      tag_503\n        /* \"#utility.yul\":14047:14052   */\n      dup3\n        /* \"#utility.yul\":14011:14053   */\n      tag_345\n      jump\t// in\n    tag_503:\n        /* \"#utility.yul\":13998:14053   */\n      swap1\n      pop\n        /* \"#utility.yul\":13912:14059   */\n      swap2\n      swap1\n      pop\n      jump\t// out\n        /* \"#utility.yul\":14065:14228   */\n    tag_347:\n        /* \"#utility.yul\":14168:14221   */\n      tag_505\n        /* \"#utility.yul\":14215:14220   */\n      dup2\n        /* \"#utility.yul\":14168:14221   */\n      tag_346\n      jump\t// in\n    tag_505:\n        /* \"#utility.yul\":14163:14166   */\n      dup3\n        /* \"#utility.yul\":14156:14222   */\n      mstore\n        /* \"#utility.yul\":14065:14228   */\n      pop\n      pop\n      jump\t// out\n        /* \"#utility.yul\":14234:14630   */\n    tag_98:\n        /* \"#utility.yul\":14387:14391   */\n      0x00\n        /* \"#utility.yul\":14425:14427   */\n      0x40\n        /* \"#utility.yul\":14414:14423   */\n      dup3\n        /* \"#utility.yul\":14410:14428   */\n      add\n        /* \"#utility.yul\":14402:14428   */\n      swap1\n      pop\n        /* \"#utility.yul\":14438:14525   */\n      tag_507\n        /* \"#utility.yul\":14522:14523   */\n      0x00\n        /* \"#utility.yul\":14511:14520   */\n      dup4\n        /* \"#utility.yul\":14507:14524   */\n      add\n        /* \"#utility.yul\":14498:14504   */\n      dup6\n        /* \"#utility.yul\":14438:14525   */\n      tag_347\n      jump\t// in\n    tag_507:\n        /* \"#utility.yul\":14535:14623   */\n      tag_508\n        /* \"#utility.yul\":14619:14621   */\n      0x20\n        /* \"#utility.yul\":14608:14617   */\n      dup4\n        /* \"#utility.yul\":14604:14622   */\n      add\n        /* \"#utility.yul\":14595:14601   */\n      dup5\n        /* \"#utility.yul\":14535:14623   */\n      tag_347\n      jump\t// in\n    tag_508:\n        /* \"#utility.yul\":14234:14630   */\n      swap4\n      swap3\n      pop\n      pop\n      pop\n      jump\t// out\n        /* \"#utility.yul\":14636:14816   */\n    tag_348:\n        /* \"#utility.yul\":14684:14761   */\n      0x4e487b7100000000000000000000000000000000000000000000000000000000\n        /* \"#utility.yul\":14681:14682   */\n      0x00\n        /* \"#utility.yul\":14674:14762   */\n      mstore\n        /* \"#utility.yul\":14781:14785   */\n      0x22\n        /* \"#utility.yul\":14778:14779   */\n      0x04\n        /* \"#utility.yul\":14771:14786   */\n      mstore\n        /* \"#utility.yul\":14805:14809   */\n      0x24\n        /* \"#utility.yul\":14802:14803   */\n      0x00\n        /* \"#utility.yul\":14795:14810   */\n      revert\n        /* \"#utility.yul\":14822:15142   */\n    tag_240:\n        /* \"#utility.yul\":14866:14872   */\n      0x00\n        /* \"#utility.yul\":14903:14904   */\n      0x02\n        /* \"#utility.yul\":14897:14901   */\n      dup3\n        /* \"#utility.yul\":14893:14905   */\n      div\n        /* \"#utility.yul\":14883:14905   */\n      swap1\n      pop\n        /* \"#utility.yul\":14950:14951   */\n      0x01\n        /* \"#utility.yul\":14944:14948   */\n      dup3\n        /* \"#utility.yul\":14940:14952   */\n      and\n        /* \"#utility.yul\":14971:14989   */\n      dup1\n        /* \"#utility.yul\":14961:15042   */\n      tag_511\n      jumpi\n        /* \"#utility.yul\":15027:15031   */\n      0x7f\n        /* \"#utility.yul\":15019:15025   */\n      dup3\n        /* \"#utility.yul\":15015:15032   */\n      and\n        /* \"#utility.yul\":15005:15032   */\n      swap2\n      pop\n        /* \"#utility.yul\":14961:15042   */\n    tag_511:\n        /* \"#utility.yul\":15089:15091   */\n      0x20\n        /* \"#utility.yul\":15081:15087   */\n      dup3\n        /* \"#utility.yul\":15078:15092   */\n      lt\n        /* \"#utility.yul\":15058:15076   */\n      dup2\n        /* \"#utility.yul\":15055:15093   */\n      sub\n        /* \"#utility.yul\":15052:15136   */\n      tag_512\n      jumpi\n        /* \"#utility.yul\":15108:15126   */\n      tag_513\n      tag_348\n      jump\t// in\n    tag_513:\n        /* \"#utility.yul\":15052:15136   */\n    tag_512:\n        /* \"#utility.yul\":14873:15142   */\n      pop\n        /* \"#utility.yul\":14822:15142   */\n      swap2\n      swap1\n      pop\n      jump\t// out\n        /* \"#utility.yul\":15148:15289   */\n    tag_349:\n        /* \"#utility.yul\":15197:15201   */\n      0x00\n        /* \"#utility.yul\":15220:15223   */\n      dup2\n        /* \"#utility.yul\":15212:15223   */\n      swap1\n      pop\n        /* \"#utility.yul\":15243:15246   */\n      dup2\n        /* \"#utility.yul\":15240:15241   */\n      0x00\n        /* \"#utility.yul\":15233:15247   */\n      mstore\n        /* \"#utility.yul\":15277:15281   */\n      0x20\n        /* \"#utility.yul\":15274:15275   */\n      0x00\n        /* \"#utility.yul\":15264:15282   */\n      keccak256\n        /* \"#utility.yul\":15256:15282   */\n      swap1\n      pop\n        /* \"#utility.yul\":15148:15289   */\n      swap2\n      swap1\n      pop\n      jump\t// out\n        /* \"#utility.yul\":15295:15388   */\n    tag_350:\n        /* \"#utility.yul\":15332:15338   */\n      0x00\n        /* \"#utility.yul\":15379:15381   */\n      0x20\n        /* \"#utility.yul\":15374:15376   */\n      0x1f\n        /* \"#utility.yul\":15367:15372   */\n      dup4\n        /* \"#utility.yul\":15363:15377   */\n      add\n        /* \"#utility.yul\":15359:15382   */\n      div\n        /* \"#utility.yul\":15349:15382   */\n      swap1\n      pop\n        /* \"#utility.yul\":15295:15388   */\n      swap2\n      swap1\n      pop\n      jump\t// out\n        /* \"#utility.yul\":15394:15501   */\n    tag_351:\n        /* \"#utility.yul\":15438:15446   */\n      0x00\n        /* \"#utility.yul\":15488:15493   */\n      dup3\n        /* \"#utility.yul\":15482:15486   */\n      dup3\n        /* \"#utility.yul\":15478:15494   */\n      shl\n        /* \"#utility.yul\":15457:15494   */\n      swap1\n      pop\n        /* \"#utility.yul\":15394:15501   */\n      swap3\n      swap2\n      pop\n      pop\n      jump\t// out\n        /* \"#utility.yul\":15507:15900   */\n    tag_352:\n        /* \"#utility.yul\":15576:15582   */\n      0x00\n        /* \"#utility.yul\":15626:15627   */\n      0x08\n        /* \"#utility.yul\":15614:15624   */\n      dup4\n        /* \"#utility.yul\":15610:15628   */\n      mul\n        /* \"#utility.yul\":15649:15746   */\n      tag_518\n        /* \"#utility.yul\":15679:15745   */\n      0xffffffffffffffffffffffffffffffffffffffffffffffffffffffffffffffff\n        /* \"#utility.yul\":15668:15677   */\n      dup3\n        /* \"#utility.yul\":15649:15746   */\n      tag_351\n      jump\t// in\n    tag_518:\n        /* \"#utility.yul\":15767:15806   */\n      tag_519\n        /* \"#utility.yul\":15797:15805   */\n      dup7\n        /* \"#utility.yul\":15786:15795   */\n      dup4\n        /* \"#utility.yul\":15767:15806   */\n      tag_351\n      jump\t// in\n    tag_519:\n        /* \"#utility.yul\":15755:15806   */\n      swap6\n      pop\n        /* \"#utility.yul\":15839:15843   */\n      dup1\n        /* \"#utility.yul\":15835:15844   */\n      not\n        /* \"#utility.yul\":15828:15833   */\n      dup5\n        /* \"#utility.yul\":15824:15845   */\n      and\n        /* \"#utility.yul\":15815:15845   */\n      swap4\n      pop\n        /* \"#utility.yul\":15888:15892   */\n      dup1\n        /* \"#utility.yul\":15878:15886   */\n      dup7\n        /* \"#utility.yul\":15874:15893   */\n      and\n        /* \"#utility.yul\":15867:15872   */\n      dup5\n        /* \"#utility.yul\":15864:15894   */\n      or\n        /* \"#utility.yul\":15854:15894   */\n      swap3\n      pop\n        /* \"#utility.yul\":15583:15900   */\n      pop\n      pop\n        /* \"#utility.yul\":15507:15900   */\n      swap4\n      swap3\n      pop\n      pop\n      pop\n      jump\t// out\n        /* \"#utility.yul\":15906:15966   */\n    tag_353:\n        /* \"#utility.yul\":15934:15937   */\n      0x00\n        /* \"#utility.yul\":15955:15960   */\n      dup2\n        /* \"#utility.yul\":15948:15960   */\n      swap1\n      pop\n        /* \"#utility.yul\":15906:15966   */\n      swap2\n      swap1\n      pop\n      jump\t// out\n        /* \"#utility.yul\":15972:16114   */\n    tag_354:\n        /* \"#utility.yul\":16022:16031   */\n      0x00\n        /* \"#utility.yul\":16055:16108   */\n      tag_522\n        /* \"#utility.yul\":16073:16107   */\n      tag_523\n        /* \"#utility.yul\":16082:16106   */\n      tag_524\n        /* \"#utility.yul\":16100:16105   */\n      dup5\n        /* \"#utility.yul\":16082:16106   */\n      tag_306\n      jump\t// in\n    tag_524:\n        /* \"#utility.yul\":16073:16107   */\n      tag_353\n      jump\t// in\n    tag_523:\n        /* \"#utility.yul\":16055:16108   */\n      tag_306\n      jump\t// in\n    tag_522:\n        /* \"#utility.yul\":16042:16108   */\n      swap1\n      pop\n        /* \"#utility.yul\":15972:16114   */\n      swap2\n      swap1\n      pop\n      jump\t// out\n        /* \"#utility.yul\":16120:16195   */\n    tag_355:\n        /* \"#utility.yul\":16163:16166   */\n      0x00\n        /* \"#utility.yul\":16184:16189   */\n      dup2\n        /* \"#utility.yul\":16177:16189   */\n      swap1\n      pop\n        /* \"#utility.yul\":16120:16195   */\n      swap2\n      swap1\n      pop\n      jump\t// out\n        /* \"#utility.yul\":16201:16470   */\n    tag_356:\n        /* \"#utility.yul\":16311:16350   */\n      tag_527\n        /* \"#utility.yul\":16342:16349   */\n      dup4\n        /* \"#utility.yul\":16311:16350   */\n      tag_354\n      jump\t// in\n    tag_527:\n        /* \"#utility.yul\":16372:16463   */\n      tag_528\n        /* \"#utility.yul\":16421:16462   */\n      tag_529\n        /* \"#utility.yul\":16445:16461   */\n      dup3\n        /* \"#utility.yul\":16421:16462   */\n      tag_355\n      jump\t// in\n    tag_529:\n        /* \"#utility.yul\":16413:16419   */\n      dup5\n        /* \"#utility.yul\":16406:16410   */\n      dup5\n        /* \"#utility.yul\":16400:16411   */\n      sload\n        /* \"#utility.yul\":16372:16463   */\n      tag_352\n      jump\t// in\n    tag_528:\n        /* \"#utility.yul\":16366:16370   */\n      dup3\n        /* \"#utility.yul\":16359:16464   */\n      sstore\n        /* \"#utility.yul\":16277:16470   */\n      pop\n        /* \"#utility.yul\":16201:16470   */\n      pop\n      pop\n      pop\n      jump\t// out\n        /* \"#utility.yul\":16476:16549   */\n    tag_357:\n        /* \"#utility.yul\":16521:16524   */\n      0x00\n        /* \"#utility.yul\":16476:16549   */\n      swap1\n      jump\t// out\n        /* \"#utility.yul\":16555:16744   */\n    tag_358:\n        /* \"#utility.yul\":16632:16664   */\n      tag_532\n      tag_357\n      jump\t// in\n    tag_532:\n        /* \"#utility.yul\":16673:16738   */\n      tag_533\n        /* \"#utility.yul\":16731:16737   */\n      dup2\n        /* \"#utility.yul\":16723:16729   */\n      dup5\n        /* \"#utility.yul\":16717:16721   */\n      dup5\n        /* \"#utility.yul\":16673:16738   */\n      tag_356\n      jump\t// in\n    tag_533:\n        /* \"#utility.yul\":16608:16744   */\n      pop\n        /* \"#utility.yul\":16555:16744   */\n      pop\n      pop\n      jump\t// out\n        /* \"#utility.yul\":16750:16936   */\n    tag_359:\n        /* \"#utility.yul\":16810:16930   */\n    tag_535:\n        /* \"#utility.yul\":16827:16830   */\n      dup2\n        /* \"#utility.yul\":16820:16825   */\n      dup2\n        /* \"#utility.yul\":16817:16831   */\n      lt\n        /* \"#utility.yul\":16810:16930   */\n      iszero\n      tag_537\n      jumpi\n        /* \"#utility.yul\":16881:16920   */\n      tag_538\n        /* \"#utility.yul\":16918:16919   */\n      0x00\n        /* \"#utility.yul\":16911:16916   */\n      dup3\n        /* \"#utility.yul\":16881:16920   */\n      tag_358\n      jump\t// in\n    tag_538:\n        /* \"#utility.yul\":16854:16855   */\n      0x01\n        /* \"#utility.yul\":16847:16852   */\n      dup2\n        /* \"#utility.yul\":16843:16856   */\n      add\n        /* \"#utility.yul\":16834:16856   */\n      swap1\n      pop\n        /* \"#utility.yul\":16810:16930   */\n      jump(tag_535)\n    tag_537:\n        /* \"#utility.yul\":16750:16936   */\n      pop\n      pop\n      jump\t// out\n        /* \"#utility.yul\":16942:17485   */\n    tag_360:\n        /* \"#utility.yul\":17043:17045   */\n      0x1f\n        /* \"#utility.yul\":17038:17041   */\n      dup3\n        /* \"#utility.yul\":17035:17046   */\n      gt\n        /* \"#utility.yul\":17032:17478   */\n      iszero\n      tag_540\n      jumpi\n        /* \"#utility.yul\":17077:17115   */\n      tag_541\n        /* \"#utility.yul\":17109:17114   */\n      dup2\n        /* \"#utility.yul\":17077:17115   */\n      tag_349\n      jump\t// in\n    tag_541:\n        /* \"#utility.yul\":17161:17190   */\n      tag_542\n        /* \"#utility.yul\":17179:17189   */\n      dup5\n        /* \"#utility.yul\":17161:17190   */\n      tag_350\n      jump\t// in\n    tag_542:\n        /* \"#utility.yul\":17151:17159   */\n      dup2\n        /* \"#utility.yul\":17147:17191   */\n      add\n        /* \"#utility.yul\":17344:17346   */\n      0x20\n        /* \"#utility.yul\":17332:17342   */\n      dup6\n        /* \"#utility.yul\":17329:17347   */\n      lt\n        /* \"#utility.yul\":17326:17375   */\n      iszero\n      tag_543\n      jumpi\n        /* \"#utility.yul\":17365:17373   */\n      dup2\n        /* \"#utility.yul\":17350:17373   */\n      swap1\n      pop\n        /* \"#utility.yul\":17326:17375   */\n    tag_543:\n        /* \"#utility.yul\":17388:17468   */\n      tag_544\n        /* \"#utility.yul\":17444:17466   */\n      tag_545\n        /* \"#utility.yul\":17462:17465   */\n      dup6\n        /* \"#utility.yul\":17444:17466   */\n      tag_350\n      jump\t// in\n    tag_545:\n        /* \"#utility.yul\":17434:17442   */\n      dup4\n        /* \"#utility.yul\":17430:17467   */\n      add\n        /* \"#utility.yul\":17417:17428   */\n      dup3\n        /* \"#utility.yul\":17388:17468   */\n      tag_359\n      jump\t// in\n    tag_544:\n        /* \"#utility.yul\":17047:17478   */\n      pop\n      pop\n        /* \"#utility.yul\":17032:17478   */\n    tag_540:\n        /* \"#utility.yul\":16942:17485   */\n      pop\n      pop\n      pop\n      jump\t// out\n        /* \"#utility.yul\":17491:17608   */\n    tag_361:\n        /* \"#utility.yul\":17545:17553   */\n      0x00\n        /* \"#utility.yul\":17595:17600   */\n      dup3\n        /* \"#utility.yul\":17589:17593   */\n      dup3\n        /* \"#utility.yul\":17585:17601   */\n      shr\n        /* \"#utility.yul\":17564:17601   */\n      swap1\n      pop\n        /* \"#utility.yul\":17491:17608   */\n      swap3\n      swap2\n      pop\n      pop\n      jump\t// out\n        /* \"#utility.yul\":17614:17783   */\n    tag_362:\n        /* \"#utility.yul\":17658:17664   */\n      0x00\n        /* \"#utility.yul\":17691:17742   */\n      tag_548\n        /* \"#utility.yul\":17739:17740   */\n      0x00\n        /* \"#utility.yul\":17735:17741   */\n      not\n        /* \"#utility.yul\":17727:17732   */\n      dup5\n        /* \"#utility.yul\":17724:17725   */\n      0x08\n        /* \"#utility.yul\":17720:17733   */\n      mul\n        /* \"#utility.yul\":17691:17742   */\n      tag_361\n      jump\t// in\n    tag_548:\n        /* \"#utility.yul\":17687:17743   */\n      not\n        /* \"#utility.yul\":17772:17776   */\n      dup1\n        /* \"#utility.yul\":17766:17770   */\n      dup4\n        /* \"#utility.yul\":17762:17777   */\n      and\n        /* \"#utility.yul\":17752:17777   */\n      swap2\n      pop\n        /* \"#utility.yul\":17665:17783   */\n      pop\n        /* \"#utility.yul\":17614:17783   */\n      swap3\n      swap2\n      pop\n      pop\n      jump\t// out\n        /* \"#utility.yul\":17788:18083   */\n    tag_363:\n        /* \"#utility.yul\":17864:17868   */\n      0x00\n        /* \"#utility.yul\":18010:18039   */\n      tag_550\n        /* \"#utility.yul\":18035:18038   */\n      dup4\n        /* \"#utility.yul\":18029:18033   */\n      dup4\n        /* \"#utility.yul\":18010:18039   */\n      tag_362\n      jump\t// in\n    tag_550:\n        /* \"#utility.yul\":18002:18039   */\n      swap2\n      pop\n        /* \"#utility.yul\":18072:18075   */\n      dup3\n        /* \"#utility.yul\":18069:18070   */\n      0x02\n        /* \"#utility.yul\":18065:18076   */\n      mul\n        /* \"#utility.yul\":18059:18063   */\n      dup3\n        /* \"#utility.yul\":18056:18077   */\n      or\n        /* \"#utility.yul\":18048:18077   */\n      swap1\n      pop\n        /* \"#utility.yul\":17788:18083   */\n      swap3\n      swap2\n      pop\n      pop\n      jump\t// out\n        /* \"#utility.yul\":18088:19483   */\n    tag_126:\n        /* \"#utility.yul\":18205:18242   */\n      tag_552\n        /* \"#utility.yul\":18238:18241   */\n      dup3\n        /* \"#utility.yul\":18205:18242   */\n      tag_326\n      jump\t// in\n    tag_552:\n        /* \"#utility.yul\":18307:18325   */\n      0xffffffffffffffff\n        /* \"#utility.yul\":18299:18305   */\n      dup2\n        /* \"#utility.yul\":18296:18326   */\n      gt\n        /* \"#utility.yul\":18293:18349   */\n      iszero\n      tag_553\n      jumpi\n        /* \"#utility.yul\":18329:18347   */\n      tag_554\n      tag_230\n      jump\t// in\n    tag_554:\n        /* \"#utility.yul\":18293:18349   */\n    tag_553:\n        /* \"#utility.yul\":18373:18411   */\n      tag_555\n        /* \"#utility.yul\":18405:18409   */\n      dup3\n        /* \"#utility.yul\":18399:18410   */\n      sload\n        /* \"#utility.yul\":18373:18411   */\n      tag_240\n      jump\t// in\n    tag_555:\n        /* \"#utility.yul\":18458:18525   */\n      tag_556\n        /* \"#utility.yul\":18518:18524   */\n      dup3\n        /* \"#utility.yul\":18510:18516   */\n      dup3\n        /* \"#utility.yul\":18504:18508   */\n      dup6\n        /* \"#utility.yul\":18458:18525   */\n      tag_360\n      jump\t// in\n    tag_556:\n        /* \"#utility.yul\":18552:18553   */\n      0x00\n        /* \"#utility.yul\":18576:18580   */\n      0x20\n        /* \"#utility.yul\":18563:18580   */\n      swap1\n      pop\n        /* \"#utility.yul\":18608:18610   */\n      0x1f\n        /* \"#utility.yul\":18600:18606   */\n      dup4\n        /* \"#utility.yul\":18597:18611   */\n      gt\n        /* \"#utility.yul\":18625:18626   */\n      0x01\n        /* \"#utility.yul\":18620:19238   */\n      dup2\n      eq\n      tag_558\n      jumpi\n        /* \"#utility.yul\":19282:19283   */\n      0x00\n        /* \"#utility.yul\":19299:19305   */\n      dup5\n        /* \"#utility.yul\":19296:19373   */\n      iszero\n      tag_559\n      jumpi\n        /* \"#utility.yul\":19348:19357   */\n      dup3\n        /* \"#utility.yul\":19343:19346   */\n      dup8\n        /* \"#utility.yul\":19339:19358   */\n      add\n        /* \"#utility.yul\":19333:19359   */\n      mload\n        /* \"#utility.yul\":19324:19359   */\n      swap1\n      pop\n        /* \"#utility.yul\":19296:19373   */\n    tag_559:\n        /* \"#utility.yul\":19399:19466   */\n      tag_560\n        /* \"#utility.yul\":19459:19465   */\n      dup6\n        /* \"#utility.yul\":19452:19457   */\n      dup3\n        /* \"#utility.yul\":19399:19466   */\n      tag_363\n      jump\t// in\n    tag_560:\n        /* \"#utility.yul\":19393:19397   */\n      dup7\n        /* \"#utility.yul\":19386:19467   */\n      sstore\n        /* \"#utility.yul\":19255:19477   */\n      pop\n        /* \"#utility.yul\":18590:19477   */\n      jump(tag_557)\n        /* \"#utility.yul\":18620:19238   */\n    tag_558:\n        /* \"#utility.yul\":18672:18676   */\n      0x1f\n        /* \"#utility.yul\":18668:18677   */\n      not\n        /* \"#utility.yul\":18660:18666   */\n      dup5\n        /* \"#utility.yul\":18656:18678   */\n      and\n        /* \"#utility.yul\":18706:18743   */\n      tag_561\n        /* \"#utility.yul\":18738:18742   */\n      dup7\n        /* \"#utility.yul\":18706:18743   */\n      tag_349\n      jump\t// in\n    tag_561:\n        /* \"#utility.yul\":18765:18766   */\n      0x00\n        /* \"#utility.yul\":18779:18987   */\n    tag_562:\n        /* \"#utility.yul\":18793:18800   */\n      dup3\n        /* \"#utility.yul\":18790:18791   */\n      dup2\n        /* \"#utility.yul\":18787:18801   */\n      lt\n        /* \"#utility.yul\":18779:18987   */\n      iszero\n      tag_564\n      jumpi\n        /* \"#utility.yul\":18872:18881   */\n      dup5\n        /* \"#utility.yul\":18867:18870   */\n      dup10\n        /* \"#utility.yul\":18863:18882   */\n      add\n        /* \"#utility.yul\":18857:18883   */\n      mload\n        /* \"#utility.yul\":18849:18855   */\n      dup3\n        /* \"#utility.yul\":18842:18884   */\n      sstore\n        /* \"#utility.yul\":18923:18924   */\n      0x01\n        /* \"#utility.yul\":18915:18921   */\n      dup3\n        /* \"#utility.yul\":18911:18925   */\n      add\n        /* \"#utility.yul\":18901:18925   */\n      swap2\n      pop\n        /* \"#utility.yul\":18970:18972   */\n      0x20\n        /* \"#utility.yul\":18959:18968   */\n      dup6\n        /* \"#utility.yul\":18955:18973   */\n      add\n        /* \"#utility.yul\":18942:18973   */\n      swap5\n      pop\n        /* \"#utility.yul\":18816:18820   */\n      0x20\n        /* \"#utility.yul\":18813:18814   */\n      dup2\n        /* \"#utility.yul\":18809:18821   */\n      add\n        /* \"#utility.yul\":18804:18821   */\n      swap1\n      pop\n        /* \"#utility.yul\":18779:18987   */\n      jump(tag_562)\n    tag_564:\n        /* \"#utility.yul\":19015:19021   */\n      dup7\n        /* \"#utility.yul\":19006:19013   */\n      dup4\n        /* \"#utility.yul\":19003:19022   */\n      lt\n        /* \"#utility.yul\":19000:19179   */\n      iszero\n      tag_565\n      jumpi\n        /* \"#utility.yul\":19073:19082   */\n      dup5\n        /* \"#utility.yul\":19068:19071   */\n      dup10\n        /* \"#utility.yul\":19064:19083   */\n      add\n        /* \"#utility.yul\":19058:19084   */\n      mload\n        /* \"#utility.yul\":19116:19164   */\n      tag_566\n        /* \"#utility.yul\":19158:19162   */\n      0x1f\n        /* \"#utility.yul\":19150:19156   */\n      dup10\n        /* \"#utility.yul\":19146:19163   */\n      and\n        /* \"#utility.yul\":19135:19144   */\n      dup3\n        /* \"#utility.yul\":19116:19164   */\n      tag_362\n      jump\t// in\n    tag_566:\n        /* \"#utility.yul\":19108:19114   */\n      dup4\n        /* \"#utility.yul\":19101:19165   */\n      sstore\n        /* \"#utility.yul\":19023:19179   */\n      pop\n        /* \"#utility.yul\":19000:19179   */\n    tag_565:\n        /* \"#utility.yul\":19225:19226   */\n      0x01\n        /* \"#utility.yul\":19221:19222   */\n      0x02\n        /* \"#utility.yul\":19213:19219   */\n      dup9\n        /* \"#utility.yul\":19209:19223   */\n      mul\n        /* \"#utility.yul\":19205:19227   */\n      add\n        /* \"#utility.yul\":19199:19203   */\n      dup9\n        /* \"#utility.yul\":19192:19228   */\n      sstore\n        /* \"#utility.yul\":18627:19238   */\n      pop\n      pop\n      pop\n        /* \"#utility.yul\":18590:19477   */\n    tag_557:\n      pop\n        /* \"#utility.yul\":18180:19483   */\n      pop\n      pop\n      pop\n        /* \"#utility.yul\":18088:19483   */\n      pop\n      pop\n      jump\t// out\n        /* \"#utility.yul\":19489:19683   */\n    tag_128:\n        /* \"#utility.yul\":19529:19533   */\n      0x00\n        /* \"#utility.yul\":19549:19569   */\n      tag_568\n        /* \"#utility.yul\":19567:19568   */\n      dup3\n        /* \"#utility.yul\":19549:19569   */\n      tag_306\n      jump\t// in\n    tag_568:\n        /* \"#utility.yul\":19544:19569   */\n      swap2\n      pop\n        /* \"#utility.yul\":19583:19603   */\n      tag_569\n        /* \"#utility.yul\":19601:19602   */\n      dup4\n        /* \"#utility.yul\":19583:19603   */\n      tag_306\n      jump\t// in\n    tag_569:\n        /* \"#utility.yul\":19578:19603   */\n      swap3\n      pop\n        /* \"#utility.yul\":19627:19628   */\n      dup3\n        /* \"#utility.yul\":19624:19625   */\n      dup3\n        /* \"#utility.yul\":19620:19629   */\n      sub\n        /* \"#utility.yul\":19612:19629   */\n      swap1\n      pop\n        /* \"#utility.yul\":19651:19652   */\n      dup2\n        /* \"#utility.yul\":19645:19649   */\n      dup2\n        /* \"#utility.yul\":19642:19653   */\n      gt\n        /* \"#utility.yul\":19639:19676   */\n      iszero\n      tag_570\n      jumpi\n        /* \"#utility.yul\":19656:19674   */\n      tag_571\n      tag_343\n      jump\t// in\n    tag_571:\n        /* \"#utility.yul\":19639:19676   */\n    tag_570:\n        /* \"#utility.yul\":19489:19683   */\n      swap3\n      swap2\n      pop\n      pop\n      jump\t// out\n        /* \"#utility.yul\":19689:19871   */\n    tag_364:\n        /* \"#utility.yul\":19829:19863   */\n      0x54686520766f74657220697320616c7265616479207265676973746572656421\n        /* \"#utility.yul\":19825:19826   */\n      0x00\n        /* \"#utility.yul\":19817:19823   */\n      dup3\n        /* \"#utility.yul\":19813:19827   */\n      add\n        /* \"#utility.yul\":19806:19864   */\n      mstore\n        /* \"#utility.yul\":19689:19871   */\n      pop\n      jump\t// out\n        /* \"#utility.yul\":19877:20243   */\n    tag_365:\n        /* \"#utility.yul\":20019:20022   */\n      0x00\n        /* \"#utility.yul\":20040:20107   */\n      tag_574\n        /* \"#utility.yul\":20104:20106   */\n      0x20\n        /* \"#utility.yul\":20099:20102   */\n      dup4\n        /* \"#utility.yul\":20040:20107   */\n      tag_334\n      jump\t// in\n    tag_574:\n        /* \"#utility.yul\":20033:20107   */\n      swap2\n      pop\n        /* \"#utility.yul\":20116:20209   */\n      tag_575\n        /* \"#utility.yul\":20205:20208   */\n      dup3\n        /* \"#utility.yul\":20116:20209   */\n      tag_364\n      jump\t// in\n    tag_575:\n        /* \"#utility.yul\":20234:20236   */\n      0x20\n        /* \"#utility.yul\":20229:20232   */\n      dup3\n        /* \"#utility.yul\":20225:20237   */\n      add\n        /* \"#utility.yul\":20218:20237   */\n      swap1\n      pop\n        /* \"#utility.yul\":19877:20243   */\n      swap2\n      swap1\n      pop\n      jump\t// out\n        /* \"#utility.yul\":20249:20668   */\n    tag_142:\n        /* \"#utility.yul\":20415:20419   */\n      0x00\n        /* \"#utility.yul\":20453:20455   */\n      0x20\n        /* \"#utility.yul\":20442:20451   */\n      dup3\n        /* \"#utility.yul\":20438:20456   */\n      add\n        /* \"#utility.yul\":20430:20456   */\n      swap1\n      pop\n        /* \"#utility.yul\":20502:20511   */\n      dup2\n        /* \"#utility.yul\":20496:20500   */\n      dup2\n        /* \"#utility.yul\":20492:20512   */\n      sub\n        /* \"#utility.yul\":20488:20489   */\n      0x00\n        /* \"#utility.yul\":20477:20486   */\n      dup4\n        /* \"#utility.yul\":20473:20490   */\n      add\n        /* \"#utility.yul\":20466:20513   */\n      mstore\n        /* \"#utility.yul\":20530:20661   */\n      tag_577\n        /* \"#utility.yul\":20656:20660   */\n      dup2\n        /* \"#utility.yul\":20530:20661   */\n      tag_365\n      jump\t// in\n    tag_577:\n        /* \"#utility.yul\":20522:20661   */\n      swap1\n      pop\n        /* \"#utility.yul\":20249:20668   */\n      swap2\n      swap1\n      pop\n      jump\t// out\n        /* \"#utility.yul\":20674:20907   */\n    tag_185:\n        /* \"#utility.yul\":20713:20716   */\n      0x00\n        /* \"#utility.yul\":20736:20760   */\n      tag_579\n        /* \"#utility.yul\":20754:20759   */\n      dup3\n        /* \"#utility.yul\":20736:20760   */\n      tag_306\n      jump\t// in\n    tag_579:\n        /* \"#utility.yul\":20727:20760   */\n      swap2\n      pop\n        /* \"#utility.yul\":20782:20848   */\n      0xffffffffffffffffffffffffffffffffffffffffffffffffffffffffffffffff\n        /* \"#utility.yul\":20775:20780   */\n      dup3\n        /* \"#utility.yul\":20772:20849   */\n      sub\n        /* \"#utility.yul\":20769:20872   */\n      tag_580\n      jumpi\n        /* \"#utility.yul\":20852:20870   */\n      tag_581\n      tag_343\n      jump\t// in\n    tag_581:\n        /* \"#utility.yul\":20769:20872   */\n    tag_580:\n        /* \"#utility.yul\":20899:20900   */\n      0x01\n        /* \"#utility.yul\":20892:20897   */\n      dup3\n        /* \"#utility.yul\":20888:20901   */\n      add\n        /* \"#utility.yul\":20881:20901   */\n      swap1\n      pop\n        /* \"#utility.yul\":20674:20907   */\n      swap2\n      swap1\n      pop\n      jump\t// out\n        /* \"#utility.yul\":20913:21062   */\n    tag_366:\n        /* \"#utility.yul\":20962:20968   */\n      0x00\n        /* \"#utility.yul\":20996:21001   */\n      dup2\n        /* \"#utility.yul\":20990:21002   */\n      sload\n        /* \"#utility.yul\":20980:21002   */\n      swap1\n      pop\n        /* \"#utility.yul\":21022:21055   */\n      tag_583\n        /* \"#utility.yul\":21048:21054   */\n      dup2\n        /* \"#utility.yul\":21022:21055   */\n      tag_240\n      jump\t// in\n    tag_583:\n        /* \"#utility.yul\":21012:21055   */\n      swap1\n      pop\n        /* \"#utility.yul\":20913:21062   */\n      swap2\n      swap1\n      pop\n      jump\t// out\n        /* \"#utility.yul\":21068:22519   */\n    tag_200:\n        /* \"#utility.yul\":21179:21182   */\n      dup2\n        /* \"#utility.yul\":21173:21177   */\n      dup2\n        /* \"#utility.yul\":21170:21183   */\n      sub\n        /* \"#utility.yul\":21167:21193   */\n      tag_585\n      jumpi\n        /* \"#utility.yul\":21186:21191   */\n      pop\n      pop\n      jump(tag_584)\n        /* \"#utility.yul\":21167:21193   */\n    tag_585:\n        /* \"#utility.yul\":21217:21251   */\n      tag_586\n        /* \"#utility.yul\":21247:21250   */\n      dup3\n        /* \"#utility.yul\":21217:21251   */\n      tag_366\n      jump\t// in\n    tag_586:\n        /* \"#utility.yul\":21316:21334   */\n      0xffffffffffffffff\n        /* \"#utility.yul\":21308:21314   */\n      dup2\n        /* \"#utility.yul\":21305:21335   */\n      gt\n        /* \"#utility.yul\":21302:21358   */\n      iszero\n      tag_587\n      jumpi\n        /* \"#utility.yul\":21338:21356   */\n      tag_588\n      tag_230\n      jump\t// in\n    tag_588:\n        /* \"#utility.yul\":21302:21358   */\n    tag_587:\n        /* \"#utility.yul\":21382:21420   */\n      tag_589\n        /* \"#utility.yul\":21414:21418   */\n      dup3\n        /* \"#utility.yul\":21408:21419   */\n      sload\n        /* \"#utility.yul\":21382:21420   */\n      tag_240\n      jump\t// in\n    tag_589:\n        /* \"#utility.yul\":21467:21534   */\n      tag_590\n        /* \"#utility.yul\":21527:21533   */\n      dup3\n        /* \"#utility.yul\":21519:21525   */\n      dup3\n        /* \"#utility.yul\":21513:21517   */\n      dup6\n        /* \"#utility.yul\":21467:21534   */\n      tag_360\n      jump\t// in\n    tag_590:\n        /* \"#utility.yul\":21561:21562   */\n      0x00\n        /* \"#utility.yul\":21590:21592   */\n      0x1f\n        /* \"#utility.yul\":21582:21588   */\n      dup4\n        /* \"#utility.yul\":21579:21593   */\n      gt\n        /* \"#utility.yul\":21607:21608   */\n      0x01\n        /* \"#utility.yul\":21602:22274   */\n      dup2\n      eq\n      tag_592\n      jumpi\n        /* \"#utility.yul\":22318:22319   */\n      0x00\n        /* \"#utility.yul\":22335:22341   */\n      dup5\n        /* \"#utility.yul\":22332:22409   */\n      iszero\n      tag_593\n      jumpi\n        /* \"#utility.yul\":22384:22393   */\n      dup3\n        /* \"#utility.yul\":22379:22382   */\n      dup8\n        /* \"#utility.yul\":22375:22394   */\n      add\n        /* \"#utility.yul\":22369:22395   */\n      sload\n        /* \"#utility.yul\":22360:22395   */\n      swap1\n      pop\n        /* \"#utility.yul\":22332:22409   */\n    tag_593:\n        /* \"#utility.yul\":22435:22502   */\n      tag_594\n        /* \"#utility.yul\":22495:22501   */\n      dup6\n        /* \"#utility.yul\":22488:22493   */\n      dup3\n        /* \"#utility.yul\":22435:22502   */\n      tag_363\n      jump\t// in\n    tag_594:\n        /* \"#utility.yul\":22429:22433   */\n      dup7\n        /* \"#utility.yul\":22422:22503   */\n      sstore\n        /* \"#utility.yul\":22291:22513   */\n      pop\n        /* \"#utility.yul\":21572:22513   */\n      jump(tag_591)\n        /* \"#utility.yul\":21602:22274   */\n    tag_592:\n        /* \"#utility.yul\":21654:21658   */\n      0x1f\n        /* \"#utility.yul\":21650:21659   */\n      not\n        /* \"#utility.yul\":21642:21648   */\n      dup5\n        /* \"#utility.yul\":21638:21660   */\n      and\n        /* \"#utility.yul\":21680:21716   */\n      tag_595\n        /* \"#utility.yul\":21712:21715   */\n      dup8\n        /* \"#utility.yul\":21680:21716   */\n      tag_349\n      jump\t// in\n    tag_595:\n        /* \"#utility.yul\":21673:21716   */\n      swap7\n      pop\n        /* \"#utility.yul\":21743:21780   */\n      tag_596\n        /* \"#utility.yul\":21775:21779   */\n      dup7\n        /* \"#utility.yul\":21743:21780   */\n      tag_349\n      jump\t// in\n    tag_596:\n        /* \"#utility.yul\":21802:21803   */\n      0x00\n        /* \"#utility.yul\":21816:22023   */\n    tag_597:\n        /* \"#utility.yul\":21830:21837   */\n      dup3\n        /* \"#utility.yul\":21827:21828   */\n      dup2\n        /* \"#utility.yul\":21824:21838   */\n      lt\n        /* \"#utility.yul\":21816:22023   */\n      iszero\n      tag_599\n      jumpi\n        /* \"#utility.yul\":21909:21918   */\n      dup5\n        /* \"#utility.yul\":21904:21907   */\n      dup10\n        /* \"#utility.yul\":21900:21919   */\n      add\n        /* \"#utility.yul\":21894:21920   */\n      sload\n        /* \"#utility.yul\":21886:21892   */\n      dup3\n        /* \"#utility.yul\":21879:21921   */\n      sstore\n        /* \"#utility.yul\":21960:21961   */\n      0x01\n        /* \"#utility.yul\":21952:21958   */\n      dup3\n        /* \"#utility.yul\":21948:21962   */\n      add\n        /* \"#utility.yul\":21938:21962   */\n      swap2\n      pop\n        /* \"#utility.yul\":22007:22008   */\n      0x01\n        /* \"#utility.yul\":21996:22005   */\n      dup6\n        /* \"#utility.yul\":21992:22009   */\n      add\n        /* \"#utility.yul\":21979:22009   */\n      swap5\n      pop\n        /* \"#utility.yul\":21853:21857   */\n      0x20\n        /* \"#utility.yul\":21850:21851   */\n      dup2\n        /* \"#utility.yul\":21846:21858   */\n      add\n        /* \"#utility.yul\":21841:21858   */\n      swap1\n      pop\n        /* \"#utility.yul\":21816:22023   */\n      jump(tag_597)\n    tag_599:\n        /* \"#utility.yul\":22051:22057   */\n      dup7\n        /* \"#utility.yul\":22042:22049   */\n      dup4\n        /* \"#utility.yul\":22039:22058   */\n      lt\n        /* \"#utility.yul\":22036:22215   */\n      iszero\n      tag_600\n      jumpi\n        /* \"#utility.yul\":22109:22118   */\n      dup5\n        /* \"#utility.yul\":22104:22107   */\n      dup10\n        /* \"#utility.yul\":22100:22119   */\n      add\n        /* \"#utility.yul\":22094:22120   */\n      sload\n        /* \"#utility.yul\":22152:22200   */\n      tag_601\n        /* \"#utility.yul\":22194:22198   */\n      0x1f\n        /* \"#utility.yul\":22186:22192   */\n      dup10\n        /* \"#utility.yul\":22182:22199   */\n      and\n        /* \"#utility.yul\":22171:22180   */\n      dup3\n        /* \"#utility.yul\":22152:22200   */\n      tag_362\n      jump\t// in\n    tag_601:\n        /* \"#utility.yul\":22144:22150   */\n      dup4\n        /* \"#utility.yul\":22137:22201   */\n      sstore\n        /* \"#utility.yul\":22059:22215   */\n      pop\n        /* \"#utility.yul\":22036:22215   */\n    tag_600:\n        /* \"#utility.yul\":22261:22262   */\n      0x01\n        /* \"#utility.yul\":22257:22258   */\n      0x02\n        /* \"#utility.yul\":22249:22255   */\n      dup9\n        /* \"#utility.yul\":22245:22259   */\n      mul\n        /* \"#utility.yul\":22241:22263   */\n      add\n        /* \"#utility.yul\":22235:22239   */\n      dup9\n        /* \"#utility.yul\":22228:22264   */\n      sstore\n        /* \"#utility.yul\":21609:22274   */\n      pop\n      pop\n      pop\n        /* \"#utility.yul\":21572:22513   */\n    tag_591:\n      pop\n        /* \"#utility.yul\":21157:22519   */\n      pop\n      pop\n      pop\n        /* \"#utility.yul\":21068:22519   */\n      pop\n      pop\n    tag_584:\n      jump\t// out\n\n    auxdata: 0xa2646970667358221220275b3b341dc3a784e812a96efb4d7c20e1a97f9c5b513ff3b0525d02ea44025a64736f6c63430008140033\n}\n",
				"bytecode": {
					"linkReferences": {},
					"object": "608060405234801562000010575f80fd5b50335f73ffffffffffffffffffffffffffffffffffffffff168173ffffffffffffffffffffffffffffffffffffffff160362000085575f6040517f1e4fbdf70000000000000000000000000000000000000000000000000000000081526004016200007c9190620001cd565b60405180910390fd5b6200009681620000c960201b60201c565b505f60065f6101000a81548160ff02191690836005811115620000be57620000bd620001e8565b5b021790555062000215565b5f805f9054906101000a900473ffffffffffffffffffffffffffffffffffffffff169050815f806101000a81548173ffffffffffffffffffffffffffffffffffffffff021916908373ffffffffffffffffffffffffffffffffffffffff1602179055508173ffffffffffffffffffffffffffffffffffffffff168173ffffffffffffffffffffffffffffffffffffffff167f8be0079c531659141344cd1fd0a4f28419497f9722a3daafe3b4186f6b6457e060405160405180910390a35050565b5f73ffffffffffffffffffffffffffffffffffffffff82169050919050565b5f620001b5826200018a565b9050919050565b620001c781620001a9565b82525050565b5f602082019050620001e25f830184620001bc565b92915050565b7f4e487b71000000000000000000000000000000000000000000000000000000005f52602160045260245ffd5b61213d80620002235f395ff3fe608060405234801561000f575f80fd5b50600436106100cd575f3560e01c80638da5cb5b1161008a578063cceb68f511610064578063cceb68f514610175578063e81e977b14610193578063ee74c678146101b1578063f2fde38b146101bb576100cd565b80638da5cb5b146101435780638efca69d14610161578063b647990a1461016b576100cd565b80630121b93f146100d15780630e76ab1d146100ed57806317a0ad8e146100f7578063373d6d5e1461010157806338db6dd31461011d578063715018a614610139575b5f80fd5b6100eb60048036038101906100e6919061158c565b6101d7565b005b6100f56104bf565b005b6100ff6105b2565b005b61011b600480360381019061011691906116f3565b6106a5565b005b61013760048036038101906101329190611794565b610856565b005b610141610a55565b005b61014b610a68565b60405161015891906117ce565b60405180910390f35b610169610a8f565b005b610173610b80565b005b61017d610f13565b60405161018a919061191c565b60405180910390f35b61019b6110d3565b6040516101a8919061194b565b60405180910390f35b6101b9611153565b005b6101d560048036038101906101d09190611794565b611246565b005b60038060058111156101ec576101eb611964565b5b60065f9054906101000a900460ff16600581111561020d5761020c611964565b5b1461024d576040517f08c379a0000000000000000000000000000000000000000000000000000000008152600401610244906119eb565b60405180910390fd5b60015f3373ffffffffffffffffffffffffffffffffffffffff1673ffffffffffffffffffffffffffffffffffffffff1681526020019081526020015f205f015f9054906101000a900460ff166102d8576040517f08c379a00000000000000000000000000000000000000000000000000000000081526004016102cf90611a53565b60405180910390fd5b60015f3373ffffffffffffffffffffffffffffffffffffffff1673ffffffffffffffffffffffffffffffffffffffff1681526020019081526020015f205f0160019054906101000a900460ff1615610365576040517f08c379a000000000000000000000000000000000000000000000000000000000815260040161035c90611abb565b60405180910390fd5b60038054905082106103ac576040517f08c379a00000000000000000000000000000000000000000000000000000000081526004016103a390611b23565b60405180910390fd5b6001600383815481106103c2576103c1611b41565b5b905f5260205f2090600202016001015f8282546103df9190611b9b565b925050819055506001805f3373ffffffffffffffffffffffffffffffffffffffff1673ffffffffffffffffffffffffffffffffffffffff1681526020019081526020015f205f0160016101000a81548160ff0219169083151502179055508160015f3373ffffffffffffffffffffffffffffffffffffffff1673ffffffffffffffffffffffffffffffffffffffff1681526020019081526020015f20600101819055507f4d99b957a2bc29a30ebd96a7be8e68fe50a3c701db28a91436490b7d53870ca433836040516104b3929190611bce565b60405180910390a15050565b6104c76112ca565b60018060058111156104dc576104db611964565b5b60065f9054906101000a900460ff1660058111156104fd576104fc611964565b5b1461053d576040517f08c379a0000000000000000000000000000000000000000000000000000000008152600401610534906119eb565b60405180910390fd5b600260065f6101000a81548160ff0219169083600581111561056257610561611964565b5b02179055507f0a97a4ee45751e2abf3e4fc8946939630b11b371ea8ae39ccdc3056e98f5cc3f600160065f9054906101000a900460ff166040516105a7929190611c3b565b60405180910390a150565b6105ba6112ca565b60038060058111156105cf576105ce611964565b5b60065f9054906101000a900460ff1660058111156105f0576105ef611964565b5b14610630576040517f08c379a0000000000000000000000000000000000000000000000000000000008152600401610627906119eb565b60405180910390fd5b600460065f6101000a81548160ff0219169083600581111561065557610654611964565b5b02179055507f0a97a4ee45751e2abf3e4fc8946939630b11b371ea8ae39ccdc3056e98f5cc3f600360065f9054906101000a900460ff1660405161069a929190611c3b565b60405180910390a150565b60018060058111156106ba576106b9611964565b5b60065f9054906101000a900460ff1660058111156106db576106da611964565b5b1461071b576040517f08c379a0000000000000000000000000000000000000000000000000000000008152600401610712906119eb565b60405180910390fd5b60015f3373ffffffffffffffffffffffffffffffffffffffff1673ffffffffffffffffffffffffffffffffffffffff1681526020019081526020015f205f015f9054906101000a900460ff166107a6576040517f08c379a000000000000000000000000000000000000000000000000000000000815260040161079d90611a53565b60405180910390fd5b6107ae611419565b82815f01819052505f816020018181525050600381908060018154018082558091505060019003905f5260205f2090600202015f909190919091505f820151815f0190816107fc9190611e5c565b506020820151816001015550507f92e393e9b54e2f801d3ea4beb0c5e71a21cc34a5d34b77d0fb8a3aa1650dc18f600160038054905061083c9190611f2b565b604051610849919061194b565b60405180910390a1505050565b61085e6112ca565b5f80600581111561087257610871611964565b5b60065f9054906101000a900460ff16600581111561089357610892611964565b5b146108d3576040517f08c379a00000000000000000000000000000000000000000000000000000000081526004016108ca906119eb565b60405180910390fd5b5f151560015f8473ffffffffffffffffffffffffffffffffffffffff1673ffffffffffffffffffffffffffffffffffffffff1681526020019081526020015f205f015f9054906101000a900460ff16151514610964576040517f08c379a000000000000000000000000000000000000000000000000000000000815260040161095b90611fa8565b60405180910390fd5b6001805f8473ffffffffffffffffffffffffffffffffffffffff1673ffffffffffffffffffffffffffffffffffffffff1681526020019081526020015f205f015f6101000a81548160ff021916908315150217905550600282908060018154018082558091505060019003905f5260205f20015f9091909190916101000a81548173ffffffffffffffffffffffffffffffffffffffff021916908373ffffffffffffffffffffffffffffffffffffffff1602179055507fb6be2187d059cc2a55fe29e0e503b566e1e0f8c8780096e185429350acffd3dd82604051610a4991906117ce565b60405180910390a15050565b610a5d6112ca565b610a665f611351565b565b5f805f9054906101000a900473ffffffffffffffffffffffffffffffffffffffff16905090565b610a976112ca565b5f806005811115610aab57610aaa611964565b5b60065f9054906101000a900460ff166005811115610acc57610acb611964565b5b14610b0c576040517f08c379a0000000000000000000000000000000000000000000000000000000008152600401610b03906119eb565b60405180910390fd5b600160065f6101000a81548160ff02191690836005811115610b3157610b30611964565b5b02179055507f0a97a4ee45751e2abf3e4fc8946939630b11b371ea8ae39ccdc3056e98f5cc3f5f60065f9054906101000a900460ff16604051610b75929190611c3b565b60405180910390a150565b610b886112ca565b6004806005811115610b9d57610b9c611964565b5b60065f9054906101000a900460ff166005811115610bbe57610bbd611964565b5b14610bfe576040517f08c379a0000000000000000000000000000000000000000000000000000000008152600401610bf5906119eb565b60405180910390fd5b5f805f5b600380549050811015610c77578260038281548110610c2457610c23611b41565b5b905f5260205f209060020201600101541115610c645760038181548110610c4e57610c4d611b41565b5b905f5260205f2090600202016001015492508091505b8080610c6f90611fc6565b915050610c02565b5060045f610c859190611432565b5f5b600380549050811015610d39578260038281548110610ca957610ca8611b41565b5b905f5260205f2090600202016001015403610d2657600460038281548110610cd457610cd3611b41565b5b905f5260205f209060020201908060018154018082558091505060019003905f5260205f2090600202015f909190919091505f8201815f019081610d189190612022565b506001820154816001015550505b8080610d3190611fc6565b915050610c87565b5060016004805490501115610e945760035f610d559190611432565b60046003908054610d67929190611453565b505f5b600280549050811015610e1c575f60015f60028481548110610d8f57610d8e611b41565b5b905f5260205f20015f9054906101000a900473ffffffffffffffffffffffffffffffffffffffff1673ffffffffffffffffffffffffffffffffffffffff1673ffffffffffffffffffffffffffffffffffffffff1681526020019081526020015f205f0160016101000a81548160ff0219169083151502179055508080610e1490611fc6565b915050610d6a565b50600360065f6101000a81548160ff02191690836005811115610e4257610e41611964565b5b02179055507f0a97a4ee45751e2abf3e4fc8946939630b11b371ea8ae39ccdc3056e98f5cc3f600460065f9054906101000a900460ff16604051610e87929190611c3b565b60405180910390a1610f0e565b80600581905550600560065f6101000a81548160ff02191690836005811115610ec057610ebf611964565b5b02179055507f0a97a4ee45751e2abf3e4fc8946939630b11b371ea8ae39ccdc3056e98f5cc3f600460065f9054906101000a900460ff16604051610f05929190611c3b565b60405180910390a15b505050565b60606003806005811115610f2a57610f29611964565b5b60065f9054906101000a900460ff166005811115610f4b57610f4a611964565b5b14610f8b576040517f08c379a0000000000000000000000000000000000000000000000000000000008152600401610f82906119eb565b60405180910390fd5b5f60038054905067ffffffffffffffff811115610fab57610faa6115cf565b5b604051908082528060200260200182016040528015610fde57816020015b6060815260200190600190039081610fc95790505b5090505f5b6003805490508110156110ca576003818154811061100457611003611b41565b5b905f5260205f2090600202015f01805461101d90611c8f565b80601f016020809104026020016040519081016040528092919081815260200182805461104990611c8f565b80156110945780601f1061106b57610100808354040283529160200191611094565b820191905f5260205f20905b81548152906001019060200180831161107757829003601f168201915b50505050508282815181106110ac576110ab611b41565b5b602002602001018190525080806110c290611fc6565b915050610fe3565b50809250505090565b5f60058060058111156110e9576110e8611964565b5b60065f9054906101000a900460ff16600581111561110a57611109611964565b5b1461114a576040517f08c379a0000000000000000000000000000000000000000000000000000000008152600401611141906119eb565b60405180910390fd5b60055491505090565b61115b6112ca565b60028060058111156111705761116f611964565b5b60065f9054906101000a900460ff16600581111561119157611190611964565b5b146111d1576040517f08c379a00000000000000000000000000000000000000000000000000000000081526004016111c8906119eb565b60405180910390fd5b600360065f6101000a81548160ff021916908360058111156111f6576111f5611964565b5b02179055507f0a97a4ee45751e2abf3e4fc8946939630b11b371ea8ae39ccdc3056e98f5cc3f600260065f9054906101000a900460ff1660405161123b929190611c3b565b60405180910390a150565b61124e6112ca565b5f73ffffffffffffffffffffffffffffffffffffffff168173ffffffffffffffffffffffffffffffffffffffff16036112be575f6040517f1e4fbdf70000000000000000000000000000000000000000000000000000000081526004016112b591906117ce565b60405180910390fd5b6112c781611351565b50565b6112d2611412565b73ffffffffffffffffffffffffffffffffffffffff166112f0610a68565b73ffffffffffffffffffffffffffffffffffffffff161461134f57611313611412565b6040517f118cdaa700000000000000000000000000000000000000000000000000000000815260040161134691906117ce565b60405180910390fd5b565b5f805f9054906101000a900473ffffffffffffffffffffffffffffffffffffffff169050815f806101000a81548173ffffffffffffffffffffffffffffffffffffffff021916908373ffffffffffffffffffffffffffffffffffffffff1602179055508173ffffffffffffffffffffffffffffffffffffffff168173ffffffffffffffffffffffffffffffffffffffff167f8be0079c531659141344cd1fd0a4f28419497f9722a3daafe3b4186f6b6457e060405160405180910390a35050565b5f33905090565b6040518060400160405280606081526020015f81525090565b5080545f8255600202905f5260205f209081019061145091906114c4565b50565b828054828255905f5260205f209060020281019282156114b3575f5260205f209160020282015b828111156114b25782825f8201815f0190816114969190612022565b506001820154816001015550509160020191906002019061147a565b5b5090506114c091906114c4565b5090565b5b808211156114ec575f8082015f6114dc91906114f0565b600182015f9055506002016114c5565b5090565b5080546114fc90611c8f565b5f825580601f1061150d575061152a565b601f0160209004905f5260205f2090810190611529919061152d565b5b50565b5b80821115611544575f815f90555060010161152e565b5090565b5f604051905090565b5f80fd5b5f80fd5b5f819050919050565b61156b81611559565b8114611575575f80fd5b50565b5f8135905061158681611562565b92915050565b5f602082840312156115a1576115a0611551565b5b5f6115ae84828501611578565b91505092915050565b5f80fd5b5f80fd5b5f601f19601f8301169050919050565b7f4e487b71000000000000000000000000000000000000000000000000000000005f52604160045260245ffd5b611605826115bf565b810181811067ffffffffffffffff82111715611624576116236115cf565b5b80604052505050565b5f611636611548565b905061164282826115fc565b919050565b5f67ffffffffffffffff821115611661576116606115cf565b5b61166a826115bf565b9050602081019050919050565b828183375f83830152505050565b5f61169761169284611647565b61162d565b9050828152602081018484840111156116b3576116b26115bb565b5b6116be848285611677565b509392505050565b5f82601f8301126116da576116d96115b7565b5b81356116ea848260208601611685565b91505092915050565b5f6020828403121561170857611707611551565b5b5f82013567ffffffffffffffff81111561172557611724611555565b5b611731848285016116c6565b91505092915050565b5f73ffffffffffffffffffffffffffffffffffffffff82169050919050565b5f6117638261173a565b9050919050565b61177381611759565b811461177d575f80fd5b50565b5f8135905061178e8161176a565b92915050565b5f602082840312156117a9576117a8611551565b5b5f6117b684828501611780565b91505092915050565b6117c881611759565b82525050565b5f6020820190506117e15f8301846117bf565b92915050565b5f81519050919050565b5f82825260208201905092915050565b5f819050602082019050919050565b5f81519050919050565b5f82825260208201905092915050565b5f5b8381101561184757808201518184015260208101905061182c565b5f8484015250505050565b5f61185c82611810565b611866818561181a565b935061187681856020860161182a565b61187f816115bf565b840191505092915050565b5f6118958383611852565b905092915050565b5f602082019050919050565b5f6118b3826117e7565b6118bd81856117f1565b9350836020820285016118cf85611801565b805f5b8581101561190a57848403895281516118eb858261188a565b94506118f68361189d565b925060208a019950506001810190506118d2565b50829750879550505050505092915050565b5f6020820190508181035f83015261193481846118a9565b905092915050565b61194581611559565b82525050565b5f60208201905061195e5f83018461193c565b92915050565b7f4e487b71000000000000000000000000000000000000000000000000000000005f52602160045260245ffd5b5f82825260208201905092915050565b7f49742773206e6f742074686520676f6f642073746167652e00000000000000005f82015250565b5f6119d5601883611991565b91506119e0826119a1565b602082019050919050565b5f6020820190508181035f830152611a02816119c9565b9050919050565b7f54686520766f746572206973206e6f74207265676973746572656421000000005f82015250565b5f611a3d601c83611991565b9150611a4882611a09565b602082019050919050565b5f6020820190508181035f830152611a6a81611a31565b9050919050565b7f54686520766f7465722068617320616c726561647920766f74656421000000005f82015250565b5f611aa5601c83611991565b9150611ab082611a71565b602082019050919050565b5f6020820190508181035f830152611ad281611a99565b9050919050565b7f5468652070726f706f73616c20646f65736e27742065786973742100000000005f82015250565b5f611b0d601b83611991565b9150611b1882611ad9565b602082019050919050565b5f6020820190508181035f830152611b3a81611b01565b9050919050565b7f4e487b71000000000000000000000000000000000000000000000000000000005f52603260045260245ffd5b7f4e487b71000000000000000000000000000000000000000000000000000000005f52601160045260245ffd5b5f611ba582611559565b9150611bb083611559565b9250828201905080821115611bc857611bc7611b6e565b5b92915050565b5f604082019050611be15f8301856117bf565b611bee602083018461193c565b9392505050565b60068110611c0657611c05611964565b5b50565b5f819050611c1682611bf5565b919050565b5f611c2582611c09565b9050919050565b611c3581611c1b565b82525050565b5f604082019050611c4e5f830185611c2c565b611c5b6020830184611c2c565b9392505050565b7f4e487b71000000000000000000000000000000000000000000000000000000005f52602260045260245ffd5b5f6002820490506001821680611ca657607f821691505b602082108103611cb957611cb8611c62565b5b50919050565b5f819050815f5260205f209050919050565b5f6020601f8301049050919050565b5f82821b905092915050565b5f60088302611d1b7fffffffffffffffffffffffffffffffffffffffffffffffffffffffffffffffff82611ce0565b611d258683611ce0565b95508019841693508086168417925050509392505050565b5f819050919050565b5f611d60611d5b611d5684611559565b611d3d565b611559565b9050919050565b5f819050919050565b611d7983611d46565b611d8d611d8582611d67565b848454611cec565b825550505050565b5f90565b611da1611d95565b611dac818484611d70565b505050565b5b81811015611dcf57611dc45f82611d99565b600181019050611db2565b5050565b601f821115611e1457611de581611cbf565b611dee84611cd1565b81016020851015611dfd578190505b611e11611e0985611cd1565b830182611db1565b50505b505050565b5f82821c905092915050565b5f611e345f1984600802611e19565b1980831691505092915050565b5f611e4c8383611e25565b9150826002028217905092915050565b611e6582611810565b67ffffffffffffffff811115611e7e57611e7d6115cf565b5b611e888254611c8f565b611e93828285611dd3565b5f60209050601f831160018114611ec4575f8415611eb2578287015190505b611ebc8582611e41565b865550611f23565b601f198416611ed286611cbf565b5f5b82811015611ef957848901518255600182019150602085019450602081019050611ed4565b86831015611f165784890151611f12601f891682611e25565b8355505b6001600288020188555050505b505050505050565b5f611f3582611559565b9150611f4083611559565b9250828203905081811115611f5857611f57611b6e565b5b92915050565b7f54686520766f74657220697320616c72656164792072656769737465726564215f82015250565b5f611f92602083611991565b9150611f9d82611f5e565b602082019050919050565b5f6020820190508181035f830152611fbf81611f86565b9050919050565b5f611fd082611559565b91507fffffffffffffffffffffffffffffffffffffffffffffffffffffffffffffffff820361200257612001611b6e565b5b600182019050919050565b5f8154905061201b81611c8f565b9050919050565b818103612030575050612105565b6120398261200d565b67ffffffffffffffff811115612052576120516115cf565b5b61205c8254611c8f565b612067828285611dd3565b5f601f831160018114612094575f8415612082578287015490505b61208c8582611e41565b8655506120fe565b601f1984166120a287611cbf565b96506120ad86611cbf565b5f5b828110156120d4578489015482556001820191506001850194506020810190506120af565b868310156120f157848901546120ed601f891682611e25565b8355505b6001600288020188555050505b5050505050505b56fea2646970667358221220275b3b341dc3a784e812a96efb4d7c20e1a97f9c5b513ff3b0525d02ea44025a64736f6c63430008140033",
					"opcodes": "PUSH1 0x80 PUSH1 0x40 MSTORE CALLVALUE DUP1 ISZERO PUSH3 0x10 JUMPI PUSH0 DUP1 REVERT JUMPDEST POP CALLER PUSH0 PUSH20 0xFFFFFFFFFFFFFFFFFFFFFFFFFFFFFFFFFFFFFFFF AND DUP2 PUSH20 0xFFFFFFFFFFFFFFFFFFFFFFFFFFFFFFFFFFFFFFFF AND SUB PUSH3 0x85 JUMPI PUSH0 PUSH1 0x40 MLOAD PUSH32 0x1E4FBDF700000000000000000000000000000000000000000000000000000000 DUP2 MSTORE PUSH1 0x4 ADD PUSH3 0x7C SWAP2 SWAP1 PUSH3 0x1CD JUMP JUMPDEST PUSH1 0x40 MLOAD DUP1 SWAP2 SUB SWAP1 REVERT JUMPDEST PUSH3 0x96 DUP2 PUSH3 0xC9 PUSH1 0x20 SHL PUSH1 0x20 SHR JUMP JUMPDEST POP PUSH0 PUSH1 0x6 PUSH0 PUSH2 0x100 EXP DUP2 SLOAD DUP2 PUSH1 0xFF MUL NOT AND SWAP1 DUP4 PUSH1 0x5 DUP2 GT ISZERO PUSH3 0xBE JUMPI PUSH3 0xBD PUSH3 0x1E8 JUMP JUMPDEST JUMPDEST MUL OR SWAP1 SSTORE POP PUSH3 0x215 JUMP JUMPDEST PUSH0 DUP1 PUSH0 SWAP1 SLOAD SWAP1 PUSH2 0x100 EXP SWAP1 DIV PUSH20 0xFFFFFFFFFFFFFFFFFFFFFFFFFFFFFFFFFFFFFFFF AND SWAP1 POP DUP2 PUSH0 DUP1 PUSH2 0x100 EXP DUP2 SLOAD DUP2 PUSH20 0xFFFFFFFFFFFFFFFFFFFFFFFFFFFFFFFFFFFFFFFF MUL NOT AND SWAP1 DUP4 PUSH20 0xFFFFFFFFFFFFFFFFFFFFFFFFFFFFFFFFFFFFFFFF AND MUL OR SWAP1 SSTORE POP DUP2 PUSH20 0xFFFFFFFFFFFFFFFFFFFFFFFFFFFFFFFFFFFFFFFF AND DUP2 PUSH20 0xFFFFFFFFFFFFFFFFFFFFFFFFFFFFFFFFFFFFFFFF AND PUSH32 0x8BE0079C531659141344CD1FD0A4F28419497F9722A3DAAFE3B4186F6B6457E0 PUSH1 0x40 MLOAD PUSH1 0x40 MLOAD DUP1 SWAP2 SUB SWAP1 LOG3 POP POP JUMP JUMPDEST PUSH0 PUSH20 0xFFFFFFFFFFFFFFFFFFFFFFFFFFFFFFFFFFFFFFFF DUP3 AND SWAP1 POP SWAP2 SWAP1 POP JUMP JUMPDEST PUSH0 PUSH3 0x1B5 DUP3 PUSH3 0x18A JUMP JUMPDEST SWAP1 POP SWAP2 SWAP1 POP JUMP JUMPDEST PUSH3 0x1C7 DUP2 PUSH3 0x1A9 JUMP JUMPDEST DUP3 MSTORE POP POP JUMP JUMPDEST PUSH0 PUSH1 0x20 DUP3 ADD SWAP1 POP PUSH3 0x1E2 PUSH0 DUP4 ADD DUP5 PUSH3 0x1BC JUMP JUMPDEST SWAP3 SWAP2 POP POP JUMP JUMPDEST PUSH32 0x4E487B7100000000000000000000000000000000000000000000000000000000 PUSH0 MSTORE PUSH1 0x21 PUSH1 0x4 MSTORE PUSH1 0x24 PUSH0 REVERT JUMPDEST PUSH2 0x213D DUP1 PUSH3 0x223 PUSH0 CODECOPY PUSH0 RETURN INVALID PUSH1 0x80 PUSH1 0x40 MSTORE CALLVALUE DUP1 ISZERO PUSH2 0xF JUMPI PUSH0 DUP1 REVERT JUMPDEST POP PUSH1 0x4 CALLDATASIZE LT PUSH2 0xCD JUMPI PUSH0 CALLDATALOAD PUSH1 0xE0 SHR DUP1 PUSH4 0x8DA5CB5B GT PUSH2 0x8A JUMPI DUP1 PUSH4 0xCCEB68F5 GT PUSH2 0x64 JUMPI DUP1 PUSH4 0xCCEB68F5 EQ PUSH2 0x175 JUMPI DUP1 PUSH4 0xE81E977B EQ PUSH2 0x193 JUMPI DUP1 PUSH4 0xEE74C678 EQ PUSH2 0x1B1 JUMPI DUP1 PUSH4 0xF2FDE38B EQ PUSH2 0x1BB JUMPI PUSH2 0xCD JUMP JUMPDEST DUP1 PUSH4 0x8DA5CB5B EQ PUSH2 0x143 JUMPI DUP1 PUSH4 0x8EFCA69D EQ PUSH2 0x161 JUMPI DUP1 PUSH4 0xB647990A EQ PUSH2 0x16B JUMPI PUSH2 0xCD JUMP JUMPDEST DUP1 PUSH4 0x121B93F EQ PUSH2 0xD1 JUMPI DUP1 PUSH4 0xE76AB1D EQ PUSH2 0xED JUMPI DUP1 PUSH4 0x17A0AD8E EQ PUSH2 0xF7 JUMPI DUP1 PUSH4 0x373D6D5E EQ PUSH2 0x101 JUMPI DUP1 PUSH4 0x38DB6DD3 EQ PUSH2 0x11D JUMPI DUP1 PUSH4 0x715018A6 EQ PUSH2 0x139 JUMPI JUMPDEST PUSH0 DUP1 REVERT JUMPDEST PUSH2 0xEB PUSH1 0x4 DUP1 CALLDATASIZE SUB DUP2 ADD SWAP1 PUSH2 0xE6 SWAP2 SWAP1 PUSH2 0x158C JUMP JUMPDEST PUSH2 0x1D7 JUMP JUMPDEST STOP JUMPDEST PUSH2 0xF5 PUSH2 0x4BF JUMP JUMPDEST STOP JUMPDEST PUSH2 0xFF PUSH2 0x5B2 JUMP JUMPDEST STOP JUMPDEST PUSH2 0x11B PUSH1 0x4 DUP1 CALLDATASIZE SUB DUP2 ADD SWAP1 PUSH2 0x116 SWAP2 SWAP1 PUSH2 0x16F3 JUMP JUMPDEST PUSH2 0x6A5 JUMP JUMPDEST STOP JUMPDEST PUSH2 0x137 PUSH1 0x4 DUP1 CALLDATASIZE SUB DUP2 ADD SWAP1 PUSH2 0x132 SWAP2 SWAP1 PUSH2 0x1794 JUMP JUMPDEST PUSH2 0x856 JUMP JUMPDEST STOP JUMPDEST PUSH2 0x141 PUSH2 0xA55 JUMP JUMPDEST STOP JUMPDEST PUSH2 0x14B PUSH2 0xA68 JUMP JUMPDEST PUSH1 0x40 MLOAD PUSH2 0x158 SWAP2 SWAP1 PUSH2 0x17CE JUMP JUMPDEST PUSH1 0x40 MLOAD DUP1 SWAP2 SUB SWAP1 RETURN JUMPDEST PUSH2 0x169 PUSH2 0xA8F JUMP JUMPDEST STOP JUMPDEST PUSH2 0x173 PUSH2 0xB80 JUMP JUMPDEST STOP JUMPDEST PUSH2 0x17D PUSH2 0xF13 JUMP JUMPDEST PUSH1 0x40 MLOAD PUSH2 0x18A SWAP2 SWAP1 PUSH2 0x191C JUMP JUMPDEST PUSH1 0x40 MLOAD DUP1 SWAP2 SUB SWAP1 RETURN JUMPDEST PUSH2 0x19B PUSH2 0x10D3 JUMP JUMPDEST PUSH1 0x40 MLOAD PUSH2 0x1A8 SWAP2 SWAP1 PUSH2 0x194B JUMP JUMPDEST PUSH1 0x40 MLOAD DUP1 SWAP2 SUB SWAP1 RETURN JUMPDEST PUSH2 0x1B9 PUSH2 0x1153 JUMP JUMPDEST STOP JUMPDEST PUSH2 0x1D5 PUSH1 0x4 DUP1 CALLDATASIZE SUB DUP2 ADD SWAP1 PUSH2 0x1D0 SWAP2 SWAP1 PUSH2 0x1794 JUMP JUMPDEST PUSH2 0x1246 JUMP JUMPDEST STOP JUMPDEST PUSH1 0x3 DUP1 PUSH1 0x5 DUP2 GT ISZERO PUSH2 0x1EC JUMPI PUSH2 0x1EB PUSH2 0x1964 JUMP JUMPDEST JUMPDEST PUSH1 0x6 PUSH0 SWAP1 SLOAD SWAP1 PUSH2 0x100 EXP SWAP1 DIV PUSH1 0xFF AND PUSH1 0x5 DUP2 GT ISZERO PUSH2 0x20D JUMPI PUSH2 0x20C PUSH2 0x1964 JUMP JUMPDEST JUMPDEST EQ PUSH2 0x24D JUMPI PUSH1 0x40 MLOAD PUSH32 0x8C379A000000000000000000000000000000000000000000000000000000000 DUP2 MSTORE PUSH1 0x4 ADD PUSH2 0x244 SWAP1 PUSH2 0x19EB JUMP JUMPDEST PUSH1 0x40 MLOAD DUP1 SWAP2 SUB SWAP1 REVERT JUMPDEST PUSH1 0x1 PUSH0 CALLER PUSH20 0xFFFFFFFFFFFFFFFFFFFFFFFFFFFFFFFFFFFFFFFF AND PUSH20 0xFFFFFFFFFFFFFFFFFFFFFFFFFFFFFFFFFFFFFFFF AND DUP2 MSTORE PUSH1 0x20 ADD SWAP1 DUP2 MSTORE PUSH1 0x20 ADD PUSH0 KECCAK256 PUSH0 ADD PUSH0 SWAP1 SLOAD SWAP1 PUSH2 0x100 EXP SWAP1 DIV PUSH1 0xFF AND PUSH2 0x2D8 JUMPI PUSH1 0x40 MLOAD PUSH32 0x8C379A000000000000000000000000000000000000000000000000000000000 DUP2 MSTORE PUSH1 0x4 ADD PUSH2 0x2CF SWAP1 PUSH2 0x1A53 JUMP JUMPDEST PUSH1 0x40 MLOAD DUP1 SWAP2 SUB SWAP1 REVERT JUMPDEST PUSH1 0x1 PUSH0 CALLER PUSH20 0xFFFFFFFFFFFFFFFFFFFFFFFFFFFFFFFFFFFFFFFF AND PUSH20 0xFFFFFFFFFFFFFFFFFFFFFFFFFFFFFFFFFFFFFFFF AND DUP2 MSTORE PUSH1 0x20 ADD SWAP1 DUP2 MSTORE PUSH1 0x20 ADD PUSH0 KECCAK256 PUSH0 ADD PUSH1 0x1 SWAP1 SLOAD SWAP1 PUSH2 0x100 EXP SWAP1 DIV PUSH1 0xFF AND ISZERO PUSH2 0x365 JUMPI PUSH1 0x40 MLOAD PUSH32 0x8C379A000000000000000000000000000000000000000000000000000000000 DUP2 MSTORE PUSH1 0x4 ADD PUSH2 0x35C SWAP1 PUSH2 0x1ABB JUMP JUMPDEST PUSH1 0x40 MLOAD DUP1 SWAP2 SUB SWAP1 REVERT JUMPDEST PUSH1 0x3 DUP1 SLOAD SWAP1 POP DUP3 LT PUSH2 0x3AC JUMPI PUSH1 0x40 MLOAD PUSH32 0x8C379A000000000000000000000000000000000000000000000000000000000 DUP2 MSTORE PUSH1 0x4 ADD PUSH2 0x3A3 SWAP1 PUSH2 0x1B23 JUMP JUMPDEST PUSH1 0x40 MLOAD DUP1 SWAP2 SUB SWAP1 REVERT JUMPDEST PUSH1 0x1 PUSH1 0x3 DUP4 DUP2 SLOAD DUP2 LT PUSH2 0x3C2 JUMPI PUSH2 0x3C1 PUSH2 0x1B41 JUMP JUMPDEST JUMPDEST SWAP1 PUSH0 MSTORE PUSH1 0x20 PUSH0 KECCAK256 SWAP1 PUSH1 0x2 MUL ADD PUSH1 0x1 ADD PUSH0 DUP3 DUP3 SLOAD PUSH2 0x3DF SWAP2 SWAP1 PUSH2 0x1B9B JUMP JUMPDEST SWAP3 POP POP DUP2 SWAP1 SSTORE POP PUSH1 0x1 DUP1 PUSH0 CALLER PUSH20 0xFFFFFFFFFFFFFFFFFFFFFFFFFFFFFFFFFFFFFFFF AND PUSH20 0xFFFFFFFFFFFFFFFFFFFFFFFFFFFFFFFFFFFFFFFF AND DUP2 MSTORE PUSH1 0x20 ADD SWAP1 DUP2 MSTORE PUSH1 0x20 ADD PUSH0 KECCAK256 PUSH0 ADD PUSH1 0x1 PUSH2 0x100 EXP DUP2 SLOAD DUP2 PUSH1 0xFF MUL NOT AND SWAP1 DUP4 ISZERO ISZERO MUL OR SWAP1 SSTORE POP DUP2 PUSH1 0x1 PUSH0 CALLER PUSH20 0xFFFFFFFFFFFFFFFFFFFFFFFFFFFFFFFFFFFFFFFF AND PUSH20 0xFFFFFFFFFFFFFFFFFFFFFFFFFFFFFFFFFFFFFFFF AND DUP2 MSTORE PUSH1 0x20 ADD SWAP1 DUP2 MSTORE PUSH1 0x20 ADD PUSH0 KECCAK256 PUSH1 0x1 ADD DUP2 SWAP1 SSTORE POP PUSH32 0x4D99B957A2BC29A30EBD96A7BE8E68FE50A3C701DB28A91436490B7D53870CA4 CALLER DUP4 PUSH1 0x40 MLOAD PUSH2 0x4B3 SWAP3 SWAP2 SWAP1 PUSH2 0x1BCE JUMP JUMPDEST PUSH1 0x40 MLOAD DUP1 SWAP2 SUB SWAP1 LOG1 POP POP JUMP JUMPDEST PUSH2 0x4C7 PUSH2 0x12CA JUMP JUMPDEST PUSH1 0x1 DUP1 PUSH1 0x5 DUP2 GT ISZERO PUSH2 0x4DC JUMPI PUSH2 0x4DB PUSH2 0x1964 JUMP JUMPDEST JUMPDEST PUSH1 0x6 PUSH0 SWAP1 SLOAD SWAP1 PUSH2 0x100 EXP SWAP1 DIV PUSH1 0xFF AND PUSH1 0x5 DUP2 GT ISZERO PUSH2 0x4FD JUMPI PUSH2 0x4FC PUSH2 0x1964 JUMP JUMPDEST JUMPDEST EQ PUSH2 0x53D JUMPI PUSH1 0x40 MLOAD PUSH32 0x8C379A000000000000000000000000000000000000000000000000000000000 DUP2 MSTORE PUSH1 0x4 ADD PUSH2 0x534 SWAP1 PUSH2 0x19EB JUMP JUMPDEST PUSH1 0x40 MLOAD DUP1 SWAP2 SUB SWAP1 REVERT JUMPDEST PUSH1 0x2 PUSH1 0x6 PUSH0 PUSH2 0x100 EXP DUP2 SLOAD DUP2 PUSH1 0xFF MUL NOT AND SWAP1 DUP4 PUSH1 0x5 DUP2 GT ISZERO PUSH2 0x562 JUMPI PUSH2 0x561 PUSH2 0x1964 JUMP JUMPDEST JUMPDEST MUL OR SWAP1 SSTORE POP PUSH32 0xA97A4EE45751E2ABF3E4FC8946939630B11B371EA8AE39CCDC3056E98F5CC3F PUSH1 0x1 PUSH1 0x6 PUSH0 SWAP1 SLOAD SWAP1 PUSH2 0x100 EXP SWAP1 DIV PUSH1 0xFF AND PUSH1 0x40 MLOAD PUSH2 0x5A7 SWAP3 SWAP2 SWAP1 PUSH2 0x1C3B JUMP JUMPDEST PUSH1 0x40 MLOAD DUP1 SWAP2 SUB SWAP1 LOG1 POP JUMP JUMPDEST PUSH2 0x5BA PUSH2 0x12CA JUMP JUMPDEST PUSH1 0x3 DUP1 PUSH1 0x5 DUP2 GT ISZERO PUSH2 0x5CF JUMPI PUSH2 0x5CE PUSH2 0x1964 JUMP JUMPDEST JUMPDEST PUSH1 0x6 PUSH0 SWAP1 SLOAD SWAP1 PUSH2 0x100 EXP SWAP1 DIV PUSH1 0xFF AND PUSH1 0x5 DUP2 GT ISZERO PUSH2 0x5F0 JUMPI PUSH2 0x5EF PUSH2 0x1964 JUMP JUMPDEST JUMPDEST EQ PUSH2 0x630 JUMPI PUSH1 0x40 MLOAD PUSH32 0x8C379A000000000000000000000000000000000000000000000000000000000 DUP2 MSTORE PUSH1 0x4 ADD PUSH2 0x627 SWAP1 PUSH2 0x19EB JUMP JUMPDEST PUSH1 0x40 MLOAD DUP1 SWAP2 SUB SWAP1 REVERT JUMPDEST PUSH1 0x4 PUSH1 0x6 PUSH0 PUSH2 0x100 EXP DUP2 SLOAD DUP2 PUSH1 0xFF MUL NOT AND SWAP1 DUP4 PUSH1 0x5 DUP2 GT ISZERO PUSH2 0x655 JUMPI PUSH2 0x654 PUSH2 0x1964 JUMP JUMPDEST JUMPDEST MUL OR SWAP1 SSTORE POP PUSH32 0xA97A4EE45751E2ABF3E4FC8946939630B11B371EA8AE39CCDC3056E98F5CC3F PUSH1 0x3 PUSH1 0x6 PUSH0 SWAP1 SLOAD SWAP1 PUSH2 0x100 EXP SWAP1 DIV PUSH1 0xFF AND PUSH1 0x40 MLOAD PUSH2 0x69A SWAP3 SWAP2 SWAP1 PUSH2 0x1C3B JUMP JUMPDEST PUSH1 0x40 MLOAD DUP1 SWAP2 SUB SWAP1 LOG1 POP JUMP JUMPDEST PUSH1 0x1 DUP1 PUSH1 0x5 DUP2 GT ISZERO PUSH2 0x6BA JUMPI PUSH2 0x6B9 PUSH2 0x1964 JUMP JUMPDEST JUMPDEST PUSH1 0x6 PUSH0 SWAP1 SLOAD SWAP1 PUSH2 0x100 EXP SWAP1 DIV PUSH1 0xFF AND PUSH1 0x5 DUP2 GT ISZERO PUSH2 0x6DB JUMPI PUSH2 0x6DA PUSH2 0x1964 JUMP JUMPDEST JUMPDEST EQ PUSH2 0x71B JUMPI PUSH1 0x40 MLOAD PUSH32 0x8C379A000000000000000000000000000000000000000000000000000000000 DUP2 MSTORE PUSH1 0x4 ADD PUSH2 0x712 SWAP1 PUSH2 0x19EB JUMP JUMPDEST PUSH1 0x40 MLOAD DUP1 SWAP2 SUB SWAP1 REVERT JUMPDEST PUSH1 0x1 PUSH0 CALLER PUSH20 0xFFFFFFFFFFFFFFFFFFFFFFFFFFFFFFFFFFFFFFFF AND PUSH20 0xFFFFFFFFFFFFFFFFFFFFFFFFFFFFFFFFFFFFFFFF AND DUP2 MSTORE PUSH1 0x20 ADD SWAP1 DUP2 MSTORE PUSH1 0x20 ADD PUSH0 KECCAK256 PUSH0 ADD PUSH0 SWAP1 SLOAD SWAP1 PUSH2 0x100 EXP SWAP1 DIV PUSH1 0xFF AND PUSH2 0x7A6 JUMPI PUSH1 0x40 MLOAD PUSH32 0x8C379A000000000000000000000000000000000000000000000000000000000 DUP2 MSTORE PUSH1 0x4 ADD PUSH2 0x79D SWAP1 PUSH2 0x1A53 JUMP JUMPDEST PUSH1 0x40 MLOAD DUP1 SWAP2 SUB SWAP1 REVERT JUMPDEST PUSH2 0x7AE PUSH2 0x1419 JUMP JUMPDEST DUP3 DUP2 PUSH0 ADD DUP2 SWAP1 MSTORE POP PUSH0 DUP2 PUSH1 0x20 ADD DUP2 DUP2 MSTORE POP POP PUSH1 0x3 DUP2 SWAP1 DUP1 PUSH1 0x1 DUP2 SLOAD ADD DUP1 DUP3 SSTORE DUP1 SWAP2 POP POP PUSH1 0x1 SWAP1 SUB SWAP1 PUSH0 MSTORE PUSH1 0x20 PUSH0 KECCAK256 SWAP1 PUSH1 0x2 MUL ADD PUSH0 SWAP1 SWAP2 SWAP1 SWAP2 SWAP1 SWAP2 POP PUSH0 DUP3 ADD MLOAD DUP2 PUSH0 ADD SWAP1 DUP2 PUSH2 0x7FC SWAP2 SWAP1 PUSH2 0x1E5C JUMP JUMPDEST POP PUSH1 0x20 DUP3 ADD MLOAD DUP2 PUSH1 0x1 ADD SSTORE POP POP PUSH32 0x92E393E9B54E2F801D3EA4BEB0C5E71A21CC34A5D34B77D0FB8A3AA1650DC18F PUSH1 0x1 PUSH1 0x3 DUP1 SLOAD SWAP1 POP PUSH2 0x83C SWAP2 SWAP1 PUSH2 0x1F2B JUMP JUMPDEST PUSH1 0x40 MLOAD PUSH2 0x849 SWAP2 SWAP1 PUSH2 0x194B JUMP JUMPDEST PUSH1 0x40 MLOAD DUP1 SWAP2 SUB SWAP1 LOG1 POP POP POP JUMP JUMPDEST PUSH2 0x85E PUSH2 0x12CA JUMP JUMPDEST PUSH0 DUP1 PUSH1 0x5 DUP2 GT ISZERO PUSH2 0x872 JUMPI PUSH2 0x871 PUSH2 0x1964 JUMP JUMPDEST JUMPDEST PUSH1 0x6 PUSH0 SWAP1 SLOAD SWAP1 PUSH2 0x100 EXP SWAP1 DIV PUSH1 0xFF AND PUSH1 0x5 DUP2 GT ISZERO PUSH2 0x893 JUMPI PUSH2 0x892 PUSH2 0x1964 JUMP JUMPDEST JUMPDEST EQ PUSH2 0x8D3 JUMPI PUSH1 0x40 MLOAD PUSH32 0x8C379A000000000000000000000000000000000000000000000000000000000 DUP2 MSTORE PUSH1 0x4 ADD PUSH2 0x8CA SWAP1 PUSH2 0x19EB JUMP JUMPDEST PUSH1 0x40 MLOAD DUP1 SWAP2 SUB SWAP1 REVERT JUMPDEST PUSH0 ISZERO ISZERO PUSH1 0x1 PUSH0 DUP5 PUSH20 0xFFFFFFFFFFFFFFFFFFFFFFFFFFFFFFFFFFFFFFFF AND PUSH20 0xFFFFFFFFFFFFFFFFFFFFFFFFFFFFFFFFFFFFFFFF AND DUP2 MSTORE PUSH1 0x20 ADD SWAP1 DUP2 MSTORE PUSH1 0x20 ADD PUSH0 KECCAK256 PUSH0 ADD PUSH0 SWAP1 SLOAD SWAP1 PUSH2 0x100 EXP SWAP1 DIV PUSH1 0xFF AND ISZERO ISZERO EQ PUSH2 0x964 JUMPI PUSH1 0x40 MLOAD PUSH32 0x8C379A000000000000000000000000000000000000000000000000000000000 DUP2 MSTORE PUSH1 0x4 ADD PUSH2 0x95B SWAP1 PUSH2 0x1FA8 JUMP JUMPDEST PUSH1 0x40 MLOAD DUP1 SWAP2 SUB SWAP1 REVERT JUMPDEST PUSH1 0x1 DUP1 PUSH0 DUP5 PUSH20 0xFFFFFFFFFFFFFFFFFFFFFFFFFFFFFFFFFFFFFFFF AND PUSH20 0xFFFFFFFFFFFFFFFFFFFFFFFFFFFFFFFFFFFFFFFF AND DUP2 MSTORE PUSH1 0x20 ADD SWAP1 DUP2 MSTORE PUSH1 0x20 ADD PUSH0 KECCAK256 PUSH0 ADD PUSH0 PUSH2 0x100 EXP DUP2 SLOAD DUP2 PUSH1 0xFF MUL NOT AND SWAP1 DUP4 ISZERO ISZERO MUL OR SWAP1 SSTORE POP PUSH1 0x2 DUP3 SWAP1 DUP1 PUSH1 0x1 DUP2 SLOAD ADD DUP1 DUP3 SSTORE DUP1 SWAP2 POP POP PUSH1 0x1 SWAP1 SUB SWAP1 PUSH0 MSTORE PUSH1 0x20 PUSH0 KECCAK256 ADD PUSH0 SWAP1 SWAP2 SWAP1 SWAP2 SWAP1 SWAP2 PUSH2 0x100 EXP DUP2 SLOAD DUP2 PUSH20 0xFFFFFFFFFFFFFFFFFFFFFFFFFFFFFFFFFFFFFFFF MUL NOT AND SWAP1 DUP4 PUSH20 0xFFFFFFFFFFFFFFFFFFFFFFFFFFFFFFFFFFFFFFFF AND MUL OR SWAP1 SSTORE POP PUSH32 0xB6BE2187D059CC2A55FE29E0E503B566E1E0F8C8780096E185429350ACFFD3DD DUP3 PUSH1 0x40 MLOAD PUSH2 0xA49 SWAP2 SWAP1 PUSH2 0x17CE JUMP JUMPDEST PUSH1 0x40 MLOAD DUP1 SWAP2 SUB SWAP1 LOG1 POP POP JUMP JUMPDEST PUSH2 0xA5D PUSH2 0x12CA JUMP JUMPDEST PUSH2 0xA66 PUSH0 PUSH2 0x1351 JUMP JUMPDEST JUMP JUMPDEST PUSH0 DUP1 PUSH0 SWAP1 SLOAD SWAP1 PUSH2 0x100 EXP SWAP1 DIV PUSH20 0xFFFFFFFFFFFFFFFFFFFFFFFFFFFFFFFFFFFFFFFF AND SWAP1 POP SWAP1 JUMP JUMPDEST PUSH2 0xA97 PUSH2 0x12CA JUMP JUMPDEST PUSH0 DUP1 PUSH1 0x5 DUP2 GT ISZERO PUSH2 0xAAB JUMPI PUSH2 0xAAA PUSH2 0x1964 JUMP JUMPDEST JUMPDEST PUSH1 0x6 PUSH0 SWAP1 SLOAD SWAP1 PUSH2 0x100 EXP SWAP1 DIV PUSH1 0xFF AND PUSH1 0x5 DUP2 GT ISZERO PUSH2 0xACC JUMPI PUSH2 0xACB PUSH2 0x1964 JUMP JUMPDEST JUMPDEST EQ PUSH2 0xB0C JUMPI PUSH1 0x40 MLOAD PUSH32 0x8C379A000000000000000000000000000000000000000000000000000000000 DUP2 MSTORE PUSH1 0x4 ADD PUSH2 0xB03 SWAP1 PUSH2 0x19EB JUMP JUMPDEST PUSH1 0x40 MLOAD DUP1 SWAP2 SUB SWAP1 REVERT JUMPDEST PUSH1 0x1 PUSH1 0x6 PUSH0 PUSH2 0x100 EXP DUP2 SLOAD DUP2 PUSH1 0xFF MUL NOT AND SWAP1 DUP4 PUSH1 0x5 DUP2 GT ISZERO PUSH2 0xB31 JUMPI PUSH2 0xB30 PUSH2 0x1964 JUMP JUMPDEST JUMPDEST MUL OR SWAP1 SSTORE POP PUSH32 0xA97A4EE45751E2ABF3E4FC8946939630B11B371EA8AE39CCDC3056E98F5CC3F PUSH0 PUSH1 0x6 PUSH0 SWAP1 SLOAD SWAP1 PUSH2 0x100 EXP SWAP1 DIV PUSH1 0xFF AND PUSH1 0x40 MLOAD PUSH2 0xB75 SWAP3 SWAP2 SWAP1 PUSH2 0x1C3B JUMP JUMPDEST PUSH1 0x40 MLOAD DUP1 SWAP2 SUB SWAP1 LOG1 POP JUMP JUMPDEST PUSH2 0xB88 PUSH2 0x12CA JUMP JUMPDEST PUSH1 0x4 DUP1 PUSH1 0x5 DUP2 GT ISZERO PUSH2 0xB9D JUMPI PUSH2 0xB9C PUSH2 0x1964 JUMP JUMPDEST JUMPDEST PUSH1 0x6 PUSH0 SWAP1 SLOAD SWAP1 PUSH2 0x100 EXP SWAP1 DIV PUSH1 0xFF AND PUSH1 0x5 DUP2 GT ISZERO PUSH2 0xBBE JUMPI PUSH2 0xBBD PUSH2 0x1964 JUMP JUMPDEST JUMPDEST EQ PUSH2 0xBFE JUMPI PUSH1 0x40 MLOAD PUSH32 0x8C379A000000000000000000000000000000000000000000000000000000000 DUP2 MSTORE PUSH1 0x4 ADD PUSH2 0xBF5 SWAP1 PUSH2 0x19EB JUMP JUMPDEST PUSH1 0x40 MLOAD DUP1 SWAP2 SUB SWAP1 REVERT JUMPDEST PUSH0 DUP1 PUSH0 JUMPDEST PUSH1 0x3 DUP1 SLOAD SWAP1 POP DUP2 LT ISZERO PUSH2 0xC77 JUMPI DUP3 PUSH1 0x3 DUP3 DUP2 SLOAD DUP2 LT PUSH2 0xC24 JUMPI PUSH2 0xC23 PUSH2 0x1B41 JUMP JUMPDEST JUMPDEST SWAP1 PUSH0 MSTORE PUSH1 0x20 PUSH0 KECCAK256 SWAP1 PUSH1 0x2 MUL ADD PUSH1 0x1 ADD SLOAD GT ISZERO PUSH2 0xC64 JUMPI PUSH1 0x3 DUP2 DUP2 SLOAD DUP2 LT PUSH2 0xC4E JUMPI PUSH2 0xC4D PUSH2 0x1B41 JUMP JUMPDEST JUMPDEST SWAP1 PUSH0 MSTORE PUSH1 0x20 PUSH0 KECCAK256 SWAP1 PUSH1 0x2 MUL ADD PUSH1 0x1 ADD SLOAD SWAP3 POP DUP1 SWAP2 POP JUMPDEST DUP1 DUP1 PUSH2 0xC6F SWAP1 PUSH2 0x1FC6 JUMP JUMPDEST SWAP2 POP POP PUSH2 0xC02 JUMP JUMPDEST POP PUSH1 0x4 PUSH0 PUSH2 0xC85 SWAP2 SWAP1 PUSH2 0x1432 JUMP JUMPDEST PUSH0 JUMPDEST PUSH1 0x3 DUP1 SLOAD SWAP1 POP DUP2 LT ISZERO PUSH2 0xD39 JUMPI DUP3 PUSH1 0x3 DUP3 DUP2 SLOAD DUP2 LT PUSH2 0xCA9 JUMPI PUSH2 0xCA8 PUSH2 0x1B41 JUMP JUMPDEST JUMPDEST SWAP1 PUSH0 MSTORE PUSH1 0x20 PUSH0 KECCAK256 SWAP1 PUSH1 0x2 MUL ADD PUSH1 0x1 ADD SLOAD SUB PUSH2 0xD26 JUMPI PUSH1 0x4 PUSH1 0x3 DUP3 DUP2 SLOAD DUP2 LT PUSH2 0xCD4 JUMPI PUSH2 0xCD3 PUSH2 0x1B41 JUMP JUMPDEST JUMPDEST SWAP1 PUSH0 MSTORE PUSH1 0x20 PUSH0 KECCAK256 SWAP1 PUSH1 0x2 MUL ADD SWAP1 DUP1 PUSH1 0x1 DUP2 SLOAD ADD DUP1 DUP3 SSTORE DUP1 SWAP2 POP POP PUSH1 0x1 SWAP1 SUB SWAP1 PUSH0 MSTORE PUSH1 0x20 PUSH0 KECCAK256 SWAP1 PUSH1 0x2 MUL ADD PUSH0 SWAP1 SWAP2 SWAP1 SWAP2 SWAP1 SWAP2 POP PUSH0 DUP3 ADD DUP2 PUSH0 ADD SWAP1 DUP2 PUSH2 0xD18 SWAP2 SWAP1 PUSH2 0x2022 JUMP JUMPDEST POP PUSH1 0x1 DUP3 ADD SLOAD DUP2 PUSH1 0x1 ADD SSTORE POP POP JUMPDEST DUP1 DUP1 PUSH2 0xD31 SWAP1 PUSH2 0x1FC6 JUMP JUMPDEST SWAP2 POP POP PUSH2 0xC87 JUMP JUMPDEST POP PUSH1 0x1 PUSH1 0x4 DUP1 SLOAD SWAP1 POP GT ISZERO PUSH2 0xE94 JUMPI PUSH1 0x3 PUSH0 PUSH2 0xD55 SWAP2 SWAP1 PUSH2 0x1432 JUMP JUMPDEST PUSH1 0x4 PUSH1 0x3 SWAP1 DUP1 SLOAD PUSH2 0xD67 SWAP3 SWAP2 SWAP1 PUSH2 0x1453 JUMP JUMPDEST POP PUSH0 JUMPDEST PUSH1 0x2 DUP1 SLOAD SWAP1 POP DUP2 LT ISZERO PUSH2 0xE1C JUMPI PUSH0 PUSH1 0x1 PUSH0 PUSH1 0x2 DUP5 DUP2 SLOAD DUP2 LT PUSH2 0xD8F JUMPI PUSH2 0xD8E PUSH2 0x1B41 JUMP JUMPDEST JUMPDEST SWAP1 PUSH0 MSTORE PUSH1 0x20 PUSH0 KECCAK256 ADD PUSH0 SWAP1 SLOAD SWAP1 PUSH2 0x100 EXP SWAP1 DIV PUSH20 0xFFFFFFFFFFFFFFFFFFFFFFFFFFFFFFFFFFFFFFFF AND PUSH20 0xFFFFFFFFFFFFFFFFFFFFFFFFFFFFFFFFFFFFFFFF AND PUSH20 0xFFFFFFFFFFFFFFFFFFFFFFFFFFFFFFFFFFFFFFFF AND DUP2 MSTORE PUSH1 0x20 ADD SWAP1 DUP2 MSTORE PUSH1 0x20 ADD PUSH0 KECCAK256 PUSH0 ADD PUSH1 0x1 PUSH2 0x100 EXP DUP2 SLOAD DUP2 PUSH1 0xFF MUL NOT AND SWAP1 DUP4 ISZERO ISZERO MUL OR SWAP1 SSTORE POP DUP1 DUP1 PUSH2 0xE14 SWAP1 PUSH2 0x1FC6 JUMP JUMPDEST SWAP2 POP POP PUSH2 0xD6A JUMP JUMPDEST POP PUSH1 0x3 PUSH1 0x6 PUSH0 PUSH2 0x100 EXP DUP2 SLOAD DUP2 PUSH1 0xFF MUL NOT AND SWAP1 DUP4 PUSH1 0x5 DUP2 GT ISZERO PUSH2 0xE42 JUMPI PUSH2 0xE41 PUSH2 0x1964 JUMP JUMPDEST JUMPDEST MUL OR SWAP1 SSTORE POP PUSH32 0xA97A4EE45751E2ABF3E4FC8946939630B11B371EA8AE39CCDC3056E98F5CC3F PUSH1 0x4 PUSH1 0x6 PUSH0 SWAP1 SLOAD SWAP1 PUSH2 0x100 EXP SWAP1 DIV PUSH1 0xFF AND PUSH1 0x40 MLOAD PUSH2 0xE87 SWAP3 SWAP2 SWAP1 PUSH2 0x1C3B JUMP JUMPDEST PUSH1 0x40 MLOAD DUP1 SWAP2 SUB SWAP1 LOG1 PUSH2 0xF0E JUMP JUMPDEST DUP1 PUSH1 0x5 DUP2 SWAP1 SSTORE POP PUSH1 0x5 PUSH1 0x6 PUSH0 PUSH2 0x100 EXP DUP2 SLOAD DUP2 PUSH1 0xFF MUL NOT AND SWAP1 DUP4 PUSH1 0x5 DUP2 GT ISZERO PUSH2 0xEC0 JUMPI PUSH2 0xEBF PUSH2 0x1964 JUMP JUMPDEST JUMPDEST MUL OR SWAP1 SSTORE POP PUSH32 0xA97A4EE45751E2ABF3E4FC8946939630B11B371EA8AE39CCDC3056E98F5CC3F PUSH1 0x4 PUSH1 0x6 PUSH0 SWAP1 SLOAD SWAP1 PUSH2 0x100 EXP SWAP1 DIV PUSH1 0xFF AND PUSH1 0x40 MLOAD PUSH2 0xF05 SWAP3 SWAP2 SWAP1 PUSH2 0x1C3B JUMP JUMPDEST PUSH1 0x40 MLOAD DUP1 SWAP2 SUB SWAP1 LOG1 JUMPDEST POP POP POP JUMP JUMPDEST PUSH1 0x60 PUSH1 0x3 DUP1 PUSH1 0x5 DUP2 GT ISZERO PUSH2 0xF2A JUMPI PUSH2 0xF29 PUSH2 0x1964 JUMP JUMPDEST JUMPDEST PUSH1 0x6 PUSH0 SWAP1 SLOAD SWAP1 PUSH2 0x100 EXP SWAP1 DIV PUSH1 0xFF AND PUSH1 0x5 DUP2 GT ISZERO PUSH2 0xF4B JUMPI PUSH2 0xF4A PUSH2 0x1964 JUMP JUMPDEST JUMPDEST EQ PUSH2 0xF8B JUMPI PUSH1 0x40 MLOAD PUSH32 0x8C379A000000000000000000000000000000000000000000000000000000000 DUP2 MSTORE PUSH1 0x4 ADD PUSH2 0xF82 SWAP1 PUSH2 0x19EB JUMP JUMPDEST PUSH1 0x40 MLOAD DUP1 SWAP2 SUB SWAP1 REVERT JUMPDEST PUSH0 PUSH1 0x3 DUP1 SLOAD SWAP1 POP PUSH8 0xFFFFFFFFFFFFFFFF DUP2 GT ISZERO PUSH2 0xFAB JUMPI PUSH2 0xFAA PUSH2 0x15CF JUMP JUMPDEST JUMPDEST PUSH1 0x40 MLOAD SWAP1 DUP1 DUP3 MSTORE DUP1 PUSH1 0x20 MUL PUSH1 0x20 ADD DUP3 ADD PUSH1 0x40 MSTORE DUP1 ISZERO PUSH2 0xFDE JUMPI DUP2 PUSH1 0x20 ADD JUMPDEST PUSH1 0x60 DUP2 MSTORE PUSH1 0x20 ADD SWAP1 PUSH1 0x1 SWAP1 SUB SWAP1 DUP2 PUSH2 0xFC9 JUMPI SWAP1 POP JUMPDEST POP SWAP1 POP PUSH0 JUMPDEST PUSH1 0x3 DUP1 SLOAD SWAP1 POP DUP2 LT ISZERO PUSH2 0x10CA JUMPI PUSH1 0x3 DUP2 DUP2 SLOAD DUP2 LT PUSH2 0x1004 JUMPI PUSH2 0x1003 PUSH2 0x1B41 JUMP JUMPDEST JUMPDEST SWAP1 PUSH0 MSTORE PUSH1 0x20 PUSH0 KECCAK256 SWAP1 PUSH1 0x2 MUL ADD PUSH0 ADD DUP1 SLOAD PUSH2 0x101D SWAP1 PUSH2 0x1C8F JUMP JUMPDEST DUP1 PUSH1 0x1F ADD PUSH1 0x20 DUP1 SWAP2 DIV MUL PUSH1 0x20 ADD PUSH1 0x40 MLOAD SWAP1 DUP2 ADD PUSH1 0x40 MSTORE DUP1 SWAP3 SWAP2 SWAP1 DUP2 DUP2 MSTORE PUSH1 0x20 ADD DUP3 DUP1 SLOAD PUSH2 0x1049 SWAP1 PUSH2 0x1C8F JUMP JUMPDEST DUP1 ISZERO PUSH2 0x1094 JUMPI DUP1 PUSH1 0x1F LT PUSH2 0x106B JUMPI PUSH2 0x100 DUP1 DUP4 SLOAD DIV MUL DUP4 MSTORE SWAP2 PUSH1 0x20 ADD SWAP2 PUSH2 0x1094 JUMP JUMPDEST DUP3 ADD SWAP2 SWAP1 PUSH0 MSTORE PUSH1 0x20 PUSH0 KECCAK256 SWAP1 JUMPDEST DUP2 SLOAD DUP2 MSTORE SWAP1 PUSH1 0x1 ADD SWAP1 PUSH1 0x20 ADD DUP1 DUP4 GT PUSH2 0x1077 JUMPI DUP3 SWAP1 SUB PUSH1 0x1F AND DUP3 ADD SWAP2 JUMPDEST POP POP POP POP POP DUP3 DUP3 DUP2 MLOAD DUP2 LT PUSH2 0x10AC JUMPI PUSH2 0x10AB PUSH2 0x1B41 JUMP JUMPDEST JUMPDEST PUSH1 0x20 MUL PUSH1 0x20 ADD ADD DUP2 SWAP1 MSTORE POP DUP1 DUP1 PUSH2 0x10C2 SWAP1 PUSH2 0x1FC6 JUMP JUMPDEST SWAP2 POP POP PUSH2 0xFE3 JUMP JUMPDEST POP DUP1 SWAP3 POP POP POP SWAP1 JUMP JUMPDEST PUSH0 PUSH1 0x5 DUP1 PUSH1 0x5 DUP2 GT ISZERO PUSH2 0x10E9 JUMPI PUSH2 0x10E8 PUSH2 0x1964 JUMP JUMPDEST JUMPDEST PUSH1 0x6 PUSH0 SWAP1 SLOAD SWAP1 PUSH2 0x100 EXP SWAP1 DIV PUSH1 0xFF AND PUSH1 0x5 DUP2 GT ISZERO PUSH2 0x110A JUMPI PUSH2 0x1109 PUSH2 0x1964 JUMP JUMPDEST JUMPDEST EQ PUSH2 0x114A JUMPI PUSH1 0x40 MLOAD PUSH32 0x8C379A000000000000000000000000000000000000000000000000000000000 DUP2 MSTORE PUSH1 0x4 ADD PUSH2 0x1141 SWAP1 PUSH2 0x19EB JUMP JUMPDEST PUSH1 0x40 MLOAD DUP1 SWAP2 SUB SWAP1 REVERT JUMPDEST PUSH1 0x5 SLOAD SWAP2 POP POP SWAP1 JUMP JUMPDEST PUSH2 0x115B PUSH2 0x12CA JUMP JUMPDEST PUSH1 0x2 DUP1 PUSH1 0x5 DUP2 GT ISZERO PUSH2 0x1170 JUMPI PUSH2 0x116F PUSH2 0x1964 JUMP JUMPDEST JUMPDEST PUSH1 0x6 PUSH0 SWAP1 SLOAD SWAP1 PUSH2 0x100 EXP SWAP1 DIV PUSH1 0xFF AND PUSH1 0x5 DUP2 GT ISZERO PUSH2 0x1191 JUMPI PUSH2 0x1190 PUSH2 0x1964 JUMP JUMPDEST JUMPDEST EQ PUSH2 0x11D1 JUMPI PUSH1 0x40 MLOAD PUSH32 0x8C379A000000000000000000000000000000000000000000000000000000000 DUP2 MSTORE PUSH1 0x4 ADD PUSH2 0x11C8 SWAP1 PUSH2 0x19EB JUMP JUMPDEST PUSH1 0x40 MLOAD DUP1 SWAP2 SUB SWAP1 REVERT JUMPDEST PUSH1 0x3 PUSH1 0x6 PUSH0 PUSH2 0x100 EXP DUP2 SLOAD DUP2 PUSH1 0xFF MUL NOT AND SWAP1 DUP4 PUSH1 0x5 DUP2 GT ISZERO PUSH2 0x11F6 JUMPI PUSH2 0x11F5 PUSH2 0x1964 JUMP JUMPDEST JUMPDEST MUL OR SWAP1 SSTORE POP PUSH32 0xA97A4EE45751E2ABF3E4FC8946939630B11B371EA8AE39CCDC3056E98F5CC3F PUSH1 0x2 PUSH1 0x6 PUSH0 SWAP1 SLOAD SWAP1 PUSH2 0x100 EXP SWAP1 DIV PUSH1 0xFF AND PUSH1 0x40 MLOAD PUSH2 0x123B SWAP3 SWAP2 SWAP1 PUSH2 0x1C3B JUMP JUMPDEST PUSH1 0x40 MLOAD DUP1 SWAP2 SUB SWAP1 LOG1 POP JUMP JUMPDEST PUSH2 0x124E PUSH2 0x12CA JUMP JUMPDEST PUSH0 PUSH20 0xFFFFFFFFFFFFFFFFFFFFFFFFFFFFFFFFFFFFFFFF AND DUP2 PUSH20 0xFFFFFFFFFFFFFFFFFFFFFFFFFFFFFFFFFFFFFFFF AND SUB PUSH2 0x12BE JUMPI PUSH0 PUSH1 0x40 MLOAD PUSH32 0x1E4FBDF700000000000000000000000000000000000000000000000000000000 DUP2 MSTORE PUSH1 0x4 ADD PUSH2 0x12B5 SWAP2 SWAP1 PUSH2 0x17CE JUMP JUMPDEST PUSH1 0x40 MLOAD DUP1 SWAP2 SUB SWAP1 REVERT JUMPDEST PUSH2 0x12C7 DUP2 PUSH2 0x1351 JUMP JUMPDEST POP JUMP JUMPDEST PUSH2 0x12D2 PUSH2 0x1412 JUMP JUMPDEST PUSH20 0xFFFFFFFFFFFFFFFFFFFFFFFFFFFFFFFFFFFFFFFF AND PUSH2 0x12F0 PUSH2 0xA68 JUMP JUMPDEST PUSH20 0xFFFFFFFFFFFFFFFFFFFFFFFFFFFFFFFFFFFFFFFF AND EQ PUSH2 0x134F JUMPI PUSH2 0x1313 PUSH2 0x1412 JUMP JUMPDEST PUSH1 0x40 MLOAD PUSH32 0x118CDAA700000000000000000000000000000000000000000000000000000000 DUP2 MSTORE PUSH1 0x4 ADD PUSH2 0x1346 SWAP2 SWAP1 PUSH2 0x17CE JUMP JUMPDEST PUSH1 0x40 MLOAD DUP1 SWAP2 SUB SWAP1 REVERT JUMPDEST JUMP JUMPDEST PUSH0 DUP1 PUSH0 SWAP1 SLOAD SWAP1 PUSH2 0x100 EXP SWAP1 DIV PUSH20 0xFFFFFFFFFFFFFFFFFFFFFFFFFFFFFFFFFFFFFFFF AND SWAP1 POP DUP2 PUSH0 DUP1 PUSH2 0x100 EXP DUP2 SLOAD DUP2 PUSH20 0xFFFFFFFFFFFFFFFFFFFFFFFFFFFFFFFFFFFFFFFF MUL NOT AND SWAP1 DUP4 PUSH20 0xFFFFFFFFFFFFFFFFFFFFFFFFFFFFFFFFFFFFFFFF AND MUL OR SWAP1 SSTORE POP DUP2 PUSH20 0xFFFFFFFFFFFFFFFFFFFFFFFFFFFFFFFFFFFFFFFF AND DUP2 PUSH20 0xFFFFFFFFFFFFFFFFFFFFFFFFFFFFFFFFFFFFFFFF AND PUSH32 0x8BE0079C531659141344CD1FD0A4F28419497F9722A3DAAFE3B4186F6B6457E0 PUSH1 0x40 MLOAD PUSH1 0x40 MLOAD DUP1 SWAP2 SUB SWAP1 LOG3 POP POP JUMP JUMPDEST PUSH0 CALLER SWAP1 POP SWAP1 JUMP JUMPDEST PUSH1 0x40 MLOAD DUP1 PUSH1 0x40 ADD PUSH1 0x40 MSTORE DUP1 PUSH1 0x60 DUP2 MSTORE PUSH1 0x20 ADD PUSH0 DUP2 MSTORE POP SWAP1 JUMP JUMPDEST POP DUP1 SLOAD PUSH0 DUP3 SSTORE PUSH1 0x2 MUL SWAP1 PUSH0 MSTORE PUSH1 0x20 PUSH0 KECCAK256 SWAP1 DUP2 ADD SWAP1 PUSH2 0x1450 SWAP2 SWAP1 PUSH2 0x14C4 JUMP JUMPDEST POP JUMP JUMPDEST DUP3 DUP1 SLOAD DUP3 DUP3 SSTORE SWAP1 PUSH0 MSTORE PUSH1 0x20 PUSH0 KECCAK256 SWAP1 PUSH1 0x2 MUL DUP2 ADD SWAP3 DUP3 ISZERO PUSH2 0x14B3 JUMPI PUSH0 MSTORE PUSH1 0x20 PUSH0 KECCAK256 SWAP2 PUSH1 0x2 MUL DUP3 ADD JUMPDEST DUP3 DUP2 GT ISZERO PUSH2 0x14B2 JUMPI DUP3 DUP3 PUSH0 DUP3 ADD DUP2 PUSH0 ADD SWAP1 DUP2 PUSH2 0x1496 SWAP2 SWAP1 PUSH2 0x2022 JUMP JUMPDEST POP PUSH1 0x1 DUP3 ADD SLOAD DUP2 PUSH1 0x1 ADD SSTORE POP POP SWAP2 PUSH1 0x2 ADD SWAP2 SWAP1 PUSH1 0x2 ADD SWAP1 PUSH2 0x147A JUMP JUMPDEST JUMPDEST POP SWAP1 POP PUSH2 0x14C0 SWAP2 SWAP1 PUSH2 0x14C4 JUMP JUMPDEST POP SWAP1 JUMP JUMPDEST JUMPDEST DUP1 DUP3 GT ISZERO PUSH2 0x14EC JUMPI PUSH0 DUP1 DUP3 ADD PUSH0 PUSH2 0x14DC SWAP2 SWAP1 PUSH2 0x14F0 JUMP JUMPDEST PUSH1 0x1 DUP3 ADD PUSH0 SWAP1 SSTORE POP PUSH1 0x2 ADD PUSH2 0x14C5 JUMP JUMPDEST POP SWAP1 JUMP JUMPDEST POP DUP1 SLOAD PUSH2 0x14FC SWAP1 PUSH2 0x1C8F JUMP JUMPDEST PUSH0 DUP3 SSTORE DUP1 PUSH1 0x1F LT PUSH2 0x150D JUMPI POP PUSH2 0x152A JUMP JUMPDEST PUSH1 0x1F ADD PUSH1 0x20 SWAP1 DIV SWAP1 PUSH0 MSTORE PUSH1 0x20 PUSH0 KECCAK256 SWAP1 DUP2 ADD SWAP1 PUSH2 0x1529 SWAP2 SWAP1 PUSH2 0x152D JUMP JUMPDEST JUMPDEST POP JUMP JUMPDEST JUMPDEST DUP1 DUP3 GT ISZERO PUSH2 0x1544 JUMPI PUSH0 DUP2 PUSH0 SWAP1 SSTORE POP PUSH1 0x1 ADD PUSH2 0x152E JUMP JUMPDEST POP SWAP1 JUMP JUMPDEST PUSH0 PUSH1 0x40 MLOAD SWAP1 POP SWAP1 JUMP JUMPDEST PUSH0 DUP1 REVERT JUMPDEST PUSH0 DUP1 REVERT JUMPDEST PUSH0 DUP2 SWAP1 POP SWAP2 SWAP1 POP JUMP JUMPDEST PUSH2 0x156B DUP2 PUSH2 0x1559 JUMP JUMPDEST DUP2 EQ PUSH2 0x1575 JUMPI PUSH0 DUP1 REVERT JUMPDEST POP JUMP JUMPDEST PUSH0 DUP2 CALLDATALOAD SWAP1 POP PUSH2 0x1586 DUP2 PUSH2 0x1562 JUMP JUMPDEST SWAP3 SWAP2 POP POP JUMP JUMPDEST PUSH0 PUSH1 0x20 DUP3 DUP5 SUB SLT ISZERO PUSH2 0x15A1 JUMPI PUSH2 0x15A0 PUSH2 0x1551 JUMP JUMPDEST JUMPDEST PUSH0 PUSH2 0x15AE DUP5 DUP3 DUP6 ADD PUSH2 0x1578 JUMP JUMPDEST SWAP2 POP POP SWAP3 SWAP2 POP POP JUMP JUMPDEST PUSH0 DUP1 REVERT JUMPDEST PUSH0 DUP1 REVERT JUMPDEST PUSH0 PUSH1 0x1F NOT PUSH1 0x1F DUP4 ADD AND SWAP1 POP SWAP2 SWAP1 POP JUMP JUMPDEST PUSH32 0x4E487B7100000000000000000000000000000000000000000000000000000000 PUSH0 MSTORE PUSH1 0x41 PUSH1 0x4 MSTORE PUSH1 0x24 PUSH0 REVERT JUMPDEST PUSH2 0x1605 DUP3 PUSH2 0x15BF JUMP JUMPDEST DUP2 ADD DUP2 DUP2 LT PUSH8 0xFFFFFFFFFFFFFFFF DUP3 GT OR ISZERO PUSH2 0x1624 JUMPI PUSH2 0x1623 PUSH2 0x15CF JUMP JUMPDEST JUMPDEST DUP1 PUSH1 0x40 MSTORE POP POP POP JUMP JUMPDEST PUSH0 PUSH2 0x1636 PUSH2 0x1548 JUMP JUMPDEST SWAP1 POP PUSH2 0x1642 DUP3 DUP3 PUSH2 0x15FC JUMP JUMPDEST SWAP2 SWAP1 POP JUMP JUMPDEST PUSH0 PUSH8 0xFFFFFFFFFFFFFFFF DUP3 GT ISZERO PUSH2 0x1661 JUMPI PUSH2 0x1660 PUSH2 0x15CF JUMP JUMPDEST JUMPDEST PUSH2 0x166A DUP3 PUSH2 0x15BF JUMP JUMPDEST SWAP1 POP PUSH1 0x20 DUP2 ADD SWAP1 POP SWAP2 SWAP1 POP JUMP JUMPDEST DUP3 DUP2 DUP4 CALLDATACOPY PUSH0 DUP4 DUP4 ADD MSTORE POP POP POP JUMP JUMPDEST PUSH0 PUSH2 0x1697 PUSH2 0x1692 DUP5 PUSH2 0x1647 JUMP JUMPDEST PUSH2 0x162D JUMP JUMPDEST SWAP1 POP DUP3 DUP2 MSTORE PUSH1 0x20 DUP2 ADD DUP5 DUP5 DUP5 ADD GT ISZERO PUSH2 0x16B3 JUMPI PUSH2 0x16B2 PUSH2 0x15BB JUMP JUMPDEST JUMPDEST PUSH2 0x16BE DUP5 DUP3 DUP6 PUSH2 0x1677 JUMP JUMPDEST POP SWAP4 SWAP3 POP POP POP JUMP JUMPDEST PUSH0 DUP3 PUSH1 0x1F DUP4 ADD SLT PUSH2 0x16DA JUMPI PUSH2 0x16D9 PUSH2 0x15B7 JUMP JUMPDEST JUMPDEST DUP2 CALLDATALOAD PUSH2 0x16EA DUP5 DUP3 PUSH1 0x20 DUP7 ADD PUSH2 0x1685 JUMP JUMPDEST SWAP2 POP POP SWAP3 SWAP2 POP POP JUMP JUMPDEST PUSH0 PUSH1 0x20 DUP3 DUP5 SUB SLT ISZERO PUSH2 0x1708 JUMPI PUSH2 0x1707 PUSH2 0x1551 JUMP JUMPDEST JUMPDEST PUSH0 DUP3 ADD CALLDATALOAD PUSH8 0xFFFFFFFFFFFFFFFF DUP2 GT ISZERO PUSH2 0x1725 JUMPI PUSH2 0x1724 PUSH2 0x1555 JUMP JUMPDEST JUMPDEST PUSH2 0x1731 DUP5 DUP3 DUP6 ADD PUSH2 0x16C6 JUMP JUMPDEST SWAP2 POP POP SWAP3 SWAP2 POP POP JUMP JUMPDEST PUSH0 PUSH20 0xFFFFFFFFFFFFFFFFFFFFFFFFFFFFFFFFFFFFFFFF DUP3 AND SWAP1 POP SWAP2 SWAP1 POP JUMP JUMPDEST PUSH0 PUSH2 0x1763 DUP3 PUSH2 0x173A JUMP JUMPDEST SWAP1 POP SWAP2 SWAP1 POP JUMP JUMPDEST PUSH2 0x1773 DUP2 PUSH2 0x1759 JUMP JUMPDEST DUP2 EQ PUSH2 0x177D JUMPI PUSH0 DUP1 REVERT JUMPDEST POP JUMP JUMPDEST PUSH0 DUP2 CALLDATALOAD SWAP1 POP PUSH2 0x178E DUP2 PUSH2 0x176A JUMP JUMPDEST SWAP3 SWAP2 POP POP JUMP JUMPDEST PUSH0 PUSH1 0x20 DUP3 DUP5 SUB SLT ISZERO PUSH2 0x17A9 JUMPI PUSH2 0x17A8 PUSH2 0x1551 JUMP JUMPDEST JUMPDEST PUSH0 PUSH2 0x17B6 DUP5 DUP3 DUP6 ADD PUSH2 0x1780 JUMP JUMPDEST SWAP2 POP POP SWAP3 SWAP2 POP POP JUMP JUMPDEST PUSH2 0x17C8 DUP2 PUSH2 0x1759 JUMP JUMPDEST DUP3 MSTORE POP POP JUMP JUMPDEST PUSH0 PUSH1 0x20 DUP3 ADD SWAP1 POP PUSH2 0x17E1 PUSH0 DUP4 ADD DUP5 PUSH2 0x17BF JUMP JUMPDEST SWAP3 SWAP2 POP POP JUMP JUMPDEST PUSH0 DUP2 MLOAD SWAP1 POP SWAP2 SWAP1 POP JUMP JUMPDEST PUSH0 DUP3 DUP3 MSTORE PUSH1 0x20 DUP3 ADD SWAP1 POP SWAP3 SWAP2 POP POP JUMP JUMPDEST PUSH0 DUP2 SWAP1 POP PUSH1 0x20 DUP3 ADD SWAP1 POP SWAP2 SWAP1 POP JUMP JUMPDEST PUSH0 DUP2 MLOAD SWAP1 POP SWAP2 SWAP1 POP JUMP JUMPDEST PUSH0 DUP3 DUP3 MSTORE PUSH1 0x20 DUP3 ADD SWAP1 POP SWAP3 SWAP2 POP POP JUMP JUMPDEST PUSH0 JUMPDEST DUP4 DUP2 LT ISZERO PUSH2 0x1847 JUMPI DUP1 DUP3 ADD MLOAD DUP2 DUP5 ADD MSTORE PUSH1 0x20 DUP2 ADD SWAP1 POP PUSH2 0x182C JUMP JUMPDEST PUSH0 DUP5 DUP5 ADD MSTORE POP POP POP POP JUMP JUMPDEST PUSH0 PUSH2 0x185C DUP3 PUSH2 0x1810 JUMP JUMPDEST PUSH2 0x1866 DUP2 DUP6 PUSH2 0x181A JUMP JUMPDEST SWAP4 POP PUSH2 0x1876 DUP2 DUP6 PUSH1 0x20 DUP7 ADD PUSH2 0x182A JUMP JUMPDEST PUSH2 0x187F DUP2 PUSH2 0x15BF JUMP JUMPDEST DUP5 ADD SWAP2 POP POP SWAP3 SWAP2 POP POP JUMP JUMPDEST PUSH0 PUSH2 0x1895 DUP4 DUP4 PUSH2 0x1852 JUMP JUMPDEST SWAP1 POP SWAP3 SWAP2 POP POP JUMP JUMPDEST PUSH0 PUSH1 0x20 DUP3 ADD SWAP1 POP SWAP2 SWAP1 POP JUMP JUMPDEST PUSH0 PUSH2 0x18B3 DUP3 PUSH2 0x17E7 JUMP JUMPDEST PUSH2 0x18BD DUP2 DUP6 PUSH2 0x17F1 JUMP JUMPDEST SWAP4 POP DUP4 PUSH1 0x20 DUP3 MUL DUP6 ADD PUSH2 0x18CF DUP6 PUSH2 0x1801 JUMP JUMPDEST DUP1 PUSH0 JUMPDEST DUP6 DUP2 LT ISZERO PUSH2 0x190A JUMPI DUP5 DUP5 SUB DUP10 MSTORE DUP2 MLOAD PUSH2 0x18EB DUP6 DUP3 PUSH2 0x188A JUMP JUMPDEST SWAP5 POP PUSH2 0x18F6 DUP4 PUSH2 0x189D JUMP JUMPDEST SWAP3 POP PUSH1 0x20 DUP11 ADD SWAP10 POP POP PUSH1 0x1 DUP2 ADD SWAP1 POP PUSH2 0x18D2 JUMP JUMPDEST POP DUP3 SWAP8 POP DUP8 SWAP6 POP POP POP POP POP POP SWAP3 SWAP2 POP POP JUMP JUMPDEST PUSH0 PUSH1 0x20 DUP3 ADD SWAP1 POP DUP2 DUP2 SUB PUSH0 DUP4 ADD MSTORE PUSH2 0x1934 DUP2 DUP5 PUSH2 0x18A9 JUMP JUMPDEST SWAP1 POP SWAP3 SWAP2 POP POP JUMP JUMPDEST PUSH2 0x1945 DUP2 PUSH2 0x1559 JUMP JUMPDEST DUP3 MSTORE POP POP JUMP JUMPDEST PUSH0 PUSH1 0x20 DUP3 ADD SWAP1 POP PUSH2 0x195E PUSH0 DUP4 ADD DUP5 PUSH2 0x193C JUMP JUMPDEST SWAP3 SWAP2 POP POP JUMP JUMPDEST PUSH32 0x4E487B7100000000000000000000000000000000000000000000000000000000 PUSH0 MSTORE PUSH1 0x21 PUSH1 0x4 MSTORE PUSH1 0x24 PUSH0 REVERT JUMPDEST PUSH0 DUP3 DUP3 MSTORE PUSH1 0x20 DUP3 ADD SWAP1 POP SWAP3 SWAP2 POP POP JUMP JUMPDEST PUSH32 0x49742773206E6F742074686520676F6F642073746167652E0000000000000000 PUSH0 DUP3 ADD MSTORE POP JUMP JUMPDEST PUSH0 PUSH2 0x19D5 PUSH1 0x18 DUP4 PUSH2 0x1991 JUMP JUMPDEST SWAP2 POP PUSH2 0x19E0 DUP3 PUSH2 0x19A1 JUMP JUMPDEST PUSH1 0x20 DUP3 ADD SWAP1 POP SWAP2 SWAP1 POP JUMP JUMPDEST PUSH0 PUSH1 0x20 DUP3 ADD SWAP1 POP DUP2 DUP2 SUB PUSH0 DUP4 ADD MSTORE PUSH2 0x1A02 DUP2 PUSH2 0x19C9 JUMP JUMPDEST SWAP1 POP SWAP2 SWAP1 POP JUMP JUMPDEST PUSH32 0x54686520766F746572206973206E6F7420726567697374657265642100000000 PUSH0 DUP3 ADD MSTORE POP JUMP JUMPDEST PUSH0 PUSH2 0x1A3D PUSH1 0x1C DUP4 PUSH2 0x1991 JUMP JUMPDEST SWAP2 POP PUSH2 0x1A48 DUP3 PUSH2 0x1A09 JUMP JUMPDEST PUSH1 0x20 DUP3 ADD SWAP1 POP SWAP2 SWAP1 POP JUMP JUMPDEST PUSH0 PUSH1 0x20 DUP3 ADD SWAP1 POP DUP2 DUP2 SUB PUSH0 DUP4 ADD MSTORE PUSH2 0x1A6A DUP2 PUSH2 0x1A31 JUMP JUMPDEST SWAP1 POP SWAP2 SWAP1 POP JUMP JUMPDEST PUSH32 0x54686520766F7465722068617320616C726561647920766F7465642100000000 PUSH0 DUP3 ADD MSTORE POP JUMP JUMPDEST PUSH0 PUSH2 0x1AA5 PUSH1 0x1C DUP4 PUSH2 0x1991 JUMP JUMPDEST SWAP2 POP PUSH2 0x1AB0 DUP3 PUSH2 0x1A71 JUMP JUMPDEST PUSH1 0x20 DUP3 ADD SWAP1 POP SWAP2 SWAP1 POP JUMP JUMPDEST PUSH0 PUSH1 0x20 DUP3 ADD SWAP1 POP DUP2 DUP2 SUB PUSH0 DUP4 ADD MSTORE PUSH2 0x1AD2 DUP2 PUSH2 0x1A99 JUMP JUMPDEST SWAP1 POP SWAP2 SWAP1 POP JUMP JUMPDEST PUSH32 0x5468652070726F706F73616C20646F65736E2774206578697374210000000000 PUSH0 DUP3 ADD MSTORE POP JUMP JUMPDEST PUSH0 PUSH2 0x1B0D PUSH1 0x1B DUP4 PUSH2 0x1991 JUMP JUMPDEST SWAP2 POP PUSH2 0x1B18 DUP3 PUSH2 0x1AD9 JUMP JUMPDEST PUSH1 0x20 DUP3 ADD SWAP1 POP SWAP2 SWAP1 POP JUMP JUMPDEST PUSH0 PUSH1 0x20 DUP3 ADD SWAP1 POP DUP2 DUP2 SUB PUSH0 DUP4 ADD MSTORE PUSH2 0x1B3A DUP2 PUSH2 0x1B01 JUMP JUMPDEST SWAP1 POP SWAP2 SWAP1 POP JUMP JUMPDEST PUSH32 0x4E487B7100000000000000000000000000000000000000000000000000000000 PUSH0 MSTORE PUSH1 0x32 PUSH1 0x4 MSTORE PUSH1 0x24 PUSH0 REVERT JUMPDEST PUSH32 0x4E487B7100000000000000000000000000000000000000000000000000000000 PUSH0 MSTORE PUSH1 0x11 PUSH1 0x4 MSTORE PUSH1 0x24 PUSH0 REVERT JUMPDEST PUSH0 PUSH2 0x1BA5 DUP3 PUSH2 0x1559 JUMP JUMPDEST SWAP2 POP PUSH2 0x1BB0 DUP4 PUSH2 0x1559 JUMP JUMPDEST SWAP3 POP DUP3 DUP3 ADD SWAP1 POP DUP1 DUP3 GT ISZERO PUSH2 0x1BC8 JUMPI PUSH2 0x1BC7 PUSH2 0x1B6E JUMP JUMPDEST JUMPDEST SWAP3 SWAP2 POP POP JUMP JUMPDEST PUSH0 PUSH1 0x40 DUP3 ADD SWAP1 POP PUSH2 0x1BE1 PUSH0 DUP4 ADD DUP6 PUSH2 0x17BF JUMP JUMPDEST PUSH2 0x1BEE PUSH1 0x20 DUP4 ADD DUP5 PUSH2 0x193C JUMP JUMPDEST SWAP4 SWAP3 POP POP POP JUMP JUMPDEST PUSH1 0x6 DUP2 LT PUSH2 0x1C06 JUMPI PUSH2 0x1C05 PUSH2 0x1964 JUMP JUMPDEST JUMPDEST POP JUMP JUMPDEST PUSH0 DUP2 SWAP1 POP PUSH2 0x1C16 DUP3 PUSH2 0x1BF5 JUMP JUMPDEST SWAP2 SWAP1 POP JUMP JUMPDEST PUSH0 PUSH2 0x1C25 DUP3 PUSH2 0x1C09 JUMP JUMPDEST SWAP1 POP SWAP2 SWAP1 POP JUMP JUMPDEST PUSH2 0x1C35 DUP2 PUSH2 0x1C1B JUMP JUMPDEST DUP3 MSTORE POP POP JUMP JUMPDEST PUSH0 PUSH1 0x40 DUP3 ADD SWAP1 POP PUSH2 0x1C4E PUSH0 DUP4 ADD DUP6 PUSH2 0x1C2C JUMP JUMPDEST PUSH2 0x1C5B PUSH1 0x20 DUP4 ADD DUP5 PUSH2 0x1C2C JUMP JUMPDEST SWAP4 SWAP3 POP POP POP JUMP JUMPDEST PUSH32 0x4E487B7100000000000000000000000000000000000000000000000000000000 PUSH0 MSTORE PUSH1 0x22 PUSH1 0x4 MSTORE PUSH1 0x24 PUSH0 REVERT JUMPDEST PUSH0 PUSH1 0x2 DUP3 DIV SWAP1 POP PUSH1 0x1 DUP3 AND DUP1 PUSH2 0x1CA6 JUMPI PUSH1 0x7F DUP3 AND SWAP2 POP JUMPDEST PUSH1 0x20 DUP3 LT DUP2 SUB PUSH2 0x1CB9 JUMPI PUSH2 0x1CB8 PUSH2 0x1C62 JUMP JUMPDEST JUMPDEST POP SWAP2 SWAP1 POP JUMP JUMPDEST PUSH0 DUP2 SWAP1 POP DUP2 PUSH0 MSTORE PUSH1 0x20 PUSH0 KECCAK256 SWAP1 POP SWAP2 SWAP1 POP JUMP JUMPDEST PUSH0 PUSH1 0x20 PUSH1 0x1F DUP4 ADD DIV SWAP1 POP SWAP2 SWAP1 POP JUMP JUMPDEST PUSH0 DUP3 DUP3 SHL SWAP1 POP SWAP3 SWAP2 POP POP JUMP JUMPDEST PUSH0 PUSH1 0x8 DUP4 MUL PUSH2 0x1D1B PUSH32 0xFFFFFFFFFFFFFFFFFFFFFFFFFFFFFFFFFFFFFFFFFFFFFFFFFFFFFFFFFFFFFFFF DUP3 PUSH2 0x1CE0 JUMP JUMPDEST PUSH2 0x1D25 DUP7 DUP4 PUSH2 0x1CE0 JUMP JUMPDEST SWAP6 POP DUP1 NOT DUP5 AND SWAP4 POP DUP1 DUP7 AND DUP5 OR SWAP3 POP POP POP SWAP4 SWAP3 POP POP POP JUMP JUMPDEST PUSH0 DUP2 SWAP1 POP SWAP2 SWAP1 POP JUMP JUMPDEST PUSH0 PUSH2 0x1D60 PUSH2 0x1D5B PUSH2 0x1D56 DUP5 PUSH2 0x1559 JUMP JUMPDEST PUSH2 0x1D3D JUMP JUMPDEST PUSH2 0x1559 JUMP JUMPDEST SWAP1 POP SWAP2 SWAP1 POP JUMP JUMPDEST PUSH0 DUP2 SWAP1 POP SWAP2 SWAP1 POP JUMP JUMPDEST PUSH2 0x1D79 DUP4 PUSH2 0x1D46 JUMP JUMPDEST PUSH2 0x1D8D PUSH2 0x1D85 DUP3 PUSH2 0x1D67 JUMP JUMPDEST DUP5 DUP5 SLOAD PUSH2 0x1CEC JUMP JUMPDEST DUP3 SSTORE POP POP POP POP JUMP JUMPDEST PUSH0 SWAP1 JUMP JUMPDEST PUSH2 0x1DA1 PUSH2 0x1D95 JUMP JUMPDEST PUSH2 0x1DAC DUP2 DUP5 DUP5 PUSH2 0x1D70 JUMP JUMPDEST POP POP POP JUMP JUMPDEST JUMPDEST DUP2 DUP2 LT ISZERO PUSH2 0x1DCF JUMPI PUSH2 0x1DC4 PUSH0 DUP3 PUSH2 0x1D99 JUMP JUMPDEST PUSH1 0x1 DUP2 ADD SWAP1 POP PUSH2 0x1DB2 JUMP JUMPDEST POP POP JUMP JUMPDEST PUSH1 0x1F DUP3 GT ISZERO PUSH2 0x1E14 JUMPI PUSH2 0x1DE5 DUP2 PUSH2 0x1CBF JUMP JUMPDEST PUSH2 0x1DEE DUP5 PUSH2 0x1CD1 JUMP JUMPDEST DUP2 ADD PUSH1 0x20 DUP6 LT ISZERO PUSH2 0x1DFD JUMPI DUP2 SWAP1 POP JUMPDEST PUSH2 0x1E11 PUSH2 0x1E09 DUP6 PUSH2 0x1CD1 JUMP JUMPDEST DUP4 ADD DUP3 PUSH2 0x1DB1 JUMP JUMPDEST POP POP JUMPDEST POP POP POP JUMP JUMPDEST PUSH0 DUP3 DUP3 SHR SWAP1 POP SWAP3 SWAP2 POP POP JUMP JUMPDEST PUSH0 PUSH2 0x1E34 PUSH0 NOT DUP5 PUSH1 0x8 MUL PUSH2 0x1E19 JUMP JUMPDEST NOT DUP1 DUP4 AND SWAP2 POP POP SWAP3 SWAP2 POP POP JUMP JUMPDEST PUSH0 PUSH2 0x1E4C DUP4 DUP4 PUSH2 0x1E25 JUMP JUMPDEST SWAP2 POP DUP3 PUSH1 0x2 MUL DUP3 OR SWAP1 POP SWAP3 SWAP2 POP POP JUMP JUMPDEST PUSH2 0x1E65 DUP3 PUSH2 0x1810 JUMP JUMPDEST PUSH8 0xFFFFFFFFFFFFFFFF DUP2 GT ISZERO PUSH2 0x1E7E JUMPI PUSH2 0x1E7D PUSH2 0x15CF JUMP JUMPDEST JUMPDEST PUSH2 0x1E88 DUP3 SLOAD PUSH2 0x1C8F JUMP JUMPDEST PUSH2 0x1E93 DUP3 DUP3 DUP6 PUSH2 0x1DD3 JUMP JUMPDEST PUSH0 PUSH1 0x20 SWAP1 POP PUSH1 0x1F DUP4 GT PUSH1 0x1 DUP2 EQ PUSH2 0x1EC4 JUMPI PUSH0 DUP5 ISZERO PUSH2 0x1EB2 JUMPI DUP3 DUP8 ADD MLOAD SWAP1 POP JUMPDEST PUSH2 0x1EBC DUP6 DUP3 PUSH2 0x1E41 JUMP JUMPDEST DUP7 SSTORE POP PUSH2 0x1F23 JUMP JUMPDEST PUSH1 0x1F NOT DUP5 AND PUSH2 0x1ED2 DUP7 PUSH2 0x1CBF JUMP JUMPDEST PUSH0 JUMPDEST DUP3 DUP2 LT ISZERO PUSH2 0x1EF9 JUMPI DUP5 DUP10 ADD MLOAD DUP3 SSTORE PUSH1 0x1 DUP3 ADD SWAP2 POP PUSH1 0x20 DUP6 ADD SWAP5 POP PUSH1 0x20 DUP2 ADD SWAP1 POP PUSH2 0x1ED4 JUMP JUMPDEST DUP7 DUP4 LT ISZERO PUSH2 0x1F16 JUMPI DUP5 DUP10 ADD MLOAD PUSH2 0x1F12 PUSH1 0x1F DUP10 AND DUP3 PUSH2 0x1E25 JUMP JUMPDEST DUP4 SSTORE POP JUMPDEST PUSH1 0x1 PUSH1 0x2 DUP9 MUL ADD DUP9 SSTORE POP POP POP JUMPDEST POP POP POP POP POP POP JUMP JUMPDEST PUSH0 PUSH2 0x1F35 DUP3 PUSH2 0x1559 JUMP JUMPDEST SWAP2 POP PUSH2 0x1F40 DUP4 PUSH2 0x1559 JUMP JUMPDEST SWAP3 POP DUP3 DUP3 SUB SWAP1 POP DUP2 DUP2 GT ISZERO PUSH2 0x1F58 JUMPI PUSH2 0x1F57 PUSH2 0x1B6E JUMP JUMPDEST JUMPDEST SWAP3 SWAP2 POP POP JUMP JUMPDEST PUSH32 0x54686520766F74657220697320616C7265616479207265676973746572656421 PUSH0 DUP3 ADD MSTORE POP JUMP JUMPDEST PUSH0 PUSH2 0x1F92 PUSH1 0x20 DUP4 PUSH2 0x1991 JUMP JUMPDEST SWAP2 POP PUSH2 0x1F9D DUP3 PUSH2 0x1F5E JUMP JUMPDEST PUSH1 0x20 DUP3 ADD SWAP1 POP SWAP2 SWAP1 POP JUMP JUMPDEST PUSH0 PUSH1 0x20 DUP3 ADD SWAP1 POP DUP2 DUP2 SUB PUSH0 DUP4 ADD MSTORE PUSH2 0x1FBF DUP2 PUSH2 0x1F86 JUMP JUMPDEST SWAP1 POP SWAP2 SWAP1 POP JUMP JUMPDEST PUSH0 PUSH2 0x1FD0 DUP3 PUSH2 0x1559 JUMP JUMPDEST SWAP2 POP PUSH32 0xFFFFFFFFFFFFFFFFFFFFFFFFFFFFFFFFFFFFFFFFFFFFFFFFFFFFFFFFFFFFFFFF DUP3 SUB PUSH2 0x2002 JUMPI PUSH2 0x2001 PUSH2 0x1B6E JUMP JUMPDEST JUMPDEST PUSH1 0x1 DUP3 ADD SWAP1 POP SWAP2 SWAP1 POP JUMP JUMPDEST PUSH0 DUP2 SLOAD SWAP1 POP PUSH2 0x201B DUP2 PUSH2 0x1C8F JUMP JUMPDEST SWAP1 POP SWAP2 SWAP1 POP JUMP JUMPDEST DUP2 DUP2 SUB PUSH2 0x2030 JUMPI POP POP PUSH2 0x2105 JUMP JUMPDEST PUSH2 0x2039 DUP3 PUSH2 0x200D JUMP JUMPDEST PUSH8 0xFFFFFFFFFFFFFFFF DUP2 GT ISZERO PUSH2 0x2052 JUMPI PUSH2 0x2051 PUSH2 0x15CF JUMP JUMPDEST JUMPDEST PUSH2 0x205C DUP3 SLOAD PUSH2 0x1C8F JUMP JUMPDEST PUSH2 0x2067 DUP3 DUP3 DUP6 PUSH2 0x1DD3 JUMP JUMPDEST PUSH0 PUSH1 0x1F DUP4 GT PUSH1 0x1 DUP2 EQ PUSH2 0x2094 JUMPI PUSH0 DUP5 ISZERO PUSH2 0x2082 JUMPI DUP3 DUP8 ADD SLOAD SWAP1 POP JUMPDEST PUSH2 0x208C DUP6 DUP3 PUSH2 0x1E41 JUMP JUMPDEST DUP7 SSTORE POP PUSH2 0x20FE JUMP JUMPDEST PUSH1 0x1F NOT DUP5 AND PUSH2 0x20A2 DUP8 PUSH2 0x1CBF JUMP JUMPDEST SWAP7 POP PUSH2 0x20AD DUP7 PUSH2 0x1CBF JUMP JUMPDEST PUSH0 JUMPDEST DUP3 DUP2 LT ISZERO PUSH2 0x20D4 JUMPI DUP5 DUP10 ADD SLOAD DUP3 SSTORE PUSH1 0x1 DUP3 ADD SWAP2 POP PUSH1 0x1 DUP6 ADD SWAP5 POP PUSH1 0x20 DUP2 ADD SWAP1 POP PUSH2 0x20AF JUMP JUMPDEST DUP7 DUP4 LT ISZERO PUSH2 0x20F1 JUMPI DUP5 DUP10 ADD SLOAD PUSH2 0x20ED PUSH1 0x1F DUP10 AND DUP3 PUSH2 0x1E25 JUMP JUMPDEST DUP4 SSTORE POP JUMPDEST PUSH1 0x1 PUSH1 0x2 DUP9 MUL ADD DUP9 SSTORE POP POP POP JUMPDEST POP POP POP POP POP POP JUMPDEST JUMP INVALID LOG2 PUSH5 0x6970667358 0x22 SLT KECCAK256 0x27 JUMPDEST EXTCODESIZE CALLVALUE SAR 0xC3 0xA7 DUP5 0xE8 SLT 0xA9 PUSH15 0xFB4D7C20E1A97F9C5B513FF3B0525D MUL 0xEA PREVRANDAO MUL GAS PUSH5 0x736F6C6343 STOP ADDMOD EQ STOP CALLER "
				},
				"gasEstimates": {
					"creation": {
						"codeDepositCost": "1701800",
						"executionCost": "infinite",
						"totalCost": "infinite"
					},
					"external": {
						"countVotes()": "infinite",
						"getAllProposals()": "infinite",
						"getWinningProposalId()": "4691",
						"owner()": "2538",
						"registerVoter(address)": "infinite",
						"renounceOwnership()": "infinite",
						"startProposalRegistrationSession()": "infinite",
						"startVotingSession()": "infinite",
						"stopProposalRegistrationSession()": "infinite",
						"stopVotingSession()": "infinite",
						"submitProposal(string)": "infinite",
						"transferOwnership(address)": "infinite",
						"vote(uint256)": "infinite"
					}
				},
				"methodIdentifiers": {
					"countVotes()": "b647990a",
					"getAllProposals()": "cceb68f5",
					"getWinningProposalId()": "e81e977b",
					"owner()": "8da5cb5b",
					"registerVoter(address)": "38db6dd3",
					"renounceOwnership()": "715018a6",
					"startProposalRegistrationSession()": "8efca69d",
					"startVotingSession()": "ee74c678",
					"stopProposalRegistrationSession()": "0e76ab1d",
					"stopVotingSession()": "17a0ad8e",
					"submitProposal(string)": "373d6d5e",
					"transferOwnership(address)": "f2fde38b",
					"vote(uint256)": "0121b93f"
				}
			},
			"storageLayout": {
				"storage": [
					{
						"astId": 8,
						"contract": "contracts/Voting.sol:Voting",
						"label": "_owner",
						"offset": 0,
						"slot": "0",
						"type": "t_address"
					},
					{
						"astId": 226,
						"contract": "contracts/Voting.sol:Voting",
						"label": "voters",
						"offset": 0,
						"slot": "1",
						"type": "t_mapping(t_address,t_struct(Voter)181_storage)"
					},
					{
						"astId": 229,
						"contract": "contracts/Voting.sol:Voting",
						"label": "voterAddresses",
						"offset": 0,
						"slot": "2",
						"type": "t_array(t_address)dyn_storage"
					},
					{
						"astId": 233,
						"contract": "contracts/Voting.sol:Voting",
						"label": "proposals",
						"offset": 0,
						"slot": "3",
						"type": "t_array(t_struct(Proposal)186_storage)dyn_storage"
					},
					{
						"astId": 237,
						"contract": "contracts/Voting.sol:Voting",
						"label": "newProposals",
						"offset": 0,
						"slot": "4",
						"type": "t_array(t_struct(Proposal)186_storage)dyn_storage"
					},
					{
						"astId": 239,
						"contract": "contracts/Voting.sol:Voting",
						"label": "winningProposalId",
						"offset": 0,
						"slot": "5",
						"type": "t_uint256"
					},
					{
						"astId": 242,
						"contract": "contracts/Voting.sol:Voting",
						"label": "workflowStatus",
						"offset": 0,
						"slot": "6",
						"type": "t_enum(WorkflowStatus)193"
					}
				],
				"types": {
					"t_address": {
						"encoding": "inplace",
						"label": "address",
						"numberOfBytes": "20"
					},
					"t_array(t_address)dyn_storage": {
						"base": "t_address",
						"encoding": "dynamic_array",
						"label": "address[]",
						"numberOfBytes": "32"
					},
					"t_array(t_struct(Proposal)186_storage)dyn_storage": {
						"base": "t_struct(Proposal)186_storage",
						"encoding": "dynamic_array",
						"label": "struct Voting.Proposal[]",
						"numberOfBytes": "32"
					},
					"t_bool": {
						"encoding": "inplace",
						"label": "bool",
						"numberOfBytes": "1"
					},
					"t_enum(WorkflowStatus)193": {
						"encoding": "inplace",
						"label": "enum Voting.WorkflowStatus",
						"numberOfBytes": "1"
					},
					"t_mapping(t_address,t_struct(Voter)181_storage)": {
						"encoding": "mapping",
						"key": "t_address",
						"label": "mapping(address => struct Voting.Voter)",
						"numberOfBytes": "32",
						"value": "t_struct(Voter)181_storage"
					},
					"t_string_storage": {
						"encoding": "bytes",
						"label": "string",
						"numberOfBytes": "32"
					},
					"t_struct(Proposal)186_storage": {
						"encoding": "inplace",
						"label": "struct Voting.Proposal",
						"members": [
							{
								"astId": 183,
								"contract": "contracts/Voting.sol:Voting",
								"label": "description",
								"offset": 0,
								"slot": "0",
								"type": "t_string_storage"
							},
							{
								"astId": 185,
								"contract": "contracts/Voting.sol:Voting",
								"label": "voteCount",
								"offset": 0,
								"slot": "1",
								"type": "t_uint256"
							}
						],
						"numberOfBytes": "64"
					},
					"t_struct(Voter)181_storage": {
						"encoding": "inplace",
						"label": "struct Voting.Voter",
						"members": [
							{
								"astId": 176,
								"contract": "contracts/Voting.sol:Voting",
								"label": "isRegistered",
								"offset": 0,
								"slot": "0",
								"type": "t_bool"
							},
							{
								"astId": 178,
								"contract": "contracts/Voting.sol:Voting",
								"label": "hasVoted",
								"offset": 1,
								"slot": "0",
								"type": "t_bool"
							},
							{
								"astId": 180,
								"contract": "contracts/Voting.sol:Voting",
								"label": "votedProposalId",
								"offset": 0,
								"slot": "1",
								"type": "t_uint256"
							}
						],
						"numberOfBytes": "64"
					},
					"t_uint256": {
						"encoding": "inplace",
						"label": "uint256",
						"numberOfBytes": "32"
					}
				}
			},
			"userdoc": {
				"kind": "user",
				"methods": {},
				"version": 1
			}
		}
	}
}